:0400000014EF00F009
:10000800FACF8CF4FBCF8DF4E9CF8EF483ED14F0A6
:10001800D8CF7AF4E8CF7BF4E0CF7CF454EF13F038
:1000280004EE24F07C0EF66E000EF76E10EE0DF066
:1000380035EC00F000EE00F014EE24F02EEC00F0A9
:1000480005EE00F011EE00F02EEC00F0000EF86E58
:10005800D6EF16F0EE6AE550E150FCE1E250FAE125
:1000680012000900F5CFEEFFE550E150FAE1E25049
:10007800F8E11200000100000100FFFFF3FF80FF1C
:10008800FF00000E040104013C6F000E04013D6FE7
:10009800000E04013E6F000E04013F6F0401370E8D
:1000A800040104015D6F0401040E04015E6F040184
:1000B800350E040104015B6F0401040E04015C6F3A
:1000C8002FEC16F00401370E04010401566F0401E9
:1000D800040E0401576F0401350E04010401546F26
:1000E8000401040E0401556FE1EC10F0010E040147
:1000F8000401386F000E0401396F000E04013A6FD5
:10010800000E04013B6F000E04010401406F000E55
:100118000401416F040104014151800A800F200E3F
:10012800D8B4405DD8A001D001D001D06FD004016F
:10013800370E04010401566F0401040E0401576FC1
:100148000401350E04010401546F0401040E040176
:10015800556FE1EC10F004010401426F0401370E01
:1001680004010401566F0401040E0401576F0401D1
:10017800350E04010401546F0401040E0401556F87
:10018800E1EC10F004010401436F1BD025D00401F9
:1001980004013851040104013C13040104013951DC
:1001A800040104013D13040104013A51040104014E
:1001B8003E13040104013B51040104013F130CD018
:1001C80029D143C455F442C454F4B3EC16F0000AE0
:1001D800DDE0010ADCE0F4D70401D89004013837E7
:1001E8000401393704013A3704013B37040104019B
:1001F800404B412B040104014151800A800F200E1D
:10020800D8B4405DD8A001D001D091D704013CC436
:1002180044F404013DC445F404013EC446F4040119
:100228003FC447F40401441F451F461F471F110ED2
:1002380006D0D89004014733463345334433E82E7B
:10024800F8D7FF0E040144150401486F000E04019D
:1002580045150401496F000E0401461504014A6F53
:10026800000E0401471504014B6F04013CC44CF413
:1002780004013DC44DF404013EC44EF404013FC4DE
:100288004FF4190E06D0D89004014F334E334D3336
:100298004C33E82EF8D7FF0E04014C150401506FBB
:1002A800000E04014D150401516F000E04014E1596
:1002B8000401526F000E04014F150401536F04012D
:1002C8004B51040153190EE104014A51040152191A
:1002D80009E1040149510401511904E1040148519B
:1002E80004015019D8B401D001D001D093D0FF0E29
:1002F80004013CC444F404013DC445F404013EC473
:1003080046F404013FC447F40401441F451F461F37
:10031800471F040144150401486F000E04014515E8
:100328000401496F000E0401461504014A6F000ECE
:100338000401471504014B6FFF0E04013CC44CF443
:1003480004013DC44DF404013EC44EF404013FC40D
:100358004FF44DC44CF44EC44DF44FC44EF4040154
:100368004F6B04014C150401506F000E04014D152C
:100378000401516F000E04014E150401526F000E66
:1003880004014F150401536F04014B510401531923
:100398000EE104014A510401521909E104014951CD
:1003A8000401511904E10401485104015019D8B459
:1003B80001D001D001D02ED0C9EC17F0F10E040104
:1003C8000401566F790E0401576F8C0E0401040165
:1003D800546F790E0401556F9AEC17F03CC456F42B
:1003E8003DC457F43EC458F43FC459F4E30E040125
:1003F8000401546F790E0401556F02EC0EF00401EC
:10040800446F020E04010401546F04014451BBEC13
:1004180017F000D012000401630E040104016A6F92
:100428000401040E04016B6F81D1040104016951B8
:10043800250AD8B401D001D005D069C472F438ECCB
:1004480017F074D10401706F000E04010401686F85
:10045800040170514BD07DD104010401688F61D033
:1004680004016AC4E9FF04016BC4EAFF0401020E37
:1004780004016A27000E04016B230401EECF6CF41B
:100488000401EDCF6DF4040104016D516C11D8A481
:1004980001D001D007D0A60E040104016C6F790EBB
:1004A80004016D6F10D004016CC4F6FF04016DC423
:1004B800F7FF08000401F5CF72F438EC17F00401D7
:1004C80004016C4B6D2B04016CC4F6FF04016DC470
:1004D800F7FF0800F5500009D8A401D001D0E3D7F0
:1004E80025D1C00E0401040168131BD0040161C4A6
:1004F800F6FF040162C4F7FF04010401614B622B9B
:1005080008000401F5CF69F404016951000AA3E069
:10051800580AA2E02B0AA4E0060AE3E00D0A9CE0D0
:10052800DFD704016AC4E9FF04016BC4EAFF0401D0
:10053800020E04016A27000E04016B230401EECFAA
:100548006CF40401EDCF6DF478D00401706F010EE6
:1005580004010401696F0401705104010401695127
:10056800050AD8A401D001D001D02AD00401040181
:100578006951020DFC0EF324F66EF76A780EF72225
:100588000900F5CF70F40900F5CF71F4040170513A
:10059800040104016C5D04017151040104016D59E9
:1005A800D8B001D001D001D00BD004010401692BCF
:1005B800040104016951050AD8A401D001D0D6D795
:1005C80045D00401706F010E04010401696F040134
:1005D8007051040104016951040AD8A401D001D062
:1005E80001D0EED7040104016951020D060EF3246F
:1005F800F66EF76A790EF7220900F5CF70F4090054
:10060800F5CF71F404017051040104016C5D04011B
:100618007151040104016D59D8B001D001D001D045
:10062800CFD704010401692B040104016951040AAC
:10063800D8A401D001D0D6D709D00401040168514B
:10064800C00B800ABEE0400A80E000D069C467F4AD
:1006580064D056D0040104016751020DFC0EF32446
:10066800F66EF76A780EF72209000401F5CF74F4E4
:100678000A000401F5CF75F46CC472F46DC473F408
:1006880043EC11F072C472F473C473F40A0E0401DB
:100698000401746F000E0401756FA2EC13F00401DD
:1006A80004017251300F04010401696F32D0040152
:1006B80004016751020D060EF324F66EF76A790EEF
:1006C800F72209000401F5CF74F40A000401F5CFFC
:1006D80075F46CC472F46DC473F443EC11F00F0E2E
:1006E800040104017217390E040104017225F66E23
:1006F800F76A790EF72208000401F5CF69F409D0EA
:10070800040104016851C00B800AD1E0400AA2E04C
:1007180000D069C472F438EC17F0040104016707CB
:1007280004016729D8A401D001D093D7040161C47A
:10073800F6FF040162C4F7FF04010401614B622B58
:1007480008000401F5CF69F40401696701D001D0FC
:100758006CD600D0120004014B6F000E0401040196
:10076800386F04014B51000E040104013D6F000E67
:1007780004013E6F000E04013F6F000E0401406F3C
:10078800010E04010401416F000E0401426F000EC6
:100798000401436F000E0401446F0401370E040185
:1007A80004015D6F0401040E04015E6F0401350E3F
:1007B800040104015B6F0401040E04015C6F2FEC5B
:1007C80016F00401370E04010401566F0401040EEB
:1007D8000401576F0401350E04010401546F04012C
:1007E800040E0401556FE1EC10F035C43BF436C437
:1007F8003CF40401040137C439F4040104013A6BE0
:10080800000E04010401456F000E0401466F040147
:1008180004014651800A800F200ED8B4455DD8A047
:1008280001D001D001D059D00401370E04010401D0
:100838004F6F0401040E0401506F0401350E0401CA
:1008480004014D6F0401040E04014E6FEEEC13F029
:1008580004010401496F040104014951020AD8A4A2
:1008680001D001D001D0EDD0040104014951D8B420
:1008780001D001D018D00401040141510401040140
:100888003D13040104014251040104013E13040113
:1008980004014351040104013F13040104014451BC
:1008A8000401040140130401D890040141370401F4
:1008B8004237040143370401443704010401454B1E
:1008C800462B040104014651800A800F200ED8B43B
:1008D800455DD8A001D001D0A7D7000E04010401BE
:1008E800476F000E0401486F040104014851800A53
:1008F800800F040ED8B4475DD8A001D001D001D034
:100908004AD00401370E040104014F6F0401040E9C
:100918000401506F0401350E040104014D6F0401F8
:10092800040E04014E6FEEEC13F0040104014A6F4B
:10093800040104014A51020AD8A401D001D001D00F
:1009480080D0040104014A51D8B401D001D013D099
:1009580047C44BF4010E04014C6F04014B2B03D028
:10096800D89004014C3704014B2FFAD704014C519D
:1009780004010401381304010401474B482B040106
:1009880004014851800A800F040ED8B4475DD8A0EE
:1009980001D001D0B6D70401040138510C0AD8B4EB
:1009A80001D001D001D04DD0C9EC17F0B40E04012C
:1009B8000401566F790E0401576FCE0E040104012D
:1009C800546F790E0401556F9AEC17F07A0E0401F2
:1009D8000401566F790E0401576F8C0E040104014F
:1009E800546F790E0401556F9AEC17F0250E040127
:1009F8000401566F790E0401576FC80E04010401F3
:100A0800546F790E0401556F9AEC17F03DC456F4F3
:100A18003EC457F43FC458F440C459F4E30E0401EB
:100A28000401546F790E0401556F02EC0EF00401B5
:100A38004B6F010E04010401546F04014B51BBECD0
:100A480017F01200040104013551D8B401D001D0C7
:100A580005D0030E04010401362704D0030E040157
:100A68000401365F2AD10B0E04010401366501D05A
:100A780001D009D0170E04010401366101D001D05C
:100A880002D0012A25D1030E04010401366501D0E4
:100A980001D01CD00D0E04010401366101D001D033
:100AA80015D0190E016401D001D00AD00401376FA6
:100AB800010E086E04013751000E196E000E1A6EF1
:100AC8000401376F000E016E0401375101D136C49D
:100AD8003AF435C439F439EC14F039C41BF43AC487
:100AE8001CF4040104011C29FE0ED8B41B19D8A457
:100AF80001D001D003D087EC17F0EAD0040104013B
:100B08001B29D8B41C29D8A401D001D001D0E0D029
:100B18001A501910D8A401D001D006D0040104013C
:100B28001B511A6E196A43D0040104011B51191292
:100B3800040104011C511A1211D00401376F060E6A
:100B4800026E0401375127D00401376F080E026E78
:100B58000401375120D087EC17F0BAD019C037F408
:100B68001AC038F40FD0040137514D0AEDE0F3D71D
:100B7800040137512D0AE8E0EED7040137514C0A39
:100B8800DCE0E9D7040138510A0AEDE0100AF0E088
:100B9800F00AF3E0E0D70401376F020E086E040193
:100BA80037510401376F000E016E0401375190D0A0
:100BB80036C43AF435C439F439EC14F039C41BF4AA
:100BC8003AC41CF4040104011C29FE0ED8B41B19F4
:100BD800D8A401D001D003D087EC17F079D0040154
:100BE80004011B29D8B41C29D8A401D001D001D0F4
:100BF8006FD00F0E0124E96EEA6A000EEA220401A2
:100C08001BC4EFFF012A0206026601D001D05ED79D
:100C180087EC17F0C9EC17F0B40E04010401566F05
:100C2800790E0401576FCE0E04010401546F790E3A
:100C38000401556F9AEC17F0BB0E04010401566FBE
:100C4800790E0401576F8C0E04010401546F790E5C
:100C58000401556F9AEC17F0040119C056F4040109
:100C68001AC057F404010401586B0401596BC80EEB
:100C780004010401546F790E0401556F02EC0EF063
:100C880001C049F40F0E04010401476F000E04016E
:100C9800486FE30E04010401456F790E0401466FA5
:100CA80033EC0FF00401376F010E04010401546F97
:100CB80004013751BBEC17F00BD00850000A01E1D2
:100CC800D2D6010A01E103D7030A01E171D700D0A6
:100CD8001200000E04010401386F000E0401396F80
:100CE800000E04013A6F000E04013B6F010E04016F
:100CF80004013C6F000E04013D6F000E04013E6FBD
:100D0800000E04013F6F0401370E040104015D6FFA
:100D18000401040E04015E6F0401350E0401040190
:100D28005B6F0401040E04015C6F2FEC16F00401E4
:100D3800370E04010401566F0401040E0401576FB5
:100D48000401350E04010401546F0401040E04016A
:100D5800556FE1EC10F0000E04010401406F000E25
:100D68000401416F040104014151800A800F200EE3
:100D7800D8B4405DD8A001D001D001D0A1D00401E1
:100D8800370E04010401566F0401040E0401576F65
:100D98000401350E04010401546F0401040E04011A
:100DA800556FE1EC10F004010401426F0401370EA5
:100DB80004010401566F0401040E0401576F040175
:100DC800350E04010401546F0401040E0401556F2B
:100DD800E1EC10F004010401436F0401370E040133
:100DE8000401566F0401040E0401576F0401350E07
:100DF80004010401546F0401040E0401556FE1EC71
:100E080010F004010401446F0401370E04010401C9
:100E1800566F0401040E0401576F0401350E0401D6
:100E28000401546F0401040E0401556FE1EC10F045
:100E380004010401456F1BD029D0040104013C5171
:100E4800040104013813040104013D5104010401A3
:100E58003913040104013E51040104013A13040149
:100E680004013F51040104013B1310D067D045C46D
:100E78004AF444C449F443C448F442C447F40BEC6C
:100E880015F0000AD9E0010AD8E0F0D70401D8909B
:100E980004013C3704013D3704013E3704013F3764
:100EA80004010401404B412B040104014151800A13
:100EB800800F200ED8B4405DD8A001D001D05FD7F4
:100EC800C9EC17F09E0E04010401566F790E040157
:100ED800576F8C0E04010401546F790E0401556F8D
:100EE8009AEC17F0570E04010401566F790E0401AD
:100EF800576FC80E04010401546F790E0401556F31
:100F08009AEC17F038C456F439C457F43AC458F474
:100F18003BC459F4E30E04010401546F790E040133
:100F2800556F02EC0EF00401466F020E0401040135
:100F3800546F04014651BBEC17F000D012000401B5
:100F4800346F000E04010401316F04013451A0D044
:100F58002EC45DF417C05BF418C05CF48BEC16F07B
:100F6800D8A001D001D02AD0960E0E6401D001D0AD
:100F780006D017C02CF418C02DF42EC42FF40E5030
:100F8800D8B401D001D00CD00EC036F40401346FAF
:100F9800000E04010401356F0401345126EC05F0FC
:100FA800042A0401346F000E0E6E0401345104014A
:100FB800346F000E056E0401345122D00E6601D044
:100FC80001D006D017C02AF418C02BF42EC41FF481
:100FD8000450D8B401D001D00CD004C036F40401B8
:100FE800346F010E04010401356F0401345126ECFD
:100FF80005F00E2A0401346F000E046E040134510A
:101008000401D8902E33040104012E6701D001D0C9
:1010180015D00401346F800E040104012E6F040101
:101028003451174A182A1850020A1710D8A401D0A8
:1010380001D004D0000E176E000E186E185004016F
:1010480004012D1904E11750040104012C19D8A436
:1010580001D001D00ED0040104012E510401040175
:101068002F6301D001D005D0040104012C690401CB
:101078002D690E50960AD8A401D001D009D00401D8
:10108800346F010E04010401316F040134510DD095
:10109800040104012151181804E10401040120513C
:1010A8001718D8A401D001D053D70401040131671F
:1010B80001D001D001D078D00550D8B401D001D0EA
:1010C80001D072D02AC437F42BC438F42CC435F4B8
:1010D8002DC436F4A9EC12F035C432F436C433F416
:1010E8000401040133BF01D001D00DD00401040173
:1010F8003351800A800F320ED8B4325DD8B001D097
:1011080001D001D051D0040104013351800A800F6D
:101118009E0ED8B4325DD8A001D001D00CD0040105
:1011280004013351800A800FA30ED8B4325DD8A0D1
:1011380001D001D000D01FC437F42AC435F42BC421
:1011480036F46DEC06F01FC437F42AC435F42BC40A
:1011580036F409EC0AF01FC437F42AC435F42BC45A
:1011680036F43EEC0CF01FC437F42AC435F42BC413
:1011780036F42CEC0BF01FC437F42AC435F42BC416
:1011880036F4AFEC03F01FC437F42AC435F42BC48B
:1011980036F445EC00F087EC17F00401346F010ECB
:1011A800056E0401345100D012000401356F0B0E96
:1011B80004010401326F040135510401356F0A0E30
:1011C80004010401336F04013551010E04010401C7
:1011D8003B6F000E04013C6FFD0E04010401396FE2
:1011E800790E04013A6F1B0E04010401376F000EDB
:1011F8000401386FFFEC12F0040138513711D8A4FC
:1012080001D001D011D0050E04010401636F000E56
:101218000401646F850E04010401616F790E0401F5
:10122800626F0FEC02F0F0D0010E040104013B6F75
:10123800000E04013C6FFB0E04010401396F790EA6
:1012480004013A6F1B0E04010401376F000E0401FC
:10125800386FFFEC12F0040138513711D8A401D0CF
:1012680001D00AD0D40E04010401616F790E040183
:10127800626F0FEC02F0C8D00401356F000E040154
:101288000401346F040135510401356F000E040167
:101298000401316F04013551B0D098D0040134C431
:1012A80035F40401366B010E04013527000E362390
:1012B8001B0E04013525E96E000E04013621EA6E85
:1012C800EF5004010401326F04010401342B92D061
:1012D800040134C435F40401366B010E04013527CA
:1012E800000E36231B0E04013525E96E000E04019D
:1012F8003621EA6EEF5004010401336F0401040142
:10130800342B78D033C43AF432C439F4010E0401D2
:101318000401342504010401376F0401386B000E01
:101328000401382351EC12F00401356F010E040159
:101338000401316F04013551D90E04010401616FB4
:10134800790E0401626F0FEC02F054D033C43AF402
:1013580032C439F4010E04010401342504010401E6
:10136800376F0401386B000E04013823F9EC11F0D3
:101378000401356F010E04010401316F0401355178
:10138800DE0E04010401616F790E0401626F0FEC37
:1013980002F030D01B0E040104013425E96EEA6A1C
:1013A800000EEA22EF500401356F040135510401A3
:1013B8000401636F0401646B0E0E04010401616F84
:1013C800790E0401626F0FEC02F01ED01B0E0401AF
:1013D80004013425E96EEA6A000EEA22EF50500A49
:1013E80001E15CD7020A01E173D7010A8BE0070A21
:1013F800ADE0D0D704010401342B040104013151BC
:10140800D8B401D001D049D71200000E040104015C
:101418003C6F000E04013D6F000E04013E6F000E8C
:1014280004013F6F010E04010401386F000E04012E
:10143800396F000E04013A6F000E04013B6F04017E
:10144800370E040104015D6F0401040E04015E6F90
:101458000401350E040104015B6F0401040E04014C
:101468005C6F2FEC16F00401370E04010401566F6F
:101478000401040E0401576F0401350E0401040130
:10148800546F0401040E0401556FE1EC10F0000ED6
:1014980004010401406F000E0401416F04010401BE
:1014A8004151800A800F0C0ED8B4405DD8A001D0FD
:1014B80001D001D08ED00401370E04010401566F0B
:1014C8000401040E0401576F0401350E04010401E0
:1014D800546F0401040E0401556FE1EC10F004018F
:1014E8000401426F0401370E04010401566F040120
:1014F800040E0401576F0401350E04010401546FF2
:101508000401040E0401556FE1EC10F0040104011C
:10151800436F0401370E04010401566F0401040EE1
:101528000401576F0401350E04010401546F0401CE
:10153800040E0401556FE1EC10F004010401446F3E
:101548000401370E04010401566F0401040E04015E
:10155800576F0401350E04010401546F0401040E91
:101568000401556FE1EC10F004010401456F04011A
:10157800D89004013C3704013D3704013E3704018B
:101588003F3706D016D0040104013C8112D05FD049
:1015980045C44AF444C449F443C448F442C447F433
:1015A800CCEC14F0000AEEE0010AEDE0030AEFE0EB
:1015B80000D004010401404B412B040104014151B6
:1015C800800A800F0C0ED8B4405DD8A001D001D09D
:1015D80072D7C9EC17F09E0E04010401566F790EFC
:1015E8000401576F8C0E04010401546F790E040135
:1015F800556F9AEC17F0640E04010401566F790ECA
:101608000401576FC80E04010401546F790E0401D8
:10161800556F9AEC17F03CC456F43DC457F43EC4D9
:1016280058F43FC459F4E30E04010401546F790ED1
:101638000401556F02EC0EF00401466F020E04011E
:101648000401546F04014651BBEC17F000D012009E
:10165800000E04010401386F000E0401396F000EFA
:1016680004013A6F000E04013B6F010E04010401EE
:101678003C6F000E04013D6F000E04013E6F000E2A
:1016880004013F6F0401370E040104015D6F04017A
:10169800040E04015E6F0401350E040104015B6F42
:1016A8000401040E04015C6F2FEC16F0000E040117
:1016B8000401406F000E0401416F0401040141510F
:1016C800800A800F180ED8B4405DD8A001D001D090
:1016D80001D0A1D00401370E04010401566F0401A2
:1016E800040E0401576F0401350E04010401546F00
:1016F8000401040E0401556FE1EC10F0040104012B
:10170800426F0401370E04010401566F0401040EF0
:101718000401576F0401350E04010401546F0401DC
:10172800040E0401556FE1EC10F004010401436F4D
:101738000401370E04010401566F0401040E04016C
:10174800576F0401350E04010401546F0401040E9F
:101758000401556FE1EC10F004010401446F040129
:10176800370E04010401566F0401040E0401576F7B
:101778000401350E04010401546F0401040E040130
:10178800556FE1EC10F004010401456F1BD029D01E
:10179800040104013C51040104013813040104014B
:1017A8003D51040104013913040104013E510401AF
:1017B80004013A13040104013F51040104013B13DD
:1017C80010D057D045C44AF444C449F443C448F43B
:1017D80042C447F44AEC15F0000AD9E0010AD8E0FF
:1017E800F0D70401D89004013C3704013D370401C7
:1017F8003E3704013F3704010401404B412B0401EB
:1018080004014151800A800F180ED8B4405DD8A059
:1018180001D001D05FD7C9EC17F04A0E04010401CA
:10182800566F790E0401576F8C0E04010401546F32
:10183800790E0401556F9AEC17F038C456F439C480
:1018480057F43AC458F43BC459F4E30E04010401B4
:10185800546F790E0401556F02EC0EF00401466FC7
:10186800020E04010401546F04014651BBEC17F049
:1018780000D012000401370E040104015D6F040159
:10188800040E04015E6F0401350E040104015B6F50
:101898000401040E04015C6F2FEC16F0040E040121
:1018A80004013D6F000E04013E6F040104013EAFC8
:1018B80001D001D001D07ED00401436F000E040195
:1018C80004013F6F04014351000E04010401406FFD
:1018D800000E0401416F040104014151800A800F88
:1018E800080ED8B4405DD8A001D001D001D04AD0AC
:1018F8000401370E04010401476F0401040E0401BA
:10190800486F0401350E04010401456F0401040EFB
:101918000401466F89EC15F004010401426F0401CB
:1019280004014251020AD8A401D001D001D088D0C4
:10193800040104014251D8B401D001D013D040C4ED
:1019480043F4010E0401446F0401432B03D0D890E3
:10195800040144370401432FFAD704014451040118
:1019680004013F1304010401404B412B040104010D
:101978004151800A800F080ED8B4405DD8A001D02C
:1019880001D0B6D70401380E040104013D25E96EE3
:10199800EA6A0401040EEA2204013FC4EFFF0401CD
:1019A80004013D07D8A03E07040104013EAF01D061
:1019B80001D082D7C9EC17F0B40E04010401566FA8
:1019C800790E0401576FCE0E04010401546F790E8D
:1019D8000401556F9AEC17F06F0E04010401566F5D
:1019E800790E0401576F8C0E04010401546F790EAF
:1019F8000401556F9AEC17F00401436F050E0401BA
:101A08000401496F040143510401380E0401040123
:101A1800476F0401040E0401486FE30E040104013A
:101A2800456F790E0401466F33EC0FF00401436FE4
:101A3800010E04010401546F04014351BBEC17F07B
:101A4800120004014C6F000E04010401496F0401E7
:101A58004C51030E04010401496501D001D001D0A5
:101A680023D0040104014951040104013F25E96E12
:101A78000401000E040104014021EA6E0401450E30
:101A8800040104014925E16EE26A0401040EE22220
:101A9800EFCFE7FF04010401492B030E0401040101
:101AA800496501D001D0DDD7050E040104013F25A9
:101AB80004014C6F000E04010401402104014D6F24
:101AC8004CC443F44DC444F40096000E0C6E0094CC
:101AD800040100EE04F004013F51E92604014051DD
:101AE800EA22EF5004010401426F04010401426735
:101AF80001D001D001D081D004010401426701D096
:101B080001D001D072D043C4E9FF44C4EAFFEF50CA
:101B180004010401416F04014C6F000E040104012B
:101B28004A6F04014C51030E040104014A6501D0B7
:101B380001D001D050D041C44CF4C00E04014C1760
:101B4800060E04014D6FD89004014C3304014D2F4B
:101B5800FAD704014C51040104014B6F0401450EEE
:101B6800040104014B25E96EEA6A0401040EEA2225
:101B7800010EEF6201D001D002D0008613D004011B
:101B8800450E040104014B25E96EEA6A0401040EBE
:101B9800EA22EF500D6EB18000D000A401D001D030
:101BA800FCD700940401D8904137D89041370401FC
:101BB8000401420704010401426701D001D001D0A9
:101BC8000AD0040104014A2B030E040104014A65EA
:101BD80001D001D0B0D704010401434B442B0401C8
:101BE8000401426701D001D08ED7009400D000A430
:101BF80001D001D0FCD7B1908998120054C463F485
:101C080055C464F4C20E04010401616F790E040125
:101C1800626F0FEC02F00401595156115711581117
:101C2800D8A401D001D00AD0F30E04010401616FD9
:101C3800790E0401626F0FEC02F071D004015D6F40
:101C4800010E040104015A6F04015D5104015D6F26
:101C5800000E040104015B6F04015D51070E0401CD
:101C680004015B6501D001D001D059D0040156C4EC
:101C78005DF4040157C45EF4040158C45FF4040120
:101C880059C460F41D0E06D0D890040160335F3348
:101C98005E335D33E82EF8D704015D510F0B040164
:101CA80004015C6F040104015C6701D001D008D015
:101CB800040104015A05D8A401D001D001D018D0DC
:101CC800040104015CC463F404010401646BEA0EBA
:101CD80004010401616F790E0401626F0FEC02F0D8
:101CE80004015D6F000E040104015A6F04015D5187
:101CF8000401040ED8900401563704015737040133
:101D0800583704015937E82EF5D7040104015B2B35
:101D1800070E040104015B6501D001D0A7D79C0E12
:101D280004010401616F790E0401626F0FEC02F087
:101D38001200036601D001D017D0030E040104017C
:101D48003E6501D001D007D00C0E040104013E65A8
:101D580001D001D002D0FE0E81D004013F6F010EE8
:101D6800036E04013F5178D00304D8A401D001D0F8
:101D780026D00B0E040104013E6501D001D007D026
:101D8800160E040104013E6501D001D008D00401FB
:101D98003F6F000E036E04013F51FE0E5FD00090AE
:101DA800040104013DA101D0008004013F6F020E2F
:101DB800036E04013F51000E00B0010E4FD00350D6
:101DC800020AD8A401D001D047D0040104013D5132
:101DD800D8B401D001D015D0030E040104013E652A
:101DE80001D001D00ED00D0E040104013E6101D0D6
:101DF80001D007D004013F6F000E036E04013F516C
:101E080029D00B0E040104013E6501D001D00ED08B
:101E1800170E040104013E6101D001D007D004016E
:101E28003F6F010E036E04013F5114D0030E0401ED
:101E380004013E6501D001D00DD00D0E040104014E
:101E48003E6101D001D006D004013F6F000E036E41
:101E580004013F51FF0E02D0FF0E00D0120045C40E
:101E680063F446C464F4ED0E04010401616F790E55
:101E78000401626F0FEC02F004014B6F000E0401C5
:101E880004014A6F04014B51040104014951040142
:101E980004014A5DD8A001D001D001D04BD0040183
:101EA80004014A51040104014725E96E0401000EAA
:101EB800040104014821EA6EEF5004014B6F0F0E34
:101EC80004014B1704014B5104010401656F04011F
:101ED800666B040104014A51040104014725E96EB7
:101EE8000401000E040104014821EA6EEF500401C8
:101EF8004C6F04014C3B0F0E4C1704014C5104016C
:101F08000401636F0401646BE80E04010401616F4E
:101F1800790E0401626F0FEC02F0040104014A2BF0
:101F2800040104014951040104014A5DD8A001D00B
:101F380001D0B5D79C0E04010401616F790E04012C
:101F4800626F0FEC02F012000401D8901D370401F3
:101F580004019951D8B401D001D01BD00401040167
:101F68001E2B040104011E51030AD8A401D001D07C
:101F780005D0070E040104011D130AD0030E040145
:101F880004011E6501D001D003D0040104011D81A4
:101F980008D004019A6F000E040104011E6F0401A9
:101FA8009A510401D890223704010401232B04011B
:101FB80004011DAF01D001D004D004010401228125
:101FC80000D0040104012351080AD8A401D001D08B
:101FD80029D004019A6F000E04010401236F040143
:101FE8009A511B0E040104012025E96E020E04011A
:101FF80004012121EA6E040122C4EFFF0401040157
:10200800204B212B040104012151020A2011D8A4DC
:1020180001D001D007D0000E04010401206F000E8A
:102028000401216F1200040104012651D8B401D023
:1020380001D024D0040104012551040104012427FE
:102048007E0E04010401246501D001D004D00401EE
:102058000401256911D004010401246701D001D0CD
:102068000BD004018A6F010E04010401256F0401DD
:102078008A5104010401260724C4BEFF0401040197
:102088002951D8B401D001D024D004010401285129
:102098000401040127277E0E04010401276501D0ED
:1020A80001D004D004010401286911D004010401FD
:1020B800276701D001D00BD004018A6F010E0401FB
:1020C8000401286F04018A5104010401290727C467
:1020D800BBFF04010401266701D001D002D0000E25
:1020E800BE6E04010401296701D001D002D0000EA0
:1020F800BB6E12000096000E0C6E00943FC4E9FF00
:1021080040C4EAFFEF500D6EB18000D000A401D0AA
:1021180001D0FCD7010E04010401416F000E040137
:10212800426F2FD0040104014151040104013F25ED
:10213800E96E040104014251040104014021EA6EE0
:10214800010EEF6201D001D002D0008616D00094B3
:10215800040104014151040104013F25E96E040111
:1021680004014251040104014021EA6EEF500D6E52
:1021780000D000A401D001D0FCD704010401414BD8
:10218800422B040104014151040104013F25E96E79
:10219800040104014251040104014021EA6EEF5098
:1021A800D8A401D001D0BED7009400D000A401D09B
:1021B80001D0FCD7B1908998120004015A6F000E23
:1021C80004010401596F04015A5156C4E9FF57C468
:1021D800EAFFEF50040104015D6F54C4E9FF55C4E0
:1021E800EAFF0401EECF5BF40401EDCF5CF48BEC65
:1021F80016F0D8B001D002D0010E01D0000E0401B3
:102208000401586F04010401592B56C45DF457C4E6
:102218005EF454C45BF455C45CF42FEC16F056C459
:10222800E9FF57C4EAFFEF50040104015D6F54C48D
:10223800E9FF55C4EAFF0401EECF5BF40401EDCFDA
:102248005CF48BEC16F0D8B001D002D0010E01D0AE
:10225800000E040104015819D8B401D001D004D0EB
:102268000401040159510AD0040104015929D8A4D0
:1022780001D001D002D0000E01D0C4D71200000E48
:1022880004010401776F000E0401786F0401040152
:1022980075517411D8B401D001D047D00401796FB9
:1022A800010E04010401766F0401795109D004017B
:1022B800D890040174370401753704010401762BA2
:1022C8000401040175AF01D001D0F1D70401D89001
:1022D80004017737040178370401040174510401BB
:1022E8000401725D0401040175510401040173596C
:1022F800D8A001D001D00FD0040104017451040109
:102308000401725F04010401755104010401735B47
:102318000401040177810401D89004017533040194
:10232800743304010401762FD1D777C472F478C4CA
:1023380073F400D01200000EAB6EAB8EAB88AC907D
:10234800AC8AAC94B896948E949C06D00401AECF17
:1023580031F404010401326B9EBA01D001D0F6D7E2
:102368000401336F400EAF6E040133519F9A9F985A
:10237800F28C9D8A9D98CD909E90000ECF6E000E97
:10238800CE6ECD9ACD98CD92000E04010401386F1F
:10239800020E0401396F000E04010401366F000EAD
:1023A8000401376F1B0E04010401346F000E040191
:1023B800356F19EC17F0000E04010401386F010E97
:1023C8000401396F2D0E04010401366F000E04015B
:1023D800376F0501000E04010401346F0501050E75
:1023E8000401356F19EC17F01200E6EC17F0040140
:1023F8003D6F000E040104013B6F04013D5140D0C4
:1024080004013D6F020E040104013F6F04013D51B8
:10241800EAEC17F01B0E04013D6F000E3E6F04013D
:102428000401375104013D27040104013851040116
:102438003E233DC43FF43EC440F425EC0DF00401B6
:102448003D6F000E040104013C6F04013D510BD0A7
:102458000D0E04013D6FF90EE82EFED73D2FFCD777
:10246800040104013C2B0401040139510401040155
:102478003C5DD8A001D001D0EBD7040104013B2B6F
:10248800040104013A51040104013B5DD8A001D0C4
:1024980001D0B6D7DCEC17F01200E6EC17F0040117
:1024A8003D6F000E040104013B6F04013D5140D013
:1024B80004013D6F020E040104013F6F04013D5108
:1024C800EAEC17F01B0E04013D6F000E3E6F04018D
:1024D8000401375104013D27040104013851040166
:1024E8003E233DC43FF43EC440F47EEC10F00401AA
:1024F8003D6F000E040104013C6F04013D510BD0F7
:102508000D0E04013D6FF90EE82EFED73D2FFCD7C6
:10251800040104013C2B04010401395104010401A4
:102528003C5DD8A001D001D0EBD7040104013B2BBE
:10253800040104013A51040104013B5DD8A001D013
:1025480001D0B6D7DCEC17F01200040104013529DC
:10255800D8B43629D8A401D001D006D0040104018A
:1025680035690401366946D0040104013851800AEE
:102578000401396F0401355104010401375D040178
:1025880004013651800A04013959D8A001D001D07C
:1025980012D004010401355104010401375D04011E
:1025A8000401356F0401040136510401040138594E
:1025B8000401366F1FD0000E0401396F020E3A6F06
:1025C8000401040135510401395F04010401365145
:1025D80004013A5B0401040137510401392504015F
:1025E8000401356F04010401385104013A21040142
:1025F800366F00D012003ED037C4E9FF38C4EAFF76
:10260800EF50D8B401D001D014D0040139C4F6FF7A
:1026180004013AC4F7FF0800F5CF3DF437C4E9FFD9
:1026280038C4EAFFEF5004013D19D8B401D001D0F5
:1026380019D037C4E9FF38C4EAFFEF5004013D6FF1
:10264800040139C4F6FF04013AC4F7FF0800F55045
:1026580004013D5D04010401376F0401386BD8A003
:1026680038071DD004010401374B382B040104013D
:10267800394B3A2B040104013B07D8A03C0704015D
:102688003B29D8B43C29D8A401D001D0B5D7000E35
:1026980004010401376F000E0401386F00D01200E6
:1026A800FACF7DF4FBCF7EF4E9CF7FF4EACF80F454
:1026B800E1CF81F4E2CF82F4D9CF83F4DACF84F486
:1026C800F3CF85F4F4CF86F4F6CF87F4F7CF88F408
:1026D800F8CF89F49EAA01D001D002D0C6EC15F03B
:1026E8009EA801D001D002D05EEC16F09EA201D0C7
:1026F80001D003D017EC10F09E9289C4F8FF88C46B
:10270800F7FF87C4F6FF86C4F4FF85C4F3FF84C4CB
:10271800DAFF83C4D9FF82C4E2FF81C4E1FF80C429
:10272800EAFF7FC4E9FF7EC4FBFF7DC4FAFF7CC4D7
:10273800E0FF7BC4E8FF7AC4D8FF1000040104015D
:1027480075517411D8B401D001D03ED00401776F0F
:10275800010E04010401766F0401775109D00401C8
:10276800D890040174370401753704010401762BED
:102778000401040175AF01D001D0F1D704010401AF
:10278800745104010401725D0401040175510401CE
:1027980004017359D8A001D001D00CD00401040160
:1027A800745104010401725F0401040175510401AC
:1027B8000401735B0401D890040175330401743378
:1027C80004010401762FDAD772C472F473C473F467
:1027D80000D012004FC456F450C457F44DC454F4FA
:1027E8004EC455F4E1EC10F004010401526F130ECD
:1027F80004010401526501D001D009D0290E040159
:102808000401526101D001D002D0000E2DD04FC476
:1028180056F450C457F44DC454F44EC455F4E1EC86
:1028280010F004010401516F010E04010401526506
:1028380001D001D017D0150E04010401526101D056
:1028480001D010D0010E04010401516501D001D05E
:1028580009D0150E04010401516101D001D002D044
:10286800010E02D0020E00D012003AC43EF439C460
:102878003DF49DEC0EF0040104013B6F04010401DA
:102888003B51FE0AD8A401D001D008D0FE0E0401A5
:102898000401396FFF0E04013A6F30D004010401BE
:1028A8003B29D8A401D001D006D00401040139691C
:1028B80004013A6923D0D8900632040104013B513F
:1028C800D8B401D001D001D0068E0B2A080E0B60B7
:1028D80001D001D006D004010401396904013A6924
:1028E8000DD004013C6F000E0B6E04013C51040135
:1028F80006C039F4040104013A6B00D01200060046
:10290800EACF8FF4E1CF90F4E2CF91F4D9CF92F4EB
:10291800DACF93F4F3CF94F4F4CF95F4F6CF96F49A
:10292800F7CF97F4F8CF98F4F2A401D001D00BD0E8
:10293800000E81B8010E04010401996FA8EC0FF094
:10294800000ED66EF294A1A201D001D006D0B368D1
:10295800C90EB26E72EC17F0A19298C4F8FF97C432
:10296800F7FF96C4F6FF95C4F4FF94C4F3FF93C42D
:10297800DAFF92C4D9FF91C4E2FF90C4E1FF8FC48B
:10298800EAFF8EC4E9FF8DC4FBFF8CC4FAFF110077
:102998000F0E04010401476501D001D017D00A0EBB
:1029A80004010401486101D001D010D00F0E0401C8
:1029B8000401496501D001D009D00A0E04010401BF
:1029C8004A6101D001D002D0000E20D00A0E0401C5
:1029D8000401476101D001D017D00F0E0401040192
:1029E800486501D001D010D00F0E040104014965DB
:1029F80001D001D009D00A0E040104014A6101D0B6
:102A080001D002D0010E02D0020E00D012000F0E2B
:102A180004010401476501D001D017D00A0E040152
:102A28000401486101D001D010D00A0E040104014C
:102A3800496101D001D009D00A0E040104014A619C
:102A480001D001D002D0000E20D00A0E04010401EA
:102A5800476101D001D017D00A0E04010401486172
:102A680001D001D010D00F0E04010401496501D036
:102A780001D009D00A0E040104014A6101D001D035
:102A880002D0010E02D0020E00D012000D0E040179
:102A98000401476101D001D017D00D0E04010401D3
:102AA800486101D001D010D00D0E04010401496124
:102AB80001D001D009D0100E040104014A6501D0EB
:102AC80001D002D0010E20D00D0E0401040147618F
:102AD80001D001D017D0100E04010401486501D0BF
:102AE80001D010D00D0E04010401496101D001D0BC
:102AF80009D00D0E040104014A6101D001D002D0B1
:102B0800000E02D0020E00D0120047C456F448C48A
:102B180057F445C454F446C455F4E1EC10F00401EC
:102B28000401496F47C456F448C457F445C454F4E3
:102B380046C455F4E1EC10F0040104014A6F0D0E8F
:102B480004010401496501D001D009D00D0E04012A
:102B580004014A6501D001D002D0000E12D00A0E3D
:102B680004010401496101D001D009D00D0E04010E
:102B780004014A6501D001D002D0010E02D0020E34
:102B880000D01200AECF8AF4ABA201D001D002D09F
:102B9800AB98AB8800A201D001D001D029D00401A4
:102BA80004018A512B0AD8A401D001D00BD0CD90B2
:102BB80000821B0E0724E96EEA6A000EEA22000E64
:102BC800EF6E16D01B0E0724E96EEA6A000EEA22A1
:102BD80004018AC4EFFF072A000ECF6E000ECE6EE6
:102BE800CD809E9004018B6F000E0A6E04018B51FC
:102BF80012009EA001D001D00CD01E0E0A6401D094
:102C080001D005D0CD90000E076E009201D00A2A9F
:102C18009E9000B201D001D001D01CD0D9EC08F0B0
:102C2800000E04010401386F020E0401396F000E12
:102C380004010401366F000E0401376F1B0E0401F6
:102C48000401346F000E0401356F19EC17F0000E03
:102C5800076E009212005DC4E9FF5EC4EAFFD890D7
:102C6800EF365DC4E9FF5EC4EAFFEF50D8A401D097
:102C780001D01FD05DC4E9FF5EC4EAFF010EEF6E0C
:102C88005BC4E9FF5CC4EAFFEE50ED10D8A401D0A4
:102C980001D008D05BC4E9FF5CC4EAFF000EEE6E09
:102CA800020EED6E5BC4E9FF5CC4EAFFEE06000E9F
:102CB800ED5A120030C48AF4040104018A29D8A408
:102CC80001D001D009D004018B6F000E040104016A
:102CD8008A6F04018B5103D0040104018A2B095027
:102CE800040104018A6301D001D002D09D980ED05E
:102CF8000501000E040104018A25E96EEA6A05014E
:102D0800050EEA22EF50AD6E8AC430F412001B0E95
:102D1800040104015B25E96E020E040104015C2133
:102D2800EA6EEF50040104015E6F040104015E5174
:102D380004015DC45FF40401606B5FBF60070401B8
:102D48005F17000E6017040160515F11D8B401D0FD
:102D580001D002D0D88002D0D89000D012000D0E39
:102D680004010401546101D001D009D00D0E040101
:102D78000401556101D001D002D0000E12D0180E06
:102D880004010401546501D001D009D00D0E0401DD
:102D98000401556101D001D002D0010E02D0020E0B
:102DA80000D01200F9EC16F0E1EC17F09FEC11F0EE
:102DB800ACEC17F0D3EC17F057EC17F0050E040144
:102DC8000401636F000E0401646F830E04010401A3
:102DD800616F790E0401626F0FEC02F0A3EC07F04B
:102DE800FDEC15F0FBD714EF00F0000EC26E0401E5
:102DF800316F0F0EC16E04013151070EB46E000E13
:102E0800806E000E926E000E946E000E956E000E8F
:102E1800826E000E836E000E936E000E816E89988E
:102E28009298949294949296120034C43AF435C4C9
:102E38003BF40BD03AC4E9FF3BC4EAFF040136C4B3
:102E4800EFFF040104013A4B3B2B0401040138074E
:102E5800D8A0390704013829D8B43929D8A401D011
:102E680001D0E8D700D0120000D0095004010401B5
:102E78003019D8B401D001D0F8D70501000E0924C3
:102E8800E96EEA6A0501050EEA22040172C4EFFF41
:102E98000928D8A401D001D003D0000E096E01D0B2
:102EA800092A9D881200CA82CA9CCA8ACA98CA96E8
:102EB800000EBD6E000EBA6EBA86BA84BD86BD8499
:102EC800BD9ABD98BA9ABA98000EBE6E000EBB6E37
:102ED8009E92CB689F929D82CA8412000C6601D094
:102EE80001D00AD00DC00CF0008400B601D001D08A
:102EF80002D0897801D000960C50D8B401D001D006
:102F080001D00C0612000401396F000E0B6E04018B
:102F180039510401396F000E036E0401395104015F
:102F2800396F000E086E04013951120056C465F459
:102F380057C466F454C463F455C464F4AD0E040174
:102F48000401616F790E0401626F0FEC02F0120048
:102F5800D594D592D590D596D59AD58CF294F28AF7
:102F680092969388F184D58EEDEC17F01200220E1C
:102F780004010401616F790E0401626F0FEC02F025
:102F880054C455F4F3EC17F01200F50E04010401D3
:102F9800616F790E0401626F0FEC02F012009294D7
:102FA80092988998B19AB198A082A282B1901200A1
:102FB800EDEC17F0D58EB1901200D08EF28EF28C17
:102FC800F28E1200D59EF0EC17F012003FC429F4DF
:102FD800120089948986120089848996120055C442
:042FE80026F41200B9
:1078FC0001000A006400E8031027010010000001D9
:10790C000010556E6B6E6F776E20636F6D6D616ED0
:10791C006420282575290D0A0074656D70657261E7
:10792C007475726568756D6964697479003031328B
:10793C003334353637383941424344454600657651
:10794C006572666C6F75726973680073656C666CD2
:10795C006561726E696E6700636F646573776974D5
:10796C0063680066696E656F6666736574006D6149
:10797C006E646F6C796E000D0A2B5625750D0A001E
:10798C0070726F746F636F6C0025733A3078255882
:10799C003B006172637465636800286E756C6C29BA
:1079AC000025733A25733B0073656E736F72006F1D
:1079BC007265676F6E0025733A3078006D6F646581
:1079CC006C00636C617373002B4E0D0A002B530D0E
:1079DC000A002B540D0A0064617461002558255867
:1079EC000025733A00783130002B57002B52004E93
:0479FC000056000031
:020000040030CA
:04000000FF36FFFECA
:02000600BFFF3A
:00000001FF
