:0400000014EF00F009
:10000800FACFE3F7FBCFE4F7E9CFE5F7D7EF16F040
:10001800D8CFCBF7E8CFCCF7E0CFCDF78FEF16F0FE
:1000280006EEB5F0000EF66E000EF76E010EF86ED5
:1000380010EE31F042EC00F0F86A00EE00F010EE3D
:10004800FFF03BEC00F001EE00F012EEFFF03BECAD
:1000580000F004EE00F010EEFFF03BEC00F005EECF
:1000680000F011EEB5F03BEC00F0F8EF04F0EE6AAA
:10007800E550E150FCE1E250FAE112000900F5CF49
:10008800EEFFE550E150FAE1E250F8E11200070115
:10009800BB6F140E326E0701BB510701BB6F450ED3
:1000A80007010701A76F0701BB510701BB6F000ECE
:1000B80007010701A86F0701BB51140E07010701CB
:1000C800A52507010701A96F000E07010701A62151
:1000D8000701AA6F154A162A15C0ABF716C0ACF768
:1000E800000E07010701AD6F000E0701AE6F070193
:1000F800BB6F640E07010701AF6F0701BB51A4C7AF
:10010800B0F7000E07010701B16F000E0701B26FCB
:100118003CC6B3F73DC6B4F73EC6B5F73FC6B6F71B
:10012800A2C7E9FFA3C7EAFF0701EECFB7F70701A8
:10013800EECFB8F70701EECFB9F70701EECFBAF760
:100148000701A70E07010701BC6F0701070E07018A
:10015800BD6F52EC0FF0140E07010701BE6F000EC1
:100168000701BF6F0701A70E07010701BC6F070151
:10017800070E0701BD6F38EC06F0BCC7B1F7BDC765
:10018800B2F7140E07010701A52507010701BF6F84
:10019800000E07010701A6210701C06F0701BB6F09
:1001A800000E07010701BE6F0701BB51040E0701CE
:1001B8000701A22507010701BC6F000E070107010F
:1001C800A3210701BD6FA9EC12F0140E0701070166
:1001D800C46F000E0701C56F0701A70E07010701CD
:1001E800C26F0701070E0701C36FB8EC1FF000D0FC
:1001F8001200040E07010701C66F000E0701C76F42
:100208000701210E07010701C46F0701070E070147
:10021800C56FA4EC19F0070107012151080A221142
:10022800D8A401D001D090D01FC73FF720C740F70E
:10023800140E070107013D6F000E07013E6F46ECE3
:1002480016F007013E513D11D8B401D001D001D0BC
:100258007BD00701256F000E07010701216F0701F9
:100268002551080E070107012327080E070107017A
:10027800236101D001D00CD007010701242B07010D
:100288000701246701D001D003D007010701232B00
:1002980000D01CEC1EF00009D8B401D001D0F9D769
:1002A800DD0E07010701AE6F0A0E0701AF6F86EC7E
:1002B80022F01FC7A5F720C7A6F70701256F010E73
:1002C80007010701A46F070125511DC7A2F71EC723
:1002D800A3F74BEC00F0040E07010701C46F000EF2
:1002E8000701C56F0701210E07010701C26F07014A
:1002F800070E0701C36FB8EC1FF0FC0E07010701DA
:100308001F2507010701B26FFF0E07010701202112
:100318000701B36FFF0E07010701B06FFF0E07015A
:10032800B16FFF0E07010701AE6FFF0E0701AF6F38
:10033800F8ECD1F000D07CEC22F00009D8B401D060
:1003480001D0F9D780EC1FF0120007010F6F000EE3
:10035800070107010E6F07010F5197D00701070129
:100368000D513A0AD8A401D001D016D000010001DD
:10037800F051EF11D8A401D001D007D007010F6FB9
:10038800020E266E07010F5106D007010F6F010EEE
:10039800266E07010F5184D000010001EF3B0001D8
:1003A800F03BF00E0001F0170001EF510F0B0001B8
:1003B800F013F00E0001EF170DC73FF7FDEC12F038
:1003C80007010F6F07010F5100010001EF1368D0FB
:1003D80003D0070107010E2B06016F0E0701070165
:1003E8000E25E96EEA6A0601060EEA22EF50D8A445
:1003F80001D001D0EED706016F0E070107010E25C7
:10040800E96EEA6A0601060EEA2207010DC7EFFF48
:1004180000010001EF07D8A0F00700010001F0512A
:10042800EF11D8A401D001D0B6D7262A39D00701B8
:1004380007010D51690AD8B401D001D002D026684D
:10044800AAD7262A2DD0070107010D51730AD8A46F
:1004580001D001D007D007010F6F000E266E0701EB
:100468000F511ED00D3A0E3AF00E0E160D500F0B0E
:100478000E12F00E0D160DC73FF7FDEC12F0070136
:100488000F6F07010F510D120BD02650000A01E122
:1004980065D7010A9DE0030ACAE0010AD4E000D04A
:1004A800120000D01CEC1EF00009D8B401D001D015
:1004B800F9D7CF0E07010701AE6F0A0E0701AF6F1C
:1004C80086EC22F078C7E9FF79C7EAFF010EEE6EE5
:1004D800000EED6E020E070107017825E96E000E89
:1004E800070107017921EA6E000EEE6E080EED6E27
:1004F800040E070107017825E96E000E07010701C0
:100508007921EA6E060EEF6E050E070107017825C0
:10051800E96E000E070107017921EA6E040EEF6EFD
:10052800060E07010701B26F000E0701B36F690ECF
:1005380007017A6F060E7B6F7AC7B0F77BC7B1F7F2
:10054800080E07010701782507010701AE6F000EA5
:100558000701070179210701AF6F18EC1AF00E0E99
:10056800070107017825E96E000E070107017921C7
:10057800EA6E06013CC6EEFF06013DC6EEFF060127
:100588003EC6EEFF06013FC6EEFF78C77CF779C787
:100598007DF79FEC11F01C0E07010701BF6F000EDD
:1005A8000701C06F07017A6F060E07010701BE6FCA
:1005B80007017A51120E0701070178250701070183
:1005C800BC6F000E0701070179210701BD6FA9EC77
:1005D80012F01C0E07010701C46F000E0701C56F5A
:1005E80078C7C2F779C7C3F7B8EC1FF080EC1FF0E3
:1005F800010E00D0120021C733F722C734F7F1ECFF
:1006080013F00701276F690E07010701486F0701FB
:100618002751D0EC1DF00701070124512311D8A45C
:1006280001D001D00BD00701276F300E0701070159
:10063800486F07012751D0EC1DF07CD00701276FC8
:10064800000E07010701266F07012751070107015F
:10065800255107010701265DD8A001D001D001D09E
:1006680021D0070107012651070107012325E96E5B
:100678000701000E070107012421EA6EEF50300A36
:10068800D8B401D001D001D00DD007010701262B25
:1006980007010701255107010701265DD8A001D0F0
:1006A80001D0DFD707010701255107010701265DA2
:1006B800D8A001D001D001D03DD0070107012651B3
:1006C800070107012325E96E0701000E070107014D
:1006D8002421EA6EEF50070107013C6F59EC1DF029
:1006E80007010701486FD0EC1DF0070107012651EB
:1006F800070107012325E96E0701000E070107011D
:100708002421EA6EEF5007010701486F31EC1DF014
:1007180007010701486FD0EC1DF007010701262BE0
:1007280007010701255107010701265DD8A001D05F
:1007380001D0C3D70701276F730E07010701486F60
:1007480007012751D0EC1DF012000E010E01D967E8
:1007580001D001D002D0000EA1D0346601D001D062
:1007680004D026EC1BF0000E99D0FBC0FDF3FCC0B2
:10077800FEF3FDC3E0FEFEC3E1FE140E0701070110
:10078800C66F000E0701C76F0701210E0701070199
:10079800C46F0701070E0701C56FA4EC19F033C732
:1007A800BEF734C7BFF7B8EC21F0BEC733F7BFC7F1
:1007B80034F7CE0E07010701215D0A0E0701225901
:1007C800D8B001D001D023D00701070121B101D051
:1007D80001D01DD00701070126BF01D001D017D0D5
:1007E8000701070125B901D001D011D0EF0E07018B
:1007F8000701235D050E07012459D8B001D001D0A7
:1008080006D00701070125BF01D001D001D0FF00A4
:1008180021C7FBF022C7FCF0060E07010701B26FE3
:10082800000E0701B36F2D0E0701356F070E366FE7
:1008380035C7B0F736C7B1F71DC7AEF71EC7AFF754
:1008480018EC1AF01FC7E9FF20C7EAFFFF0EEF6E8A
:10085800070107013451080AD8A401D001D016D0E5
:10086800070107013351D8B401D001D008D00701DE
:1008780007013351060AD8A401D001D007D01FC7F9
:10088800E9FF20C7EAFF070133C7EFFF0701356F0C
:10089800000E346E07013551010E00D012004CC70E
:1008A800E9FF4DC7EAFFEECF50F7EECF51F7EECF95
:1008B80052F7EECF53F700010001E8510701531931
:1008C80011E100010001E751070152190BE1000194
:1008D8000001E6510701511905E100010001E55148
:1008E80007015019D8B401D001D06CD00001000123
:1008F800E85106010601471914E100010001E7511A
:100908000601060146190DE100010001E651060144
:100918000601451906E100010001E551060106013D
:100928004419D8A401D001D05CD04CC7E9FF4DC709
:10093800EAFFEECF50F7EECF51F7EECF52F7EECFFA
:1009480053F7060106013C51070150190701546F7E
:10095800060106013D51070151190701556F0601AE
:1009680006013E51070152190701566F060106019B
:100978003F51070153190701576F060106014051FE
:10098800070154150701586F060106014151070177
:1009980055150701596F0601060142510701561501
:1009A80007015A6F06010601435107015715070150
:1009B8005B6F07015B51581159115A11D8B401D016
:1009C80001D00FD000EEE9F007014EC7E1FF0701A3
:1009D8004FC7E2FF060EEECFE6FFE82EFCD7010E6A
:1009E80002D0000E00D01200000E07010701006FB0
:1009F800000E0701016F000E0701026F000E0701CC
:100A0800036F000E0E010E01B66F000E0E010E01EF
:100A1800B76F000E926E000E936E000E946E000E6D
:100A2800956E000E966E000E976E000E986E000E74
:100A3800806E000E816E000E826E000E836E000EB8
:100A4800846E000E856E0701046F400E9B6E0701D1
:100A580004510701046F0F0EC16E07010451AEEC7B
:100A680022F0E5EC21F040EC1EF0D6EC22F0A5ECEB
:100A7800E4F0F0EC22F0D7EC21F08DEC1BF0420E04
:100A8800070107010B6F370E07010C6F0701046F91
:100A9800140E070107010A6F0701045127EC1FF024
:100AA8005CECBCF0DEEC22F019EC22F00701070147
:100AB800005107010701A35D0701046F0701070142
:100AC800015107010701A4590701056F0701070133
:100AD800025107010701A5590701066F0701070120
:100AE800035107010701A6590701076FF20E045DBC
:100AF8009E0E0559000E0659000E07010759D8A089
:100B080001D001D00AD019EC22F0A3C700F7A4C77E
:100B180001F7A5C702F7A6C703F7CFECCAF0B7ECF1
:100B280022F00400BDD714EF00F00701386F000E63
:100B380007010701366F070138510701386F000EAA
:100B480007010701376F0701385121D00401000E52
:100B58002524E96EEA6A0401040EEA22EF5007012F
:100B68000701356F252A0701070135513A0AD8A42C
:100B780001D001D001D010D00701373BF00E371754
:100B880035C73FF7FDEC12F0070107013713C70E11
:100B9800256401D001D0DAD7070137C738F7070134
:100BA800396BFF0E07010701342507013A6F07016A
:100BB8003B6BFF0E07013B2307013B51800A0701EE
:100BC8003C6F0701385107013A5D07013951800A26
:100BD80007013C59D8B001D001D006D00701070160
:100BE80037512526000E3FD00701386F000E070148
:100BF8000701366F070138511BD00401000E252468
:100C0800E96EEA6A0401040EEA2207010701365177
:100C1800070107013225E16E0701000E07010701F0
:100C28003321E26EEFCFE7FF252A07010701362BB4
:100C380007010701375107010701365DD8A001D028
:100C480001D0DBD70701070137510701070132251A
:100C5800E96E0701000E070107013321EA6E000E55
:100C6800EF6E010E00D01200D89007010701BF31C6
:100C780007010701C16F07010701BE310701C06FF6
:100C8800BCC7C2F7BDC7C3F7000E07010701C46F91
:100C9800000E0701C56F000E0701C66F000E0701A1
:100CA800C76F23D00701C2C7E9FF0701C3C7EAFF1F
:100CB8000701020E0701C227000E0701C323EECF6A
:100CC800C8F7EDCFC9F70701C85107010701C427C5
:100CD8000701C95107010701C523000E07010701D4
:100CE800C623000E07010701C72307010701C00734
:100CF800D8A0C1070701C029D8B4C129D8A401D0F8
:100D080001D0D0D707010701BEA101D001D013D06F
:100D1800C2C7E9FFC3C7EAFFEF500701C86F070161
:100D2800C85107010701C427000E0701C5230701A1
:100D3800C6230701C723070107EEC6F0EECFC8F7A1
:100D4800EDCFC9F707010701C4510701C8270701FB
:100D58000701C5510701C9230701C8C7C4F707011F
:100D6800C9C7C5F707010701C66B0701C76B0701AC
:100D780007EEC6F0EE5007010701C427ED50070142
:100D88000701C52307010701C41D07010701BC6F3F
:100D980007010701C51D0701BD6F00D012004CC730
:100DA80050F74DC751F7070150C7F6FF070151C764
:100DB800F7FF000EF86E08000701F5CF4FF707019F
:100DC8000701504B512B070107014F51D8B401D0EF
:100DD80001D020D0070107014F512E0AD8B401D005
:100DE80001D018D0070107014F512F0AD8B401D0FC
:100DF80001D010D0070107014F512C0AD8B401D0F7
:100E080001D008D0070107014F513E0AD8A401D0EC
:100E180001D0C9D7070107014C5107010701505DEF
:100E28000701526F07015205070107014E6F4EC7B0
:100E380053F763EC1FF0070107014EC755F7070189
:100E48000701566B4CC753F74DC754F7A8EC17F07A
:100E5800010E070107015327000E0701542307015C
:100E680007015351070107014C2707010701545196
:100E7800070107014D23070107014F51D8B401D0DD
:100E880001D018D0070107014F512F0AD8B401D05B
:100E980001D010D0070107014F512C0AD8B401D056
:100EA80001D008D0070107014F513E0AD8A401D04C
:100EB80001D001D001D077D70701526F000E07018A
:100EC8000701536F0701525163EC1FF0120007012D
:100ED8001B6F000E07010701186F07011B5107015F
:100EE800070116AF01D001D00FD007010701156D1A
:100EF8000701161FD8B0162B07011B6F010E07013B
:100F08000701186F07011B510701070114AF01D032
:100F180001D00BD007010701136D0701141FD8B0CA
:100F2800142B010E07010701181B000E070107010A
:100F3800196F000E07011A6F0701070116511511E5
:100F4800D8B401D001D047D007011B6F010E0701AB
:100F58000701176F07011B5109D00701D890070136
:100F680015370701163707010701172B0701070176
:100F780016AF01D001D0F1D70701D8900701193772
:100F880007011A3707010701155107010701135D0A
:100F9800070107011651070107011459D8A001D00C
:100FA80001D00FD007010701155107010701135F91
:100FB80007010701165107010701145B0701070123
:100FC80019810701D8900701163307011533070166
:100FD8000701172FD1D7070107011851D8B401D03D
:100FE80001D007D007010701196D07011A1FD8B0F2
:100FF8001A2B19C713F71AC714F700D01200246662
:1010080001D001D017D0030E07010701156501D0E3
:1010180001D007D00C0E07010701156501D001D0DA
:1010280002D0FE0E81D00701166F010E246E070153
:10103800165178D02404D8A401D001D026D00B0EA4
:1010480007010701156501D001D007D0160E070169
:101058000701156501D001D008D00701166F000EF1
:10106800246E07011651FE0E5FD00090070107019C
:1010780014A101D000800701166F020E246E07012B
:101088001651000E00B0010E4FD02450020AD8A409
:1010980001D001D047D0070107011451D8B401D0BD
:1010A80001D015D0030E07010701156501D001D045
:1010B8000ED00D0E07010701156101D001D007D030
:1010C8000701166F000E246E0701165129D00B0E6A
:1010D80007010701156501D001D00ED0170E0701D1
:1010E8000701156101D001D007D00701166F010E65
:1010F800246E0701165114D0030E07010701156568
:1011080001D001D00DD00D0E07010701156101D0E6
:1011180001D006D00701166F000E246E0701165184
:10112800FF0E02D0FF0E00D012004CC750F74DC77B
:1011380051F750C7E9FF51C7EAFFEF500701070110
:101148004F6F07010701504B512B070107014F5102
:10115800D8B401D001D020D0070107014F512E0A81
:10116800D8B401D001D018D0070107014F512F0A78
:10117800D8B401D001D010D0070107014F512C0A73
:10118800D8B401D001D008D0070107014F513E0A59
:10119800D8A401D001D0CDD7070107014C510701D0
:1011A8000701505D0701526F07015205070107014A
:1011B8004E6F4EC753F763EC1FF0070107014EC788
:1011C80055F707010701566B4CC753F74DC754F73E
:1011D800EBEC17F0010E070107015327000E07017A
:1011E8005423070107015351070107014C27070141
:1011F80007015451070107014D23070107014F510A
:10120800D8B401D001D018D0070107014F512F0AD7
:10121800D8B401D001D010D0070107014F512C0AD2
:10122800D8B401D001D008D0070107014F513E0AB8
:10123800D8A401D001D001D001D07BD70701526FCB
:10124800000E07010701536F0701525163EC1FF0AD
:101258001200010E07010701566F000E0701576FB4
:1012680007010701626907010701636907010701AF
:1012780064690701070165690701070166690701D4
:10128800070167694CC74EF74DC74FF74CC7E9FFD1
:101298004DC7EAFFEECF6CF7EECF6DF7EECF6EF7E6
:1012A800EECF6FF7060106013C5107016C190701E3
:1012B800706F060106013D5107016D190701716F35
:1012C800060106013E5107016E190701726F0601FA
:1012D80006013F5107016F190701736F06010601E7
:1012E8004051070170150701746F0601060141514D
:1012F800070171150701756F0601060142510701C3
:1013080072150701766F060106014351070173152F
:101318000701776F07017751741175117611D8B4E9
:1013280001D001D009D00601440E070107014E6F14
:101338000601060E07014F6F4EC7E9FF4FC7EAFFC8
:101348000701EECF68F70701EECF69F70701EECF87
:101358006AF70701EECF6BF70701500E0701070187
:10136800786F0701070E0701796F55EC02F012003C
:1013780023500E0D0101590EF324070107014E6F8A
:1013880007014F6B0101010E07014F23080E1324BB
:10139800070107014C6F000E142007014D6F0C0E5A
:1013A800070107014E25E96E000E070107014F21CD
:1013B800EA6E0701EECFBEF70701EDCFBFF7B8EC35
:1013C80021F0BEC750F7BFC751F70A0E0701070142
:1013D8004E25E96E000E070107014F21EA6E07014D
:1013E800EECFBEF70701EDCFBFF7B8EC21F0BEC7CF
:1013F80052F7BFC753F74CC7BEF74DC7BFF7B8EC96
:1014080021F0BEC754F7BFC755F7000E0701070103
:10141800566F000E0701576FDD0E07010701AE6F0B
:101428000A0E0701AF6F86EC22F04CC7A5F74DC72F
:10143800A6F70701586F110E07010701A46F0701EE
:1014480058514EC7A2F74FC7A3F74BEC00F0080E50
:1014580007010701C46F000E0701C56F0701500E91
:1014680007010701C26F0701070E0701C36FB8EC38
:101478001FF080EC1FF0000E136E000E146E0601B4
:101488000601E069120041C760F784EC0EF0F5C36D
:1014980043F7070107014351070AD8B401D001D027
:1014A80010D00701070143510B0AD8B401D001D06D
:1014B80008D0000E07010701416F000E0701426FB7
:1014C80068D0030103EEE7F0030113EEE5F0E652FE
:1014D800EE52ED50E55C02E1EF50E75CD8A001D098
:1014E80001D03AD0030103EEE5F0EECF44F7EDCF9B
:1014F80045F703010301E7510701445F03010301B5
:10150800E8510701455B030103EEE1F0EECF46F732
:10151800EDCF47F703010301DF510701465F0301E0
:101528000301E0510701475BFF0E0701462507014C
:10153800486FFF0E070147210701496F0701445112
:101548000701485D07010701416F07014551070180
:1015580049590701426F1DD0030103EEE7F0EECFB2
:1015680044F7EDCF45F703010301E5510701445F57
:1015780003010301E6510701455BFF0E07014425FE
:1015880007010701416FFF0E070145210701426F5F
:1015980000D012007BD046C7B2F747C7B3F744C79D
:1015A800B0F745C7B1F741C7AEF742C7AFF718EC78
:1015B8001AF075D0070107014129D8B44229D8B4D7
:1015C80001D001D006D041C7AEF742C7AFF786ECCD
:1015D80022F0100E07010701486F000E0701496F3E
:1015E8004CD007010701485107010701465D070173
:1015F80007014951070107014759D8B001D001D067
:1016080004D046C748F747C749F748C7B2F749C79C
:10161800B3F744C7B0F745C7B1F707014A0E07014A
:101628000701AE6F0701070E0701AF6F18EC1AF03C
:1016380048C7C4F749C7C5F707014A0E070107019C
:10164800C26F0701070E0701C36FB8EC1FF007014F
:1016580007014851070107014427000E0701070148
:10166800452307010701485107010701465F0701A4
:101678000701495107010701475B07010701475166
:101688004611D8A401D001D0ACD709D00701070171
:101698004351000A8FE0010A01E17DD700D0120012
:1016A8002FC7E9FF30C7EAFF010EEE6E230EEE6E7C
:1016B800450EEE6E670EED6EED52ED52040E07010B
:1016C80007012F25E96E000E070107013021EA6E98
:1016D800890EEE6EAB0EEE6ECD0EEE6EEF0EED6E6B
:1016E800ED52ED52080E070107012F25E96E000E95
:1016F800070107013021EA6EFE0EEE6EDC0EEE6E7B
:10170800BA0EEE6E980EED6EED52ED520C0E07010C
:1017180007012F25E96E000E070107013021EA6E47
:10172800760EEE6E540EEE6E320EEE6E100EED6EFE
:10173800ED52ED52100E070107012F25E96E000E3C
:10174800070107013021EA6EF00EEE6EE10EEE6E33
:10175800D20EEE6EC30EED6EED52ED52140E070171
:1017680007012F25E96E000E070107013021EA6EF7
:10177800000EEE6E000EEE6E000EEE6E000EED6EBA
:10178800ED52ED52580E070107012F25E96E000EA4
:10179800070107013021EA6E010EEF6E1200D9CE63
:1017A800A6F7EECEA4F7EFCEA5F707010701A651DD
:1017B8000E010E01D96301D001D0F1D7ECCEA6F706
:1017C800EDCEA7F707010701A45107010701A65DA0
:1017D80007010701A55107010701A759D8B001D092
:1017E80001D01ED00701A4C7A8F70701A5C7A9F70C
:1017F80007010701A6510701A85F07010701A751C3
:101808000701A95B0701A851CD0807010701A26FCD
:101818000701A951D8A0E82A0A080701A36F35D003
:1018280007010701A75107010701A51906E10701EB
:101838000701A65107010701A419D8A401D001D0B6
:1018480008D0CD0E07010701A26F0A0E0701A36F8A
:101858001CD00701A6C7A8F70701A7C7A9F7070162
:101868000701A4510701A85F07010701A551070156
:10187800A95BFF0E0701A82507010701A26FFF0E4C
:101888000701A9210701A36F00D012006DD029D04C
:10189800ACC7B2F7ADC7B3F7A9C7B0F7AAC7B1F7D6
:1018A800A6C7AEF7A7C7AFF718EC1AF022D0070102
:1018B8000701A629D8B4A729D8B401D001D006D0E9
:1018C800A6C7AEF7A7C7AFF786EC22F0ACC7C4F738
:1018D800ADC7C5F7A9C7C2F7AAC7C3F7B8EC1FF0C9
:1018E80008D007010701A851000AE1E0010AD0E089
:1018F80000D042D031D007010701A929D8B4AA29BC
:10190800D8B401D001D006D0A9C7AEF7AAC7AFF79F
:1019180090EC22F0ACC7C6F7ADC7C7F7A6C7C4F7A7
:10192800A7C7C5F7A4EC19F0E4D7ACC7B2F7ADC7A1
:10193800B3F7A9C7B0F7AAC7B1F7A6C7AEF7A7C745
:10194800AFF7F8ECD1F000D07CEC22F00009D8B465
:1019580001D001D0F9D7CDD707010701A851000A56
:10196800E4E0010AC8E0C5D707010701AB51000A46
:10197800C1E0010A8CE000D012000DC713F77FEC1C
:1019880010F013C710F714C711F707010701115119
:101998001011D8A401D001D002D0000E63D00DC719
:1019A80060F784EC0EF0070107010F510E11D8B44F
:1019B80001D001D01BD0010E07010701AC6F000E4A
:1019C8000701AD6FFAC3ABF7EBC3A9F7ECC3AAF7EE
:1019D8000701126F010E07010701A86F07011251D5
:1019E8000EC7A6F70FC7A7F74AEC0CF0030103EEE2
:1019F800EBF0EE2A000EED22030113EEE3F0E652BF
:101A0800EE52ED50E55C02E1EF50E75CD8B001D052
:101A180001D004D0E1C3EBF3E2C3ECF30701070103
:101A280010051111D8A401D001D003D00301F78506
:101A380017D003010301F6BB01D001D011D0030177
:101A4800F68B55EC20F01F0E0701070170250301E6
:101A58000301F16F000E0701070171210301F26F05
:101A6800010E00D0120001D000D007010701345147
:101A78000701376F0701070135510701386F070163
:101A8800344B352B37C7F6FF38C7F7FF000EF86E13
:101A98000E0EF76403D00800F55005D0F6CFE9FF25
:101AA800F7CFEAFFEF500701396F070132C7F6FF9A
:101AB800070133C7F7FF000EF86E0E0EF76403D068
:101AC8000800F55005D0F6CFE9FFF7CFEAFFEF5051
:101AD80007013A6F0701395107013A5D070107010C
:101AE800366F0701366701D001D023D007010701FF
:101AF80032510701376F0701070133510701386F6A
:101B08000701324B332B37C7F6FF38C7F7FF000EF4
:101B1800F86E0E0EF76403D00800F55005D0F6CF26
:101B2800E9FFF7CFEAFFEF500009D8A401D001D0B0
:101B38009BD707010701365107010701326F0701DB
:101B4800336B070132BF330700D01200000E0701C4
:101B580007013A6F000E07013B6F000E07013C6F4B
:101B6800000E07013D6F3FEC21F00009D8A401D019
:101B780001D00ED0000E07010701326F000E0701D9
:101B8800336F000E0701346F000E0701356F4AD01E
:101B9800252A3AD00401000E2524E96EEA6A0401D8
:101BA800040EEA22EF5007013E6F07013E5107017C
:101BB8000701366F0701376B0701386B0701396B6F
:101BC800252A07013651730A371138113911D8A45B
:101BD80001D001D001D01DD00701040ED890070113
:101BE8003A3707013B3707013C3707013D37E82EF5
:101BF800F5D736C73FF7FDEC12F007013E6F070136
:101C08003E51070107013A13C70E256401D001D0E0
:101C1800C1D73AC732F73BC733F73CC734F73DC79C
:101C280035F700D0120077ECE7F0D8C4F8F3D9C440
:101C3800F9F3DFC3E5F3E0C3E6F3DFC3E7F3E0C39B
:101C4800E8F3E1C3E9F3E2C3EAF3E1C3EBF3E2C388
:101C5800ECF30701716F0D0E07010701706F0701A3
:101C6800715103010301F6A701D001D008D0070183
:101C7800716F040E07010701706F0701715170C77A
:101C8800F5F30301F6910301F6930301F6950B00B2
:101C98000E000301F6990301F69B0301F69D03016B
:101CA800F69F0301F7910301F7930301F7950301E9
:101CB800F7970301F7890401EA910401EA93040103
:101CC800EA970401EA99DFC3D4F4E0C3D5F41FEC22
:101CD80015F072C7CCF473C7CDF41FEC15F072C7BA
:101CE800CEF473C7CFF404010401E8690401E9697B
:101CF800010E04010401DA6F000E0401DB6F12000B
:101D080007010701605106010601E46301D001D013
:101D180001D05CD006010601E451FE0AD8B401D016
:101D280001D022D01C0E07010701B26F000E070177
:101D3800B36F0301DF0E07010701B06F0301030E44
:101D48000701B16F06010601E4511C0D00016F0E79
:101D5800F32407010701AE6F0701AF6B0001000E06
:101D68000701AF2318EC1AF060C7E4F60701070172
:101D78006051FE0AD8A401D001D001D027D01C0E92
:101D880007010701B26F000E0701B36F07010701D2
:101D980060511C0D6F0E0701616F000E626FF350EA
:101DA80007016127E86AF3BEE8680701622361C793
:101DB800B0F762C7B1F70301DF0E07010701AE6F85
:101DC8000301030E0701AF6F18EC1AF0120021C0CF
:101DD80025F05CD00701316F040E07010701346F4D
:101DE8000701315107012D0E07010701326F070165
:101DF800070E0701336F99EC05F00009D8A401D04C
:101E080001D002D0000E49D007012D0E07010701AD
:101E1800346F0701070E0701356F2BC732F72CC740
:101E280033F737EC0DF0070133513211D8A401D044
:101E380001D002D0010E31D03FEC21F00009D8B416
:101E480001D001D003D0AAEC0DF011D00701316FF9
:101E5800000E07010701346F07013151000E070119
:101E68000701326F000E0701336F99EC05F004018A
:101E7800000E2524E96EEA6A0401040EEA22730EB4
:101E8800EF6201D001D002D0000E07D0C70E256442
:101E980001D001D09FD7000E00D01200020E07011A
:101EA8000701BC25E96E000E07010701BD21EA6E96
:101EB8000701EECFBEF70701EDCFBFF7B8EC21F071
:101EC800020E07010701BC25E96E000E0701070194
:101ED800BD21EA6E0701BEC7EEFF0701BFC7EDFFD0
:101EE800040E07010701BC25E96E000E0701070172
:101EF800BD21EA6E0701EECFBEF70701EDCFBFF7B0
:101F0800B8EC21F0040E07010701BC25E96E000EAC
:101F180007010701BD21EA6E0701BEC7EEFF0701F1
:101F2800BFC7EDFF0A0E07010701BC25E96E000EC9
:101F380007010701BD21EA6E0701EECFBEF70701D1
:101F4800EDCFBFF7B8EC21F00A0E07010701BC2559
:101F5800E96E000E07010701BD21EA6E0701BEC741
:101F6800EEFF0701BFC7EDFF12000094000E2A6EB6
:101F780000922BC7E9FF2CC7EAFFEF502B6EB18008
:101F880000D000A201D001D0FCD7010E0701070143
:101F98002D6F000E07012E6F2FD0070107012D515D
:101FA800070107012B25E96E070107012E510701DB
:101FB80007012C21EA6E010EEF6201D001D002D098
:101FC800008416D00092070107012D51070107016F
:101FD8002B25E96E070107012E51070107012C2166
:101FE800EA6EEF502B6E00D000A201D001D0FCD7D2
:101FF800070107012D4B2E2B070107012D51070162
:1020080007012B25E96E070107012E51070107017A
:102018002C21EA6EEF50D8A401D001D0BED700928F
:1020280000D000A201D001D0FCD7B190899812004D
:1020380000EE8BF017EE0DF0140EEECFE6FFE82E53
:10204800FCD719EC22F0A3C7B1F6A4C7B2F6A5C70E
:10205800B3F6A6C7B4F60701216F140E07010701EE
:10206800346F0701215107010D0E07010701326F77
:102078000701070E0701336F99EC05F00009D8A492
:1020880001D001D001D036D0DA0E07010701346F34
:10209800FF0E0701356F07010D0E07010701326FAB
:1020A8000701070E0701336F37EC0DF007013351B5
:1020B8003211D8A401D001D003D03FECD7F01AD008
:1020C800570E07010701346FFF0E0701356F07012F
:1020D8000D0E07010701326F0701070E0701336F65
:1020E80037EC0DF0070133513211D8A401D001D0DB
:1020F80001D0FF00120013C760F784EC0EF0030153
:1021080003EEEBF0030113EEE9F0E652EE52ED5068
:10211800E55C02E1EF50E75CD8A001D001D012D015
:1021280003010301EB5103010301E95D0701070105
:10213800136F03010301EC5103010301EA5907017D
:10214800146F3AD0030103EEE9F0EECF15F7EDCFA7
:1021580016F703010301E1510701155F03010301AC
:10216800E2510701165B030103EEE3F0EECF17F728
:10217800EDCF18F703010301EB510701175F0301C6
:102188000301EC510701185B0701155107011725D9
:102198000701196F070116510701182107011A6F66
:1021A800010E0701192507010701136F000E07012A
:1021B8001A210701146F00D012000701316F000EB9
:1021C80007010701306F070131512DC7E9FF2EC7FD
:1021D800EAFFEF5007010701346F2BC7E9FF2CC74F
:1021E800EAFF0701EECF32F70701EDCF33F709EC2D
:1021F8001DF0D8B001D002D0010E01D0000E0701A9
:1022080007012F6F07010701302B2DC734F72EC7A1
:1022180035F72BC732F72CC733F753EC1CF02DC713
:10222800E9FF2EC7EAFFEF5007010701346F2BC7FC
:10223800E9FF2CC7EAFF0701EECF32F70701EDCF20
:1022480033F709EC1DF0D8B001D002D0010E01D04F
:10225800000E070107012F19D8B401D001D004D00E
:102268000701070130510AD0070107013029D8A416
:1022780001D001D002D0000E01D0C4D71200010154
:10228800000E070107012F6F0101010E0701306FD2
:1022980054EC0BF00401000E070107013C6F040128
:1022A800040E07013D6F1FEC17F03CC733F73DC71D
:1022B80034F70401000E07010701316F0401040E11
:1022C8000701326F0101000E070107012F6F01019D
:1022D800010E0701306F3AECDFF0200E070107010D
:1022E800336F000E0701346F8E0E07010701316F3F
:1022F800FE0E0701326F0101000E070107012F6F63
:102308000101010E0701306F68ECDEF000019F0E3D
:1023180007010701316F0001000E0701326F01014B
:10232800000E070107012F6F0101010E0701306F31
:1023380008ECB2F012007CC7E9FF7DC7EAFF07018D
:10234800EECFBEF70701EDCFBFF7B8EC21F07CC7A1
:10235800E9FF7DC7EAFF0701BEC7EEFF0701BFC758
:10236800EDFF020E070107017C25E96E000E07014B
:1023780007017D21EA6E0701EECFBEF70701EDCF19
:10238800BFF7B8EC21F0020E070107017C25E96EC2
:10239800000E070107017D21EA6E0701BEC7EEFFA7
:1023A8000701BFC7EDFF060E070107017C25E96E8F
:1023B800000E070107017D21EA6E0701EECFBEF787
:1023C8000701EDCFBFF7B8EC21F0060E07010701B2
:1023D8007C25E96E000E070107017D21EA6E0701E1
:1023E800BEC7EEFF0701BFC7EDFF120042D013C7FB
:1023F800E9FF14C7EAFFEF50D8B401D001D016D0D6
:10240800070115C7F6FF070116C7F7FF000EF86E9C
:102418000800F5CF19F713C7E9FF14C7EAFFEF5013
:1024280007011919D8B401D001D01BD013C7E9FF8F
:1024380014C7EAFFEF500701196F070115C7F6FF28
:10244800070116C7F7FF000EF86E0800F5500701E0
:10245800195D07010701136F0701146BD8A0140752
:102468001DD007010701134B142B07010701154B5A
:10247800162B070107011707D8A018070701172906
:10248800D8B41829D8A401D001D0B1D7000E0701BB
:102498000701136F000E0701146F00D01200070127
:1024A80007010C29D8B40D29D8A401D001D006D031
:1024B800070107010C6907010D6946D007010701EB
:1024C8000F51800A0701106F07010C51070107011E
:1024D8000E5D070107010D51800A07011059D8A0A8
:1024E80001D001D012D0070107010C5107010701E3
:1024F8000E5D070107010C6F070107010D51070168
:1025080007010F5907010D6F1FD0000E0701106F4B
:10251800020E116F070107010C510701105F070137
:1025280007010D510701115B070107010E51070152
:102538001025070107010C6F070107010F5107015B
:10254800112107010D6F00D01200CF0E0E010E01F0
:10255800E26F0A0E0E01E36F0701DC0E0701BF27C9
:102568000A0E0701C023BFC7E6FEC0C7E7FE060E76
:1025780007010701C46F000E0701C56FBCC7C2F78A
:10258800BDC7C3F7B8EC1FF0060E07010701C46FFB
:10259800000E0701C56F0601690E07010701C26F2A
:1025A8000601060E0701C36FB8EC1FF00701C16FE3
:1025B800080E07010701C26F0701C151BEEC22F0E6
:1025C8000701C16F060E07010701C26F0701C1515C
:1025D80007010701BE6701D001D008D00701C16F0C
:1025E800000E07010701C26F0701C151BEEC22F0BE
:1025F800120020D0000E50D0010E4ED0020E4CD04A
:10260800030E4AD0040E48D0050E46D0060E44D01C
:10261800070E42D0080E40D0090E3ED00A0E3CD01C
:102628000B0E3AD00C0E38D00D0E36D00E0E34D01C
:102638000F0E32D0070107013F51300ADBE0010AD3
:10264800DBE0030ADBE0010ADBE0070ADBE0010A62
:10265800DBE0030ADBE0010ADBE00F0ADBE0010A4A
:10266800DBE0780ADBE0030ADBE0010ADBE0070ACB
:10267800DBE0010ADBE0030ADBE0270ACFE0030A1C
:10268800CFE0010ACFE0070ACFE0010ACFE0030A52
:10269800CFE000D0000E00D01200000E07010701A5
:1026A8007C6F000E07017D6F000E07017E6F000E24
:1026B80007017F6F0701070174A101D001D018D06D
:1026C800070107017851070107017C270701070166
:1026D8007951070107017D23070107017A51070195
:1026E80007017E23070107017B51070107017F23AB
:1026F8000701D890070178370701793707017A373A
:1027080007017B370701D890070177330701763334
:102718000701753307017433070177517411751177
:102728007611D8A401D001D0C5D77CC774F77DC76E
:1027380075F77EC776F77FC777F700D012000301D9
:102748000301FB510F5C03010301FC511058D8B081
:1027580001D001D008D006010601E3512318D8B4EE
:1027680001D001D001D038D00F5003010301FB5D27
:1027780007010701516F105003010301FC590701BC
:10278800526F070107014F5107010701515D07010A
:1027980007015051070107015259D8B001D001D0A3
:1027A80004D051C74FF752C750F74FC7C6F750C7A5
:1027B800C7F74DC7C4F74EC7C5F7A4EC19F0C4C78F
:1027C8004FF7C5C750F7070107014F510F260701FB
:1027D80007015051102200D0120033C73CF734C70C
:1027E8003DF71FEC17F0070107013C5107010701EE
:1027F8003C6F59EC1DF007010701366F33C73CF7F2
:1028080034C73DF71FEC17F0070107013C510701DA
:102818000701486F31EC1DF007010701356F07010B
:1028280007013651300AD8B401D001D004D036C7D8
:1028380048F7D0EC1DF035C748F7D0EC1DF007017C
:10284800376F3A0E07010701486F07013751D0EC7F
:102858001DF033C73EF734C73FF70401000E0701E8
:1028680007013C6F0401040E07013D6F65EC17F08A
:10287800120037C73CF738C73DF71FEC17F00701C0
:1028880007013C51070107013C6F59EC1DF0070196
:1028980007013A6F37C73CF738C73DF71FEC17F009
:1028A800070107013C5107010701486F31EC1DF092
:1028B80007010701396F070107013A51300AD8B4F7
:1028C80001D001D004D03AC748F7D0EC1DF039C781
:1028D80048F7D0EC1DF007013B6F3A0E07010701DE
:1028E800486F07013B51D0EC1DF037C73EF738C79A
:1028F8003FF70401000E070107013C6F0401040EB5
:1029080007013D6F65EC17F0120026C72DF727C7A2
:102918002EF724C72BF725C72CF7E1EC10F0070199
:102928000701296F130E07010701296501D001D09E
:1029380009D0290E07010701296101D001D002D071
:10294800000E2DD026C72DF727C72EF724C72BF743
:1029580025C72CF7E1EC10F007010701286F010EDD
:1029680007010701296501D001D017D0150E07010D
:102978000701296101D001D010D0010E070107011C
:10298800286501D001D009D0150E0701070128617B
:1029980001D001D002D0010E02D0020E00D01200E8
:1029A800D8901A3607010701F051D8B401D001D0E8
:1029B80011D01B2A1B50030AD8A401D001D003D080
:1029C800070E1A1206D0030E1B6401D001D001D0E5
:1029D8001A8006D00701F16F000E1B6E0701F15136
:1029E800D8901F36192A1AAE01D001D002D01F8004
:1029F80000D01950080AD8A401D001D01BD0070173
:102A0800F16F000E196E0701F151DF0E1724E96E00
:102A1800010E1820EA6E1FC0EFFF174A182A185037
:102A2800020A1710D8A401D001D004D0000E176EE6
:102A3800000E186E1200296601D001D009D0010ECF
:102A480007010701746F000E0701756F7DEC20F018
:102A58006D0E07010701786F4E0E0701796FC60EDC
:102A680007017A6F410E07017B6FA1C674F7A2C6F2
:102A780075F7A3C676F7A4C677F751EC13F0390EAD
:102A880007010701742506010601A16F300E070131
:102A9800070175210601A26F000E070107017621C3
:102AA8000601A36F000E0701070177210601A46F35
:102AB800FF0E0601A31507010701726F7F0E0601BD
:102AC800A4150701736F00D01200366601D001D03B
:102AD80023D007011F6F010E366E07011F51070132
:102AE8001F6F000E070107011E6F07011F51000E1F
:102AF800070107011E6501D001D001D00DD00501E5
:102B08000501C869070107011E2B000E070107010F
:102B18001E6501D001D0F3D705010501C829D8B435
:102B280001D001D007D0C8C54CF787EC1AF00501D1
:102B38000501C86907011F6F010E05010501C96F6D
:102B480007011F5107011F6F000E05010501CA6F1C
:102B580007011F510501CA890501CA83120011C75F
:102B680015F710C714F703EC08F007010701126FF7
:102B7800070107011251FE0AD8A401D001D008D0DC
:102B8800FE0E07010701106FFF0E0701116F30D00D
:102B9800070107011229D8A401D001D006D00701E6
:102BA800070110690701116923D0D8900232070183
:102BB80007011251D8B401D001D001D0028E202AC9
:102BC800080E206001D001D006D007010701106966
:102BD800070111690DD00701136F000E206E070160
:102BE8001351070102C010F707010701116B00D04C
:102BF800120099C7A5F69AC7A6F69BC7A7F69CC761
:102C0800A8F69DC79FF7080E070107019F6101D02D
:102C180001D001D015D0A8C69EF7A7C6A8F6A6C6AB
:102C2800A7F6A5C6A6F69EC7A5F6080E07010701D2
:102C38009F5F080E070107019F6101D001D0EBD704
:102C4800070107019F6701D001D001D011D006010B
:102C5800D890A8BFD880A537A637A737A8370701C7
:102C680007019F07070107019F6701D001D0EFD730
:102C7800A5C699F7A6C69AF7A7C69BF7A8C69CF754
:102C880000D012000301FDC345F70301FEC346F758
:102C9800070107013D5107014527070107013E517B
:102CA80007014623140E0701452507010701436F55
:102CB800000E070146210701446FCE0E07010701E8
:102CC800435D0A0E07014459D8A001D001D007D0AE
:102CD8000701CE0E0701435F0A0E0701445BE0CEF1
:102CE80041F7E1CE42F743C7E0FE44C7E1FE3FC7E4
:102CF800A2F740C7A3F7D3ECE0F0A2C743F7A3C7F6
:102D080044F741C7E0FE42C7E1FE43C73DF744C769
:102D18003EF700D01200FACFCEF7FBCFCFF7E9CFBE
:102D2800D0F7EACFD1F7E1CFD2F7E2CFD3F7D9CFB7
:102D3800D4F7DACFD5F7F3CFD6F7F4CFD7F7F6CF66
:102D4800D8F7F7CFD9F7F8CFDAF7F2A401D001D046
:102D580002D007EC21F09EA201D001D003D0E8EC0C
:102D6800E3F09E92DAC7F8FFD9C7F7FFD8C7F6FF96
:102D7800D7C7F4FFD6C7F3FFD5C7DAFFD4C7D9FF43
:102D8800D3C7E2FFD2C7E1FFD1C7EAFFD0C7E9FF47
:102D9800CFC7FBFFCEC7FAFFCDC7E0FFCCC7E8FF20
:102DA800CBC7D8FF1000EACFE6F7E1CFE7F7E2CFCD
:102DB800E8F7D9CFE9F7DACFEAF7F3CFEBF7F4CFB3
:102DC800ECF7F6CFEDF7F7CFEEF7F8CFEFF7A4A6CD
:102DD80001D001D00BD0E20E786E000E81B8010E42
:102DE80007010701F06FD4EC14F0A496A1A201D05A
:102DF80001D006D0B368C40EB26E01EC20F0A192E7
:102E0800EFC7F8FFEEC7F7FFEDC7F6FFECC7F4FF13
:102E1800EBC7F3FFEAC7DAFFE9C7D9FFE8C7E2FF64
:102E2800E7C7E1FFE6C7EAFFE5C7E9FFE4C7FBFF3D
:102E3800E3C7FAFF11003CC73EF73DC73FF701D093
:102E480000D0070107013E510701406F0701070144
:102E58003F510701416F07013E4B3F2B40C7F6FF2B
:102E680041C7F7FF000EF86E0E0EF76403D0080096
:102E7800F55005D0F6CFE9FFF7CFEAFFEF5000098C
:102E8800D8A401D001D0DCD707013EC740F707011D
:102E98003FC741F7070107013C510701405F0701A0
:102EA80007013D510701415BFF0E0701402507015E
:102EB80007013C6FFF0E0701412107013D6F00D05C
:102EC80012003CC740F73DC741F704D0070107018E
:102ED800404B412B40C7E9FF41C7EAFFEF50D8A458
:102EE80001D001D0F3D700D0070107013E510701F7
:102EF800426F070107013F510701436F07013E4B2E
:102F08003F2B42C7F6FF43C7F7FF000EF86E0701D5
:102F180040C7E1FF070141C7E2FF07010701404B36
:102F2800412B0E0EF76403D00800F55005D0F6CFFC
:102F3800E9FFF7CFEAFFEF50E76EE750D8A401D0DA
:102F480001D0D1D700D012001150C00807010701E5
:102F5800576F1250D8A0E82A05080701586F0701D3
:102F68000701555107010701575D07010701565130
:102F7800070107015859D8B001D001D004D057C76C
:102F880055F758C756F7070107015551112607018C
:102F98000701565112221150135C12501458D8B020
:102FA80001D001D004D011C013F012C014F055C7DD
:102FB8005BF756C75CF753C759F754C75AF7C8ECBD
:102FC8001EF055C753F756C754F700D012001150DA
:102FD800C00807010701576F1250D8A0E82A050852
:102FE8000701586F07010701555107010701575D90
:102FF800070107015651070107015859D8B001D0F8
:1030080001D004D057C755F758C756F7070107012D
:103018005551112607010701565112221150135C10
:1030280012501458D8B001D001D004D011C013F0F8
:1030380012C014F055C7C4F756C7C5F753C7C2F72F
:1030480054C7C3F7B8EC1FF055C753F756C754F722
:1030580000D0120007014C0E070107014D6F070150
:10306800070E07014E6F86EC1EF00009D8A401D0A8
:1030780001D001D02DD0070107014C51C00BC00A67
:10308800D8A401D001D00CD007014C0E07010701CC
:103098004D6F0701070E07014E6F86EC1EF018D022
:1030A800070107014C6701D001D001D011D00701F9
:1030B80007014CC74FF707010701506B000E0701C6
:1030C80007014D6F000E07014E6FA3EC13F0C2D736
:1030D80012000F0E070107011E6501D001D017D09D
:1030E8000A0E070107011F6101D001D010D00F0E91
:1030F80007010701206501D001D009D00A0E070198
:103108000701216101D001D002D0000E20D00A0EA3
:10311800070107011E6101D001D017D00F0E07016A
:1031280007011F6501D001D010D00F0E070107015C
:10313800206501D001D009D00A0E070107012161DD
:1031480001D001D002D0010E02D0020E00D0120030
:103158000F0E070107011E6501D001D017D00A0E16
:10316800070107011F6101D001D010D00A0E070125
:103178000701206101D001D009D00A0E070107011B
:10318800216101D001D002D0000E20D00A0E070123
:1031980007011E6101D001D017D00A0E07010701EF
:1031A8001F6101D001D010D00F0E07010701206563
:1031B80001D001D009D00A0E07010701216101D011
:1031C80001D002D0010E02D0020E00D012000D0E66
:1031D800070107011E6101D001D017D00D0E0701AC
:1031E80007011F6101D001D010D00D0E07010701A2
:1031F800206101D001D009D0100E07010701216517
:1032080001D001D002D0010E20D00D0E0701070118
:103218001E6101D001D017D0100E070107011F65EC
:1032280001D001D010D00D0E07010701206101D097
:1032380001D009D00D0E07010701216101D001D08D
:1032480002D0000E02D0020E00D012001EC72DF7C9
:103258001FC72EF71CC72BF71DC72CF7E1EC10F082
:1032680007010701206F1EC72DF71FC72EF71CC7C0
:103278002BF71DC72CF7E1EC10F007010701216FB0
:103288000D0E07010701206501D001D009D00D0EF0
:1032980007010701216501D001D002D0000E12D02C
:1032A8000A0E07010701206101D001D009D00D0ED7
:1032B80007010701216501D001D002D0010E02D01B
:1032C800020E00D0120043EC11F00701146F000E3B
:1032D80007010701136F07011451130E07010701B6
:1032E800136501D001D001D028D0380E070107019D
:1032F8001325E96EEA6A000EEA22EF500701146FFF
:1033080000019F0E070107011325E96EEA6A000113
:10331800000EEA22EF5007011419D8B401D001D0E9
:1033280002D0000E0CD007010701132B130E070162
:103338000701136501D001D0D8D7010E00D01200C3
:10334800C6C7C9F7C7C7CAF707010701C551C411DE
:10335800D8B401D001D01AD00BD0C4C7E9FFC5C773
:10336800EAFF0E01FACEEFFF07010701C44BC52B98
:1033780007010701C907D8A0CA070701C929D8B496
:10338800CA29D8A401D001D0E8D710D002D0FACEEB
:10339800C8F707010701C907D8A0CA070701C92943
:1033A800D8B4CA29D8A401D001D0F1D7C6C7C4F768
:1033B800C7C7C5F700D0120007010E6F000E07013E
:1033C80007010D6F07010E511BD00DC711F707013B
:1033D8000E6FA00E07010701106F07010E5168EC70
:1033E800E2F007010701105109C7E9FF0AC7EAFF20
:1033F800EF6E07010701094B0A2B070107010D2B87
:1034080007010DC70EF707010F6B070107010B51E5
:1034180007010E5D070107010C5107010F59D8A0DC
:1034280001D001D0D2D71200B0C7B6F7B1C7B7F7ED
:10343800AEC7B4F7AFC7B5F720D00701B6C7F6FFD8
:103448000701B7C7F7FF000EF86EB4C7E1FFB5C7AD
:10345800E2FF0E0EF76403D00800F55005D0F6CF52
:10346800E9FFF7CFEAFFEF50E76E07010701B64B18
:10347800B72B07010701B44BB52B07010701B207AA
:10348800D8A0B3070701B229D8B4B329D8A401D06A
:1034980001D0D3D700D012001CEC1EF00009D8A42C
:1034A80001D001D008D0000E070107014C6F000EB3
:1034B80007014D6F27D006010601E05107010701FA
:1034C8004C19D8B401D001D00FD04CC7E0F6000E8B
:1034D800136E000E146E000E070107014E6F000EEA
:1034E80007014F6F91EC20F04CC723F01350C00830
:1034F800070107014C6F1450D8A0E82A05080701F6
:103508004D6F00D01200040E070107014C6501D071
:1035180001D001D02CD0070107014C510E0DF3CF7B
:103528004DF70C0E07014D270101590E07014D25D6
:10353800E96EEA6A0101010EEA22000EEE6E000E43
:10354800ED6E070107014C510E0D0101590EF324D0
:10355800E96EEA6A0101010EEA22000EEE6E000E23
:10356800EE6E000EEE6E000EED6EED52ED52120094
:103578000001B30E07010701336F0001000E0701B8
:10358800346F2DC731F72EC732F706ECC1F00009AA
:10359800D8B401D001D00AD037820701306F070EA6
:1035A80006010601E56F0701305116D0000E04012F
:1035B8000401EF6F000E0401F06F2DC7F1F42EC760
:1035C800F2F40701306F000E06010601E56F0701EE
:1035D80030512FC733F0379212000001B30E0701A4
:1035E8000701336F0001000E0701346F2DC731F753
:1035F8002EC732F789ECC2F00009D8B401D001D047
:103608000AD037820701306F070E06010601E56F01
:103618000701305116D02DC7EFF42EC7F0F4000E75
:1036280004010401F16F000E0401F26F0701306F0D
:10363800000E06010601E56F070130512FC733F070
:10364800379212003450D8B401D001D001D02DD017
:1036580007014E6F010E346E07014E51FF0E000137
:103668000001FB25070107014C6FFF0E0001000157
:10367800FC2107014D6FCE0E070107014C5D0A0EB4
:1036880007014D59D8A001D001D007D0CD0E0701B0
:1036980007014C6F0A0E07014D6F0E01FE8D4CC7D6
:1036A800ECFE4DC7EDFE0E01FC9D1200000E070159
:1036B8000701646F000E0701656F0701070160A12C
:1036C80001D001D00CD007010701625107010701A1
:1036D80064270701070163510701070165230701F3
:1036E800D89007016237070163370701D8900701AF
:1036F8006133070160330701070161516011D8A4E4
:1037080001D001D0DAD764C760F765C761F700D088
:1037180012000701086F000E276E07010851060105
:10372800688F7AECC5F016C774F717C775F77DEC84
:1037380020F0BCECDCF0A8EC1EF0E8EC1EF045EC48
:10374800C8F00701086F000E070107011D6F070188
:10375800085169EC15F00601060168BD01D001D0D9
:103768000AD00701086F000E07010701096F07015A
:103778000851EAEC1FF012000301FDC37DF70301B5
:10378800FEC37EF707010701795107017D2707016D
:1037980007017A5107017E23140E07017D250701D1
:1037A80007017B6F000E07017E2107017C6FCE0E9B
:1037B800070107017B5D0A0E07017C59D8A001D0DB
:1037C80001D007D00701CE0E07017B5F0A0E070163
:1037D8007C5B7BC7E0FE7CC7E1FE12004CC723F090
:1037E80006010601E351070107014C19D8B401D0BD
:1037F80001D008D0000E070107014C6F000E070129
:103808004D6F1CD01EA001D001D00AD01E90000E12
:10381800070107014E6F000E07014F6F69EC20F09A
:103828000F5003010301FB5D070107014C6F1050A6
:1038380003010301FC5907014D6F00D01200320E3D
:10384800070107015A6F000E07015B6F000E0701A1
:103858000701586F000E0701596F06016F0E070127
:103868000701566F0601060E0701576F08EC1FF097
:10387800000E0D6E000E0E6E07010D6F000E226E0B
:1038880007010D5107010D6F000E076E07010D515D
:1038980007010D6F000E266E07010D51120034C787
:1038A800E9FF35C7EAFFD890EF3634C7E9FF35C7D7
:1038B800EAFFEF50D8A401D001D01FD034C7E9FFE8
:1038C80035C7EAFF010EEF6E32C7E9FF33C7EAFFDB
:1038D800EE50ED10D8A401D001D008D032C7E9FFCE
:1038E80033C7EAFF000EEE6E020EED6E32C7E9FF37
:1038F80033C7EAFFEE06000EED5A120015C7C9FFDE
:10390800C6AE01D001D002D0FF0E25D000D0C7B07E
:1039180001D001D0FCD700D0C5CF16F71F0E070184
:10392800161716C717F70701186B000EC7B4010E54
:1039380007011713000E1813070118511711D8A4FF
:1039480001D001D0E9D7C5AC01D001D002D0FE0E1C
:1039580002D0000E00D0120007010701A75107018D
:103968000701A41B07010701A45107010701A71BB1
:1039780007010701A75107010701A41B0701070158
:10398800A65107010701A51B07010701A55107015A
:103998000701A61B07010701A65107010701A51B7F
:1039A800A4C7A4F7A5C7A5F7A6C7A6F7A7C7A7F7EB
:1039B80000D0120041C760F784EC0EF077ECE7F016
:1039C800040104EED4F0030113EEE5F0E652EE52E2
:1039D800ED50E518EFCFE8FFD8B4E718D8B401D018
:1039E80001D012D00701426F010E07010701716F64
:1039F800070142510701436F100E07010701706F5D
:103A080007014351B4EC9BF01200DF0E07010701D8
:103A18003225E96E010E070107013321EA6EEF50E6
:103A280007010701356F070107013551070134C741
:103A380036F70701376B36BF370707013617000E11
:103A48003717070137513611D8B401D001D002D049
:103A5800D88002D0D89000D012000F0E07010701BD
:103A68004817300E07010701482507010701496F6C
:103A780007014A6B000E07014A23090E07010701D7
:103A8800486501D001D00CD0370E07010701482541
:103A980007010701496F07014A6B000E07014A2316
:103AA80007010701495100D0120007013C3B0F0EE6
:103AB8003C17300E070107013C25070107013D6F40
:103AC80007013E6B000E07013E23090E070107019F
:103AD8003C6501D001D00CD0370E070107013C2509
:103AE800070107013D6F07013E6B000E07013E23EA
:103AF800070107013D5100D01200070107014D5190
:103B08004BC7E9FF4CC7EAFFEF6201D001D005D0EF
:103B18004BC74BF74CC74CF717D007014BC7E9FF0A
:103B280007014CC7EAFF070107014B4B4C2BEF502D
:103B3800D8A401D001D0E1D7000E070107014B6FCF
:103B4800000E07014C6F00D0120023C7B4FE00F02E
:103B58000701276F010E0E010E01B26F07012751F1
:103B680000F000D00E010E018AB101D001D0FAD7C1
:103B78000701276F000E0E010E01B26F07012751D2
:103B880000F0B8CE25F700F0B9CE26F725C723F701
:103B980026C724F700D01200000E070107014D6F59
:103BA800000E07014E6F0401000E070107014B6F5D
:103BB8000401040E07014C6F81EC1DF04BC749F757
:103BC8004CC74AF7070107014A514911D8B401D037
:103BD80001D007D049C7E9FF4AC7EAFF070148C72C
:103BE800EFFF1200C80E070107015A6F000E070108
:103BF8005B6F000E07010701586F000E0701596F30
:103C08000401000E07010701566F0401040E0701A5
:103C1800576F08EC1FF007012F6F000E256E070184
:103C28002F5107012F6F000E0C6E07012F51120044
:103C38000E010E01DFB701D001D002D0010E1BD05A
:103C480019EC22F01C5007010701A35F1D50070162
:103C58000701A45B7A0E07010701A35D000E0701A7
:103C6800A459D8A001D001D004D00E01DF9780EC70
:103C78001FF0000E00D012009E92CB68CA82CA9C28
:103C8800CA8ACA88CA869F929D82CA84000EBD6E5F
:103C9800000EBA6EBA86BA84BA9EBA9CBD86BD8436
:103CA800BD9EBD9CBD86BD84BA86BA84BD9ABD98AA
:103CB800BA9ABA98000EBE6E000EBB6E12000D0EB8
:103CC800070107012B6101D001D009D00D0E0701B2
:103CD80007012C6101D001D002D0000E12D0180EBD
:103CE800070107012B6501D001D009D00D0E07018E
:103CF80007012C6101D001D002D0010E02D0020EC2
:103D080000D0120003010301FB510F5C0301030102
:103D1800FC511058D8B001D001D008D006010601D6
:103D2800E3512318D8B401D001D002D0000E0BD033
:103D3800C3EC22F04DC7E9FF4EC7EAFFEF6E0F4A0A
:103D4800102A010E00D0120000010001E9690001EB
:103D58000001EA6900010001EB6900010001EC695A
:103D680000010001ED6900010001EE69000E00018B
:103D78000001E56F000E0001E66F000E0001E76F1D
:103D8800000E0001E86F120011D0070159C7F6FFB5
:103D980007015AC7F7FF000EF86E0800F5CFF3FFCA
:103DA80007010701594B5A2BF3CFFAFE0701070108
:103DB8005B07D8A05C0707015B29D8B45C29D8A4A5
:103DC80001D001D0E2D7120007010A6F000E0701E7
:103DD8000701096F07010A51040E07010701096568
:103DE80001D001D001D00ED009C74CF787EC1AF0EA
:103DF80007010701092B040E07010701096501D016
:103E080001D0F2D71E82120056C75CF757C75DF77C
:103E18000BD05CC7E9FF5DC7EAFF070158C7EFFF92
:103E2800070107015C4B5D2B070107015A07D8A062
:103E38005B0707015A29D8B45B29D8A401D001D05F
:103E4800E8D700D012000AC7B4FE0BC7F3FF0CC7AF
:103E5800F4FFF250C00B070107010D6F3F0EF21679
:103E6800F3CFB6FE00F0F4CFB7FE070107010D51FE
:103E7800F21200D00E010E018AB101D001D0FAD79A
:103E88001200E1C641F747EC0AF07D0E0701070171
:103E9800415D000E07014259D8B001D001D001D0D0
:103EA8000DD0F6EC1DF0C10E07010701376FFF0EAC
:103EB8000701386F3DEC14F092ECDDF01200C00EF3
:103EC800115C050E1258D8A001D001D001D013D032
:103ED80053C7C2F7BEEC22F0114A122A1150135CE4
:103EE80012501458D8B001D001D004D011C013F02A
:103EF80012C014F000D012000E01DF8F0E01DF9FF8
:103F0800080E07010701A26F00D007010701A207E9
:103F18000701A229D8A401D001D0F7D70E01FC933C
:103F28000E01DF8719EC22F0A3C71CF0A4C71DF00F
:103F3800120006010601E229D8B401D001D007D049
:103F4800E2C64CF787EC1AF006010601E2690701A0
:103F5800306F070E06010601E56F070130513790F3
:103F68003730010B00D012000CD0C2C7E9FFC3C71D
:103F7800EAFFEF50F36E07010701C24BC32BF3CFE3
:103F8800FAFE07010701C407D8A0C5070701C4291D
:103F9800D8B4C529D8A401D001D0E7D712000701A9
:103FA8000D6F010E06010601C96F07010D510601CB
:103FB8000601C669BB6819EC22F0A3C7CAF6A4C7F4
:103FC800CBF6A5C7CCF6A6C7CDF6120005010501AC
:103FD800C829D8B401D001D007D0C8C54CF787ECA0
:103FE8001AF005010501C86907010A6F000E0501ED
:103FF8000501C96F07010A5112002A6601D001D0D4
:104008000AD02BC02AF0008200B401D001D002D01F
:10401800897801D000942A50D8B401D001D001D0B9
:104028002A0612000401000E2524E96EEA6A04013A
:10403800040EEA22EF50680AD8B401D001D002D0A9
:10404800000E04D02528216E010E00D01200F28A3D
:1040580000F0F29AD6CFF4F5D7CFF5F5A9C6F6F564
:10406800AAC6F7F5ABC6F8F5ACC6F9F5F2B401D0B7
:1040780001D0EDD7F28A1200F28A00F0F29AD6CF78
:10408800F4F5D7CFF5F5A9C6F6F5AAC6F7F5ABC688
:10409800F8F5ACC6F9F5F2B401D001D0EDD7F28A43
:1040A800120040EC20F0F5C574F7F6C575F7F7C5B2
:1040B80076F7F8C577F774C770F775C771F776C7DD
:1040C80072F777C773F700D01200080E07010701CF
:1040D8004E2507010701776F000E070107014F21E1
:1040E8000701786FA8EC21F04EC70FF04FC710F00A
:1040F80012000701060174C7A1F60701060175C77A
:10410800A2F606010601A36B0601A46B0701766FF0
:10411800010E296E070176511200F90E07010701F9
:104128004E2507010701AE6F0A0E070107014F214F
:104138000701AF6F86EC22F04EC711F04FC712F09F
:10414800120030C73CF731C73DF71FEC17F03CC7EA
:1041580035F73DC736F730C733F731C734F72FC7C0
:1041680032F7ADECCFF000D01200948694883F0E61
:10417800C716000EC66E000EC56EC686C78E82862E
:104188008288C68A0701096F430EC86E0701095164
:10419800120030C73CF731C73DF71FEC17F03CC79A
:1041A80035F73DC736F730C733F731C734F72FC770
:1041B80032F710ECCCF000D012002BC72CF7EDEC46
:1041C80022F09AEC22F00009D8A401D001D003D043
:1041D800F6EC1DF004D046EC22F092ECDDF0120073
:1041E8000701106F000E206E070110510701106FB4
:1041F800000E246E070110510701106F000E086EA3
:10420800070110511200F2A401D001D00ED0010E06
:1042180006010601A927000E0601AA23000E0601C1
:10422800AB23000E0601AC23F29412000701226FA3
:10423800010E07010701236F07012251A9EC1DF0A8
:10424800230EE96E070EEA6EEF30E832010B00D05C
:1042580012000AC73CF70BC73DF71FEC17F03CC725
:1042680055F73DC756F70AC753F70BC754F7EBEC9A
:1042780017F000D012000401000E2524E96EEA6A46
:104288000401040EEA22EF50690AD8B401D002D022
:10429800010E01D0000E00D012001EB201D001D0D4
:1042A8000DD026EC1BF0000E03010301FB6F000E7E
:1042B8000301FC6F06010601E3691E8212000AC7AA
:1042C8003CF70BC73DF71FEC17F03CC755F73DC748
:1042D80056F70AC753F70BC754F7A8EC17F000D0E6
:1042E8001200E1C641F747EC0AF0F6EC1DF0880E23
:1042F80007010701376FFF0E0701386F3DEC14F017
:1043080067EC22F0120031C737F732C738F73DECB7
:1043180014F033C737F734C738F735C739F736C716
:104328003AF7C4ECE6F012000DC760F784EC0EF023
:1043380003010301F551070AD8B401D002D0010ED8
:1043480001D0000E00D01200325007010701772576
:1043580007010701796F000E07010701782107019E
:104368007A6FC0EC1BF01200BEC7C1F7BFC7C2F717
:10437800C2C7C0F7C1C7C2F7C0C7C1F7C1C7BEF738
:10438800C2C7BFF700D012002DC733F72EC734F7C6
:104398002FC735F730C736F72BC731F72CC732F799
:1043A80087EC21F01200000ED76E000ED66EF19445
:1043B800F294F28A0701086F870ED56E070108513B
:1043C800120076927690769C769A7688769676849F
:1043D800A4967768A38697949388A58612002FC71A
:1043E80033F730C734F7F1EC13F031C737F732C77A
:1043F80038F73DEC14F0120020C725F71EC723F745
:104408001FC724F71CC721F71DC722F7FFEC02F0CE
:1044180012002BEC20F0F4C5DFF7F5C5E0F7F6C580
:10442800E1F7F7C5E2F700D0120040EC20F0F4C540
:10443800A3F7F5C5A4F7F6C5A5F7F7C5A6F700D005
:1044480012000DC760F784EC0EF00301F6970DC754
:104458002DF729ECE3F0120007010E6F020E06019A
:104468000601D26F07010E510DC7CFF612000701E2
:104478000E6F020E06010601C96F07010E510DC726
:10448800C6F6120007012C6F730E07010701486F6B
:1044980007012C51D0EC1DF012002DC731F72EC7A3
:1044A80032F72BC72FF72CC730F7F3EC21F01200A7
:1044B80019EC22F0A3C7ADF6A4C7AEF6A5C7AFF6B0
:1044C800A6C7B0F6120007012B6F680E0701070197
:1044D800486F07012B51D0EC1DF0120037A001D016
:1044E80001D002D0000E03D03780010E00D0120098
:1044F8000E010E01DFAB01D002D0010E01D0000E7B
:1045080000D01200E2CEB0F7E3CEB1F7AEC7E2FEBC
:10451800AFC7E3FE00D01200E0CEB0F7E1CEB1F7AE
:10452800AEC7E0FEAFC7E1FE00D012002850030A74
:10453800D8B401D002D0010E01D0000E00D0120074
:104548000C50040AD8B401D002D0010E01D0000EDC
:1045580000D01200979292988998B19AB198A08247
:10456800A282B19012003BECD5F0F0ECBDF02EEC3D
:10457800B5F01200C2C7F3FFF3CFFAFE12000E0126
:104588000E01FA5100D012000501CA51010B00D0EA
:104598001200EAEC22F0B190768412007694E4ECF2
:1045A80022F01200D08EF28EF28C12000601060163
:1045B800E0691200E4ECDBF01200225000D0120097
:1045C8008E828E9412002BC7D1F612008E928E84A2
:0C45D80012002CC7C8F61200D18012009F
:10FE62002F7365727665722F61737369676E3F6572
:10FE72006D6265646465643D312670726F746F6390
:10FE82006F6C56657273696F6E3D32004841505215
:10FE920041445539505553544557553355334136DE
:10FEA2004845504151454652455045500000005E7C
:10FEB20001E80367005357415138544845433245DE
:10FEC200424139484546454A3552555354454845BD
:10FED2005939323754000D0A436F6E6E6563746987
:10FEE2006F6E3A20636C6F73650D0A0D0A007465BC
:10FEF2006D706572617475726568756D6964697437
:10FF0200790020485454502F312E300D0A486F7317
:10FF1200743A200054656C6C537469636B4E65745B
:10FF22003A0054656C6C537469636B204E657400BF
:10FF320065766572666C6F75726973680073656C5D
:10FF4200666C6561726E696E6700636F6465737774
:10FF52006974636800646973636F6E6E65637400CD
:10FF620066696E656F66667365740070726F746F32
:10FF7200636F6C005265676973746572006D616EC0
:10FF8200646F6C796E0052617744617461006172D2
:10FF920063746563680076657273696F6E0073657A
:10FFA2006E736F7200736563726574006F7265675A
:10FFB2006F6E006D6F64656C00636C6173730050EB
:10FFC200696E670047455420006861736800736872
:10FFD200613100646174610073656E640078313070
:10FFE2000032383A006D6163006B65790041434B22
:0EFFF200006F730052005300330050000000F7
:020000040001F9
:100000006170692E74656C6C6475732E636F6D001E
:1000100000000100000000000000000100000000DE
:100020000000FFFFF3FF80FFFFFEFEFFFEFFFFFE6D
:1000300007000D0E070107014A25E96E000E0701B2
:1000400007014B21EA6EEF50070107014F6F080EC1
:10005000070107014A25E96E000E070107014B2140
:10006000EA6E0701EECF64F70701EECF65F70701EF
:10007000EECF66F70701EECF67F7040E0701070121
:100080004A25E96E000E070107014B21EA6E0701C0
:10009000EECF58F70701EECF59F70701EECF5AF729
:1000A0000701EECF5BF70301F6910301F69303011D
:1000B000F6950B000E0003010301F6B901D001D043
:1000C0001BD019EC22F0740E07010701A3250301D0
:1000D0000301ED6F350E07010701A4210301EE6F47
:1000E000060E07010701A5210301EF6F000E0701AE
:1000F0000701A6210301F06F5BD1070107014FA59E
:1001000001D001D004D017EC0EF086EF8EF007017D
:1001100007014FA901D001D01ED064C7CCF465C738
:10012000CDF466C7CEF467C7CFF40701686F000E41
:1001300007010701716F070168510701696F040E1C
:1001400007010701706F07016951B4EC9BF017ECD0
:100150000EF086EF8EF0070107014FA301D001D00A
:100160003AD0010E07010701582504010401D06FA0
:10017000000E0701070159210401D16F000E07018C
:1001800007015A210401D26F000E070107015B210C
:100190000401D36F03ECDBF070C7EBF471C7ECF430
:1001A0000701686F010E07010701716F07016851B0
:1001B0000701696F120E07010701706F070169518E
:1001C000B4EC9BF00701686F060E03010301F56FA5
:1001D0000701685102D017EC0EF086EF8EF0070190
:1001E00007014FA501D001D002D086EF8EF00701A4
:1001F00007014FA901D001D04BD00701070167517A
:1002000004010401CF1914E107010701665104013B
:100210000401CE190DE10701070165510401040134
:10022000CD1906E107010701645104010401CC194D
:10023000D8B401D001D02CD0CCC458F7CDC459F7D4
:10024000CEC45AF7CFC45BF764C7CCF465C7CDF40E
:1002500066C7CEF467C7CFF40701686F010E0701C8
:100260000701716F070168510701696F040E0701EB
:100270000701706F07016951B4EC9BF058C7CCF4CB
:1002800059C7CDF45AC7CEF45BC7CFF486EF8EF0D2
:10029000070107014FA301D001D087D0010E07014C
:1002A0000701582504010401D06F000E0701070162
:1002B00059210401D16F000E070107015A210401E1
:1002C000D26F000E070107015B210401D36F0E0EF0
:1002D000070107014A25E96E000E070107014B21BE
:1002E000EA6E0401EECFDAF40401EDCFDBF403ECA7
:1002F000DBF070C7EBF471C7ECF4070107014FA9FD
:1003000001D001D038D00701686F010E0701070145
:10031000716F070168510701696F100E070107012E
:10032000706F07016951B4EC9BF00701686F070E0D
:1003300003010301F56F0701685119EC22F0740EF7
:1003400007010701A32503010301ED6F350E070126
:100350000701A4210301EE6F060E07010701A52185
:100360000301EF6F000E07010701A6210301F06FE3
:100370000301F6991AD00701686F010E0701070102
:10038000716F070168510701696F120E07010701BC
:10039000706F07016951B4EC9BF00701686F060E9E
:1003A00003010301F56F0701685186EF8EF00AD053
:1003B00003010301F551040A01E19FD6010A01E19D
:1003C0000ED7F5D74CC752F74DC753F707010701B2
:1003D0004FA101D001D004D007010701524B532B8C
:1003E000070107014FA301D001D004D00701070185
:1003F000524B532B030103EEEBF0030113EEE9F034
:10040000E652EE52ED50E55C02E1EF50E75CD8A019
:1004100001D001D030D0030103EEE9F0EECF68F750
:10042000EDCF69F703010301EB510701685F030199
:100430000301EC510701695B030103EEE3F0EECF2A
:100440006AF7EDCF6BF703010301E15107016A5F22
:1004500003010301E25107016B5B070168510701CA
:100460006A5D07010701506F0701695107016B5968
:100470000701516F1CD0030103EEEBF0EECF68F7DC
:10048000EDCF69F703010301E9510701685F03013B
:100490000301EA510701695BFF0E070168250701A7
:1004A0000701506FFF0E070169210701516F040119
:1004B0000401D05107010701585D07010701606F72
:1004C00004010401D1510701070159590701616F66
:1004D00004010401D251070107015A590701626F53
:1004E00004010401D351070107015B590701636F40
:1004F00060C754F761C755F70701686F000E070121
:1005000007014E6F0701685107010701535152114E
:10051000D8B401D001D0F9D00701070151515011D1
:10052000D8B401D001D0F0D00701070163BF01D0DA
:1005300001D02FD00701070150510701686F070153
:10054000070151510701696F07016A6B07016B6B66
:100550000701685107010701605D07016951070143
:100560000701615907016A51070107016259070133
:100570006B51070107016359D8B001D001D009D0F0
:100580000701686F010E070107014E6F07016851EF
:100590006CD00701070152510701070160250701CF
:1005A000686F070107015351070107016121070126
:1005B000696F000E07010701622107016A6F000ED3
:1005C00007010701632107016B6F07016B51800A67
:1005D000800F08E1000E6A5D05E1000E695D02E131
:1005E000010E685DD8A001D001D03FD007010701FE
:1005F000525107010701505D0701686F07010701AC
:1006000053510701070151590701696F07016A6BCF
:10061000070169BF6A0707016A5107016B6F07018C
:100620006B51800A07016C6F0701070160510701D8
:10063000685D070107016151070169590701070159
:10064000625107016A59070107016351800A0701D6
:100650006C59D8A001D001D008D00701686F010EF5
:10066000070107014E6F070168510701070150514B
:100670000701686F0701070151510701696F070101
:100680006A6B07016B6B070107016351800A070161
:100690006C6F0701685107010701605D070169512F
:1006A00007010701615907016A51070107016259F2
:1006B00007016B51800A07016C59D8B001D001D0F5
:1006C00023D0070154C768F7070155C769F7070129
:1006D000070152510701682707010701535107011C
:1006E000692307016951800A800F010ED8B4685D43
:1006F000D8A001D001D008D00701686F010E070112
:1007000007014E6F0701685146D007016351601120
:1007100061116211D8A401D001D009D00701686F1E
:10072000010E070107014E6F0701685134D0070120
:10073000070163BF01D001D02ED00701070150513E
:100740000701686F0701070151510701696F070130
:100750006A6B07016B6B0701685107010701605D58
:100760000701695107010701615907016A51070132
:100770000701625907016B51070107016359D8B09E
:1007800001D001D008D00701686F010E07010701F1
:100790004E6F07016851070107014E6701D001D074
:1007A0001AD0070107014FB501D001D012D00701BF
:1007B000686F010E07010701716F0701685107019A
:1007C000696F100E07010701706F07016951B4ECE2
:1007D0009BF086EF8EF0070107014F51060BD8B44E
:1007E00001D001D004D017EC0EF086EF8EF0070197
:1007F00007014FB901D001D002D086EF8EF09DEFF6
:1008000088F007010701675104010401CF1914E1C1
:1008100007010701665104010401CE190DE107012A
:100820000701655104010401CD1906E10701070123
:10083000645104010401CC19D8B401D001D02CD0EA
:10084000CCC458F7CDC459F7CEC45AF7CFC45BF720
:1008500064C7CCF465C7CDF466C7CEF467C7CFF4E0
:100860000701686F010E07010701716F07016851E9
:100870000701696F040E07010701706F07016951D5
:10088000B4EC9BF058C7CCF459C7CDF45AC7CEF49A
:100890005BC7CFF486EF8EF00701686F070E030188
:1008A0000301F56F0701685104010401D4510301EC
:1008B0000301E55D07010701566F04010401D551ED
:1008C00003010301E6590701576F0701070157AFFD
:1008D00001D001D01BD0030103EEE1F0EECF68F7A9
:1008E000EDCF69F703010301DF510701685F0301E1
:1008F0000301E0510701695B070168510701070126
:10090000562707016951070107015723070107010E
:10091000565104010401CC25070107015C6F070152
:100920000701575104010401CD2107015D6F000E3D
:1009300004010401CE2107015E6F000E04010401D1
:10094000CF2107015F6F070107016451070107010C
:100950005C5D0701686F0701070165510701070129
:100960005D590701696F070107016651070107011A
:100970005E5907016A6F0701070167510701070107
:100980005F5907016B6F07016BAF01D001D014D025
:100990000701686F000E07010701716F07016851B9
:1009A0000701696F100E07010701706F0701695198
:1009B000B4EC9BF086EF8EF003010301E7510401D4
:1009C0000401D45D0701686F03010301E8510401CC
:1009D0000401D5590701696F07016A6B070169BFF7
:1009E0006A0707016A5107016B6F0701685104012B
:1009F0000401CC5D070107015C6F07016951040127
:100A00000401CD5907015D6F07016A51040104011A
:100A1000CE5907015E6F07016B5104010401CF59E4
:100A200007015F6F030103EEE7F0040114EED4F059
:100A3000E652EE52ED50E55C02E1EF50E75CD8B0D3
:100A400001D001D028D003010301DF5103010301CC
:100A5000E15D0701686F03010301E0510301030138
:100A6000E2590701696F07016A6B07016B6B0701A8
:100A70006851070107015C5F070169510701070120
:100A80005D5B07016A51070107015E5B07016B515E
:100A9000070107015F5B070107015C5107010701BF
:100AA000645D070107015C6F070107015D510701E4
:100AB0000701655907015D6F070107015E510701D5
:100AC0000701665907015E6F070107015F510701C2
:100AD0000701675907015F6F070107015F51800A2E
:100AE000800F0BE1000E07015E5D07E1000E0701BC
:100AF0005D5D03E1010E07015C5DD8A001D001D06E
:100B00003BD103010301DF5103010301E15D070153
:100B1000686F03010301E05103010301E25907017A
:100B2000696F07016A6B07016B6B070107015C5175
:100B30000701685D070107015D5107016959070158
:100B400007015E5107016A59070107015F5107015B
:100B50006B59D8A001D001D00FD10401EA9704014C
:100B6000EA990301F791E7C356F7E8C357F707017E
:100B700007015C5103010301E727070107015D51EC
:100B800003010301E8230701070156510401040191
:100B9000D45D07010701575104010401D559D8A0BC
:100BA00001D001D039D0030103EEE7F0040114EEC7
:100BB000D4F0E652EE52ED50E55C02E1EF50E75C16
:100BC000D8B001D001D027D0030103EEE7F0EECF7B
:100BD00068F7EDCF69F704010401D4510701685F9C
:100BE00004010401D5510701695B07016851040143
:100BF0000401CC270701695104010401CD23000E33
:100C000004010401CE23000E04010401CF23E7C335
:100C1000D4F4E8C3D5F457D0030103EEE1F0EECFEE
:100C200068F7EDCF69F703010301DF510701685F42
:100C300003010301E0510701695B04010401D45180
:100C40000701682507010701566F04010401D5510A
:100C5000070169210701576F03010301E7510701EC
:100C60000701565D03010301E851070107015759C8
:100C7000D8B001D001D027D0030103EEE7F0EECFCA
:100C800068F7EDCF69F70701070156510701685F63
:100C90000701070157510701695B0701685104010A
:100CA0000401CC270701695104010401CD23000E82
:100CB00004010401CE23000E04010401CF23E7C385
:100CC000D4F4E8C3D5F4030103EEE1F0030113EE1D
:100CD000E7F0E652EE52ED50E55C02E1EF50E75CE2
:100CE000D8A001D001D01BD0030103EEE1F0EECF7C
:100CF00068F7EDCF69F703010301DF510701685F72
:100D000003010301E0510701695B07016851030119
:100D10000301E75F0701695103010301E85B030178
:100D200003EEE1F0040114EED4F0E652EE52ED5081
:100D3000E55C02E1EF50E75CD8A001D001D01BD008
:100D4000030103EEE1F0EECF68F7EDCF69F70301A1
:100D50000301DF510701685F03010301E05107014F
:100D6000695B0701685104010401D45F07016951FF
:100D700004010401D55B93D0040104EED4F0030117
:100D800013EEE7F0E652EE52ED50E518EFCFE8FF34
:100D9000D8B4E718D8B401D001D081D0040104013F
:100DA000EAA701D001D079D004010401EAA901D059
:100DB00001D071D003010301E75104010401D45DA6
:100DC0000701686F03010301E85104010401D559CB
:100DD0000701696F07016A6B070169BF6A070701AD
:100DE0006A5107016B6F0701685104010401CC5F70
:100DF0000701695104010401CD5B07016A51040137
:100E00000401CE5B07016B5104010401CF5B0301B8
:100E100003EEE7F0040114EED4F0E652EE52ED508A
:100E2000E55C02E1EF50E75CD8B001D001D02DD0F5
:100E300003010301DF5103010301E15D0701686F55
:100E400003010301E05103010301E2590701696F46
:100E500007016A6B070169BF6A0707016A51070149
:100E60006B6F0701685104010401CC5F07016951F0
:100E700004010401CD5B07016A5104010401CE5B4A
:100E800007016B5104010401CF5BE7C3D4F4E8C34D
:100E9000D5F40301F7850401EA890401EA87030117
:100EA00003EEE5F0030113EEE7F0E652EE52ED50EB
:100EB000E518EFCFE8FFD8B4E718D8A401D001D0E7
:100EC00049D003010301F7B701D001D01ED019ECBE
:100ED00022F0740E07010701A32503010301ED6F42
:100EE000350E07010701A4210301EE6F060E07016D
:100EF0000701A5210301EF6F000E07010701A621DD
:100F00000301F06F0301F69925D00701070167512E
:100F100004010401CF1914E107010701665104011E
:100F20000401CE190DE10701070165510401040117
:100F3000CD1906E107010701645104010401CC1930
:100F4000D8A401D001D006D00301F6990301F79788
:100F50000401EA9104010401DB51DA11D8A401D0A3
:100F600001D012D00E0E070107014A25E96E000ECE
:100F7000070107014B21EA6EEE50ED10D8B401D005
:100F800001D002D00301F7830E0E070107014A25A5
:100F9000E96E000E070107014B21EA6E0401EECF56
:100FA000DAF40401EDCFDBF403010301F551080A83
:100FB000D8A401D001D045D0070107016751040131
:100FC0000401CF1914E1070107016651040104016E
:100FD000CE190DE107010701655104010401CD1986
:100FE00006E107010701645104010401CC19D8A4EA
:100FF00001D001D025D019EC22F0BA0E070107016B
:10100000A32503010301ED6F1A0E07010701A421B7
:101010000301EE6F030E07010701A5210301EF6F26
:10102000000E07010701A6210301F06F0301F689F5
:101030000701686F090E03010301F56F070168518D
:1010400058D003010301F551090AD8A401D001D0F9
:1010500025D0070107014FB101D001D01ED064C7D0
:10106000CCF465C7CDF466C7CEF467C7CFF40701EB
:10107000686F000E07010701716F070168510701D2
:10108000696F140E07010701706F07016951B4EC15
:101090009BF017EC0EF086EF8EF02BD003010301CE
:1010A000F5510A0AD8A401D001D023D007010701C5
:1010B000675104010401CF1914E1070107016651CA
:1010C00004010401CE190DE1070107016551040176
:1010D0000401CD1906E1070107016451040104016F
:1010E000CC19D8A401D001D002D017EC0EF086EFB5
:1010F0008EF041D007010701675104010401CF19A7
:1011000014E107010701665104010401CE190DE144
:1011100007010701655104010401CD1906E107012A
:101120000701645104010401CC19D8A401D001D0F5
:1011300002D017EC0EF086EF8EF003010301F5519B
:10114000060A02E101EF84F0010A02E154EF84F0A3
:101150000F0A02E154EF84F0010A02E154EF84F037
:10116000030A02E154EF84F0010A02E154EF84F033
:10117000070AC0E0BED7070107014FAB01D001D07D
:1011800002D086EF8EF003010301F5510B0AD8A4BB
:1011900001D001D002D086EF8EF003010301F5519A
:1011A0000A0AD8A401D001D002D086EF8EF0030144
:1011B0000301F5510C0AD8A401D001D002D086EF6A
:1011C0008EF0070107014D514C11D8B401D002D067
:1011D0003BEF8DF0070107015551800A800F010E8A
:1011E000D8B4545DD8B001D001D0BBD10C0E0701EA
:1011F00007014A25E96E000E070107014B21EA6E3F
:10120000EF380F0B0701686F68C769F707016A6B52
:10121000D890070169376A37D890070169376A376C
:101220000701070154510701695D07010701776F45
:1012300007010701555107016A590701786FA8ECAA
:1012400021F0070107015451070107014C2707014D
:1012500007015551070107014D23070107014C51B3
:1012600007010701505D070107014D510701070103
:101270005159D8B001D001D004D050C74CF751C754
:101280004DF7070107014C5104010401D027070164
:1012900007014D5104010401D123000E0401040192
:1012A000D223000E04010401D323030103EEE9F06D
:1012B000EECF68F7EDCF69F7070107014C51070141
:1012C0006827070107014D5107016923070168518C
:1012D00003010301E35D0701695103010301E459BF
:1012E000D8B001D001D07FD0030103EEE3F0EECF00
:1012F00068F7EDCF69F703010301E9510701685F62
:1013000003010301EA510701695B010E070168252A
:1013100007010701566F000E070169210701576F8A
:1013200056C7ACF757C7ADF70701686F000E070146
:101330000701AB6F07016851FF0E07010701A96F95
:10134000FF0E0701AA6FFAC3A8F7E9C3A6F7EAC31D
:10135000A7F74AEC0CF007010701565107010701F6
