:100000001728FF3FFF3FFF3FFF00030E83018316CA
:10001000AA000408A9000A08AB008A012B088A007C
:10002000290884002A0E8300FF0E7F0E09000D3080
:1000300003138316AC000A30AD002B30AE005630EF
:10004000AF00B0010D30B1000A30B200B30154303E
:10005000B4005330B5003030B6003030B700313026
:10006000B800B9010B30BC000A30BD00BE017223DC
:100070008501860187018312850186018701871426
:1000800035237823AC308316C0001C233630C800DB
:100090006A23B1308316C0001C2303138316031395
:1000A00083166123700803194D2845237008A800A2
:1000B00067289028BE144D289028BC30C800A6227E
:1000C0004D28BD30C800A6224D2890284D2828086C
:1000D000423A031959282808443A03195A2828088B
:1000E000483A03195C2828084D3A03195C28280867
:1000F0004E3A03195C282808503A03195D2828084D
:10010000523A031961282808533A03196528280828
:10011000543A031965282808563A031965286628B1
:10012000F822700803194D282B30C8006A23831663
:100130002808C8006A2383162808533A031DCC28D0
:10014000BA01BB0180303B06F00080307002031D15
:10015000AB283D083A020318CB28831287102D22C2
:1001600087148316BF013C083F020318C7280330D9
:10017000FB00FF30FA00FB0BBE28C128FA0BBE289B
:10018000BB289630FA00FA0BC328BF0AB328BA0A74
:100190000319BB0AA22815292808543A031DFC2874
:1001A000BA01BB0180303B06F00080307002031DB5
:1001B000DB283D083A020318FB28831287102C2104
:1001C00087148316BF013C083F020318F728033049
:1001D000FB00FF30FA00FB0BEE28F128FA0BEE28AB
:1001E000EB289630FA00FA0BF328BF0AE328BA0A84
:1001F0000319BB0AD22815292808563A031D0429D9
:100200003630C8006A23152983162808483A031D8A
:100210000D293330C8006A231529831628084D3A62
:10022000031D1529B430C0001C23031383160313C8
:100230008316BE1C1E292030C0001C23BE100B30AC
:10024000BC000A30BD000D30C8006A230A30831696
:10025000C8006A234D282B2903138316C4012030BC
:10026000C000C101043041020318B42940088400D1
:100270000008F2007208013A031D53290130F4000E
:100280004108F000740803194929F00D7010FF3F70
:100290004329A030F00770088400FF308000FF3051
:1002A000840A8000B1290130F4004108F00074088C
:1002B00003195E29F00D7010FF3F58297008A03F08
:1002C000F200400884000008F00072088400700802
:1002D0008000840A80010130F4004108F0007408B5
:1002E00003197629F00D7010FF3F70297008A03FA8
:1002F000C700470884000008F000840A0008F100E5
:100300000A30F4000030F500CD228316470884003F
:10031000700880007108840A80000130F4004108F0
:10032000F000740803199829F00D7010FF3F92290E
:100330007008A03FF200720884000008F000840AF0
:100340000008F1007008FF3CF0007108031C013F39
:10035000FF3CF10072088400700880007108840A74
:100360008000C00AC10A3229400884000008C20087
:10037000C00A831210100C1483164208003C0318A4
:10038000282A400884000008C300C101043041024B
:100390000318262AC0304305F4000630F200740822
:1003A000F00072080319D829F00CF013FF3FD2298E
:1003B0000130F40074080319E129F00D7010FF3FBB
:1003C000DB297008A03F84000008F200840A0008BE
:1003D000F3007208C5007308C600C30D4310C30DB7
:1003E00043107308FF3A031DF729FF307206031DFF
:1003F000FB29C4091E2A83120C1CFB2910100C10A7
:10040000003083164505F4004608FF39F5007508ED
:10041000F000F101700883128F00831645088312E3
:100420008E0083164409F0007008C4000030701874
:100430002030831206062039860610148316C20364
:1004400001304202031C262AC10AC629C00ABC295F
:1004500083120C1C282A8612080003138316C3017A
:10046000831210100C1420308316C200420884003E
:100470000008F2007208003A0319A12A4208840019
:100480000008F2007208013A031D482AC3099E2A97
:10049000420884000008C000C1010030C1004008CB
:1004A000F2004108F300F20DF30D7210F20DF30D9E
:1004B0007210F20DF30D72107208C0007308C100C3
:1004C000420884000008F0007008F007F1010318EA
:1004D000F10A7208F00773080318013FF10770086A
:1004E000C0007108C1007008FF3CC0007108031C07
:1004F000013FFF3CC10083120C1C7B2A10100C1022
:10050000003083164005F4004108FF39F5007508F6
:10051000F000F101700883128F00831640088312E7
:100520008E0083164309F0007008C3000030701875
:100530002030831206062039860610148316C20A5C
:10054000362A83120C1CA12A861208000313831674
:10055000C901831210100C108F018E0110140313A7
:1005600083128C1AC32A0C1CBB2A8316C90A831255
:100570008F018E010C10053083164902031CC22A1C
:10058000F0010800AF2A03138316532348088400A0
:10059000700880000130F000080003138312FB0193
:1005A000FA01F9018030F800F10CF00C031CE12A8B
:1005B0007408F90775080318750FFA070318FB0A82
:1005C0000310F01FE92A7408FA0775080318750F5D
:1005D000FB07FB0CFA0CF90CF80C031CD42A7B0863
:1005E000F3007A08F2007908F1007808F0000800BA
:1005F00003138316C0012030C1005030400203189D
:100600001A2B4108C800A6227008031D092BF0010F
:100610000800410884000008F10071082B3A031D0E
:10062000172B4108840080010130F0000800C10A46
:10063000C00AFD2AF001080003138316C101C2019C
:100640004108400784000008F1007108003A0319CE
:10065000342B4108400784000008C8006A23831631
:10066000C10A0319C20A202B08006730031383163E
:100670009900181398161812181583129817181342
:1006800018168316861406110800031383121A081D
:100690008316C0008312981C4F2B1812181683164D
:1006A0004008F0000800031383121A088316CA00DA
:1006B0008312981C5D2B1812181683164A08F00036
:1006C00008000030031383128C1A0130F100710806
:1006D000F000080003138316981C6A2B4808831245
:1006E00099000800031383160F178F160F160800C2
:1006F00003138312901210160800FF3FFF3FFF3FC5
:04400E00F42FFFFF8D
:00000001FF
