:0400000014EF00F009
:10000800FACFE2F8FBCFE3F8E9CFE4F815EF35F0E3
:10001800D8CFC9F8E8CFCAF8E0CFCBF8C3EF34F0AF
:1000280007EE56F0000EF66E000EF76E010EF86E33
:1000380010EE51F036EC00F0F86A00EE00F017EE22
:1000480056F02FEC00F00EEE7EF010EE02F02FECE2
:1000580000F0A1EF1DF0EE6AE550E150FCE1E2503E
:10006800FAE112000900F5CFEEFFE550E150FAE1A0
:10007800E250F8E112000E010E01D96746EF00F0D8
:1000880048EF00F09DEF00F05AEC42F0070107013D
:100098001A5108010801A15F070107011B51080156
:1000A8000801A25B450E08010801A15D000E0801C8
:1000B800A259D8A062EF00F064EF00F09AEF00F0C8
:1000C8000801356F110E08010801376F0801355115
:1000D80039EC3FF0370EE96E080EEA6E010EE9269C
:1000E800000EEA22EF500801366F080136A57FEFAF
:1000F80000F081EF00F08DEF00F006010601D5B3A6
:1001080088EF00F08AEF00F08BEF00F08D7292EF2D
:1001180000F00601D5930601D5978D925AEC42F06E
:10012800A1C81AF7A2C81BF70601D595000E5EEF05
:1001380001F00601D58306010601D5B1A6EF00F04E
:10014800A8EF00F0ADEF00F02EEC3CF0000E5EEFF3
:1001580001F0FCC6DBF6FDC6DCF6DBC6E0FEDCC65D
:10016800E1FE140E08010801C46F000E0801C56FF6
:100178000801210E08010801C26F0801080E0801D4
:10018800C36F6DEC38F033C8BCF834C8BDF82FEC39
:1001980043F0BCC833F8BDC834F8CE0E08010801D6
:1001A800215D0A0E08012259D8B0DDEF00F0DFEF1B
:1001B80000F011EF01F00801080121B1E6EF00F0AD
:1001C800E8EF00F011EF01F00801080126BFEFEF9A
:1001D80000F0F1EF00F011EF01F00801080125B976
:1001E800F8EF00F0FAEF00F011EF01F0EF0E080160
:1001F8000801235D050E08012459D8B006EF01F067
:1002080008EF01F011EF01F00801080125BF0FEF19
:1002180001F011EF01F012EF01F0FF0021C8FCF628
:1002280022C8FDF6060E08010801B06F000E08018D
:10023800B16F2D0E0801356F080E366F35C8AEF850
:1002480036C8AFF81DC8ACF81EC8ADF858EC3AF07F
:100258001FC8E9FF20C8EAFFFF0EEF6E080108017A
:100268003451080AD8A43BEF01F03DEF01F059EFF3
:1002780001F0080108013351D8B445EF01F047EF08
:1002880001F052EF01F0080108013351060AD8A421
:1002980050EF01F052EF01F059EF01F01FC8E9FFEC
:1002A80020C8EAFF080133C8EFFF0601D591010E07
:1002B8005EEF01F012006FEC42F0250E0801080114
:1002C8000B6F000E08010C6F0001DB0E080108011E
:1002D800096F0001000E08010A6F95EC3AF0000161
:1002E8000001DB29D8A47BEF01F07DEF01F0ADEF31
:1002F80001F00801086F000E00010001E06F08011D
:1003080008510801086F000E00010001DF6F0801A5
:1003180008510801086F000E00010001DE6F080196
:1003280008510801086F540E00010001DD6F080133
:1003380008510801086FCA0E00010001DC6F0801AE
:1003480008510801086FAC0E00010001DB6F0801BD
:100358000851060E08010801B06F000E0801B16FC0
:100368000001DB0E08010801AE6F0001000E080154
:10037800AF6F0001990E08010801AC6F0001000E73
:100388000801AD6F58EC3AF0C00E00010001806F13
:10039800A80E0001816F000E0001826F330E00016C
:1003A800836FFF0E00010001846FFF0E0001856F4F
:1003B800FF0E0001866F000E0001876F000100012B
:1003C800EC29D8B4EAEF01F0ECEF01F00AEF02F003
:1003D80000010001ED29D8B4F4EF01F0F6EF01F0C7
:1003E8000AEF02F000010001EE29D8B4FEEF01F097
:1003F80000EF02F00AEF02F000010001EF29D8A493
:1004080008EF02F00AEF02F051EF02F00001988DB8
:100418000001988FC00E000100016C6FA80E00014A
:100428006D6F000E00016E6F330E00016F6FFF0ECF
:1004380000010001706FFF0E0001716FFF0E0001D7
:10044800726F000E0001736FC00E00010001746F1F
:10045800A80E0001756F000E0001766F010E0001F5
:10046800776FC00E00010001786FA80E0001796F48
:10047800000E00017A6F010E00017B6F000E000173
:1004880000017C6F000E00017D6F000E00017E6F81
:10049800000E00017F6F7DEF02F00001989D0001C2
:1004A800989FECC06CF0EDC06DF0EEC06EF0EFC040
:1004B8006FF0F0C070F0F1C071F0F2C072F0F3C0EC
:1004C80073F0F4C074F0F5C075F0F6C076F0F7C0BC
:1004D80077F0F8C078F0F9C079F0FAC07AF0FBC08C
:1004E8007BF0FCC07CF0FDC07DF0FEC07EF0FFC05C
:1004F8007FF012003FC8E9FF40C8EAFFEECF47F897
:10050800EECF48F8EECF49F8EECF4AF800010001E7
:100518006F5108014A1911E1000100016E510801EB
:1005280049190BE1000100016D510801481905E165
:10053800000100016C5108014719D8A4A6EF02F088
:10054800A8EF02F0ABEF02F0FF0E9AEF03F00801FC
:10055800080143690201000E08010801456F020104
:10056800020E0801466F0801476F000E08010801D6
:10057800446F08014751040E080108014465C7EF9C
:1005880002F0C9EF02F0CBEF02F058EF03F0020ED1
:10059800080108013D25E96E000E080108013E2109
:1005A800EA6E0C0E080108014525E16E000E0801EF
:1005B80008014621E26EE652EE52ED50E518EFCF03
:1005C800E8FFD8B4E718D8A4ECEF02F0EEEF02F099
:1005D80044EF03F03DC8E9FF3EC8EAFF0A0E0801F0
:1005E80008014525E16E000E080108014621E26E6A
:1005F800E652EE52ED50E518EFCFE8FFD8B4E71811
:10060800D8A409EF03F00BEF03F042EF03F03FC863
:10061800E9FF40C8EAFFEECF47F8EECF48F8EECF43
:1006280049F8EECF4AF845C8E9FF46C8EAFFEECFD9
:100638004BF8EECF4CF8EECF4DF8EECF4EF8080160
:100648004A5108014E190EE10801495108014D1996
:1006580009E10801485108014C1904E10801475112
:1006680008014B19D8A43BEF03F03DEF03F042EF2C
:1006780003F00801080144519AEF03F044C843F815
:10068800170E080108014527000E08014623080136
:100698000801442B040E08010801446556EF03F0D5
:1006A80058EF03F0CBEF02F0080108014329D8B452
:1006B80060EF03F062EF03F095EF03F00801080123
:1006C8004351170D0201000EF32408010801456F7C
:1006D8000801466B0201020E080146230A0E0801B2
:1006E8000801B06F000E0801B16F3FC8AEF840C8EE
:1006F800AFF845C8ACF846C8ADF858EC3AF03DC874
:10070800E9FF3EC8EAFF0A0E080108014525E16E27
:10071800000E080108014621E26EEECFE6FFEDCF9C
:10072800E5FF0801080143519AEF03F01200C2CF18
:1007380029F8C0CF2AF8D5CF2BF8D6CF2DF8D7CFA8
:100748002CF8010EC26E08012E6F3F0EC06E080114
:100758002E5108012E6F880ED56E08012E51080102
:100768002E6F000E080108011A6F08012E51000EA5
:1007780008010801216F000E0801226F000E080110
:10078800236F000E0801246F000E080108011D6F79
:10079800000E08011E6F7BEC22F00801080174C8E6
:1007A80025F80801080175C826F808010801276B13
:1007B8000801286B000ED76E000ED66EC2820400A8
:1007C800E6EF03F0C2B2EBEF03F0EDEF03F0E6EF74
:1007D80003F0D6CF1FF8D7CF20F87BEC22F074C8EF
:1007E8001BF875C81CF8080108011F510801080109
:1007F8002127080108012051080108012223000EC1
:10080800080108012323000E0801080124231A0EF9
:100818000801215DF20E080122599E0E0801235994
:10082800000E080108012459D8A01DEF04F01FEF9D
:1008380004F03DEF04F07BEC22F00801080174514C
:1008480008010801251B0801080175510801080164
:10085800261B7BEC22F008010801745108010801ED
:10086800271B08010801755108010801281B9FEF83
:1008780004F0080108012051080108011E1906E1C9
:10088800080108011F51080108011D19D8A44FEFDC
:1008980004F051EF04F053EF04F09DEF04F0080169
:1008A8001DC82EF808011EC82FF8080108011F519D
:1008B80008012E5F08010801205108012F5B08017B
:1008C80008011B5108012E27080108011C510801C5
:1008D8002F2308012EC830F808012FC831F8080165
:1008E8000801326B0801336B54EC36F01FC81DF851
:1008F80020C81EF80801D8900801253708012637B6
:1009080008012737080128377BEC22F00801080185
:1009180074AF91EF04F093EF04F096EF04F0080140
:1009280008012581080108011A3F9DEF04F09FEF97
:1009380004F0DEEF03F029C8C2FF2AC8C0FF2CC8A4
:10094800D7FF2DC8D6FF2BC8D5FF25C816F826C84F
:1009580017F827C818F828C819F8B3EF04F01200D8
:100968000C0E08010801796F000E08017A6FF9EC86
:1009780042F04BEC44F008010801756F75C878F82F
:10098800F00E080178170801D89078330801D8903C
:100998007831EC0F08010801756F080108017567C7
:1009A800D8EF04F0DAEF04F0E3EF04F0180E0801D2
:1009B8000801726F020E0801736FC0EF05F0070E91
:1009C80008010801C46F000E0801C56F000E080178
:1009D8000801C26F000E0801C36F6DEC38F0ABEF71
:1009E80005F04BEC44F008010801746F0801080198
:1009F800746701EF05F003EF05F005EF05F0B7EFB9
:100A080005F0080108017405D8A40DEF05F00FEFF3
:100A180005F011EF05F0ABEF05F00801080174517E
:100A2800020AD8A41AEF05F01CEF05F076EF05F0DE
:100A3800030E08010801756124EF05F026EF05F0A3
:100A480028EF05F0B7EF05F0000E08010801766FF2
:100A5800000E0801776F4BEC44F008010801746F31
:100A6800080108017451040AD8A43DEF05F03FEFCE
:100A780005F049EF05F04BEC44F008010801776FE9
:100A88004BEC44F008010801766F180E08010801C4
:100A9800765D020E08017759D8B055EF05F057EF8B
:100AA80005F059EF05F0B7EF05F0B50E080108019C
:100AB800765D050E08017759D8A065EF05F067EF58
:100AC80005F070EF05F0B40E08010801726F050E0D
:100AD8000801736FC0EF05F076C872F877C873F82D
:100AE800C0EF05F0020E0801080175617EEF05F000
:100AF80080EF05F082EF05F0B7EF05F04BEC44F01E
:100B080008010801746F08010801745108010801FF
:100B1800756191EF05F093EF05F095EF05F0B7EFEC
:100B280005F00801080174C8C4F808010801C56B7C
:100B3800000E08010801C26F000E0801C36F6DECBA
:100B480038F008010801745108010801755F0801AF
:100B58000801750708017529D8A4B5EF05F0B7EFA6
:100B680005F0F5EF04F0180E08010801726F020E87
:100B78000801736FC0EF05F01200000E06010601B0
:100B8800CE6F000E0601CF6F080E08010801C46F72
:100B9800000E0801C56F0801280E08010801C26F80
:100BA8000801080E0801C36F6DEC38F028C8BCF8BE
:100BB80029C8BDF82FEC43F0BCC828F8BDC829F8EF
:100BC8002AC8BCF82BC8BDF82FEC43F0BCC82AF8DB
:100BD800BDC82BF82CC8BCF82DC8BDF82FEC43F0C5
:100BE800F80E08010801BC25080108012C6FFF0E4A
:100BF80008010801BD2108012D6F080108012F51C6
:100C08002E11D8B40AEF06F00CEF06F093EF06F0B9
:100C18001DC8E9FF1EC8EAFF0801EECF30F8080139
:100C2800EECF31F80801EECF32F80801EECF33F8F5
:100C38001FC8E9FF20C8EAFF0801EECF34F8080111
:100C4800EECF35F80801EECF36F80801EECF37F8C9
:100C580008013C6F000E08010801386F08013C517B
:100C680008013C6F110E08010801396F08013C5159
:100C780021C83AF822C83BF83AC8BCF83BC8BDF8C6
:100C88002FEC43F0BCC83AF8BDC83BF80C0E08017D
:100C98000801BC6F000E0801BD6F0801300E080185
:100CA8000801BA6F0801080E0801BB6FF2EC1EF0CC
:100CB80008010801BA1D08010801246F080108018C
:100CC800BB1D0801256F000E08010801796F000E91
:100CD80008017A6FF9EC42F021C8A0F822C8A1F8FF
:100CE8000EEC10F0A0C826F8A1C827F8080108EEF5
:100CF80026F00801EE5208012551ED18080124C814
:100D0800E8FFD8B4EF18D8B48CEF06F08EEF06F0F1
:100D180093EF06F02EEC3CF0000EC5EF06F01FC86E
:100D280041F820C842F81DC83FF81EC840F808011D
:100D3800280E080108013D6F0801080E08013E6FE2
:100D48007EEC02F008010801236F0801080123293D
:100D5800D8A4B1EF06F0B3EF06F0B8EF06F02EEC2A
:100D68003CF0000EC5EF06F023C8A3F72CC8CEF65A
:100D78002DC8CFF607010F8107010F93010EC5EFAC
:100D880006F01200C8EF06F0C5CF12F81F0E0801D2
:100D9800121712C813F80801146B000EC7B4010E1D
:100DA80008011313000E1413080114511311D8A4C9
:100DB800E0EF06F0E2EF06F0C8EF06F0C580E5EFD9
:100DC80006F0C5B0EAEF06F0ECEF06F0E5EF06F046
:100DD800A1A6F1EF06F0F3EF06F0FAEF06F008012E
:100DE8000801106908011169C6EF07F010C82FF84B
:100DF80019EC3AF00009D8B404EF07F006EF07F051
:100E080010EF07F0C584FD0E08010801106FFF0EF2
:100E18000801116FC6EF07F0C5BC15EF07F017EF13
:100E280007F0B4EF07F011C82FF819EC3AF00009F1
:100E3800D8B421EF07F023EF07F02DEF07F0C584B2
:100E4800FD0E08010801106FFF0E0801116FC6EFB3
:100E580007F0C5BC32EF07F034EF07F0A8EF07F052
:100E6800C58237EF07F0C5B23CEF07F03EEF07F059
:100E780037EF07F0A1A643EF07F045EF07F04CEF77
:100E880007F008010801106908011169C6EF07F0A9
:100E9800080108011029080108012F6F19EC3AF020
:100EA8000009D8B45AEF07F05CEF07F066EF07F0D7
:100EB800C584FD0E08010801106FFF0E0801116FAF
:100EC800C6EF07F0C5BC6BEF07F06DEF07F09CEFBE
:100ED80007F0C58670EF07F0C5B675EF07F077EF36
:100EE80007F070EF07F0C58AC5887BEF07F0C5B833
:100EF80080EF07F082EF07F07BEF07F0C58485EFFE
:100F080007F0C5B48AEF07F08CEF07F085EF07F01C
:100F1800A1A691EF07F093EF07F09AEF07F0080109
:100F28000801106908011169C6EF07F0A6EF07F07C
:100F3800C584FE0E08010801106FFF0E0801116F2D
:100F4800C6EF07F0B2EF07F0C584FE0E08010801EE
:100F5800106FFF0E0801116FC6EF07F0BEEF07F024
:100F6800C584FE0E08010801106FFF0E0801116FFD
:100F7800C6EF07F00801C9CF10F808010801116B86
:100F8800C6EF07F01200A0C8E9FFA1C8EAFF0801F0
:100F9800EECFBCF80801EDCFBDF82FEC43F0A0C8A8
:100FA800E9FFA1C8EAFF0801BCC8EEFF0801BDC8F7
:100FB800EDFF020E08010801A025E96E000E0801E8
:100FC8000801A121EA6E0801EECFBCF80801EDCFB7
:100FD800BDF82FEC43F0020E08010801A025E96EC8
:100FE800000E08010801A121EA6E0801BCC8EEFF45
:100FF8000801BDC8EDFF040E08010801A025E96E2F
:10100800000E08010801A121EA6E0801EECFA2F83E
:101018000801EECFA3F80801EECFA4F80801EECF3F
:10102800A5F82BEC3EF0040E08010801A025E96E96
:10103800000E08010801A121EA6E0801A2C8EEFF0E
:101048000801A3C8EEFF0801A4C8EEFF0801A5C85F
:10105800EDFFED52ED52080E08010801A025E96EDA
:10106800000E08010801A121EA6E0801EECFA2F8DE
:101078000801EECFA3F80801EECFA4F80801EECFDF
:10108800A5F82BEC3EF0080E08010801A025E96E32
:10109800000E08010801A121EA6E0801A2C8EEFFAE
:1010A8000801A3C8EEFF0801A4C8EEFF0801A5C8FF
:1010B800EDFFED52ED520E0E08010801A025E96E74
:1010C800000E08010801A121EA6E0801EECFBCF864
:1010D8000801EDCFBDF82FEC43F00E0E0801080112
:1010E800A025E96E000E08010801A121EA6E080199
:1010F800BCC8EEFF0801BDC8EDFF100E08010801CD
:10110800A025E96E000E08010801A121EA6E080178
:10111800EECFBCF80801EDCFBDF82FEC43F0100E70
:1011280008010801A025E96E000E08010801A121A7
:10113800EA6E0801BCC8EEFF0801BDC8EDFF120E3B
:1011480008010801A025E96E000E08010801A12187
:10115800EA6E0801EECFBCF80801EDCFBDF82FEC20
:1011680043F0120E08010801A025E96E000E0801DF
:101178000801A121EA6E0801BCC8EEFF0801BDC83C
:10118800EDFF12001DC8E9FF1EC8EAFF0801EECFF7
:1011980028F80801EECF29F80801EECF2AF808014F
:1011A800EECF2BF81FC8E9FF20C8EAFF0801EECFF1
:1011B8002CF80801EECF2DF80801EECF2EF8080123
:1011C800EECF2FF80801486F000E08010801306FB4
:1011D800080148510801486F060E08010801316FDF
:1011E8000801485121C832F822C833F832C8BCF87F
:1011F80033C8BDF82FEC43F0BCC832F8BDC833F88B
:101208000C0E08010801BC6F000E0801BD6F080133
:10121800280E08010801BA6F0801080E0801BB6F03
:10122800F2EC1EF008010801BA1D08010801246F3C
:1012380008010801BB1D0801256F21C8A0F822C8B4
:10124800A1F80EEC10F0A0C826F8A1C827F80801EC
:101258000801275108010801251906E108010801BC
:101268002651080108012419D8B43DEF09F03FEFD1
:1012780009F043EF09F02EEC3CF0BBEF09F0000E4B
:1012880008010801796F000E08017A6FF9EC42F045
:10129800140E08010801C46F000E0801C56F08018B
:1012A800340E08010801C26F0801080E0801C36F57
:1012B8006DEC38F00801340E08010801A06F080130
:1012C800080E0801A16FC7EC07F0080140390F0BA1
:1012D8000801486F0801D89048370801D890483568
:1012E800EC0F08010801236F0801080123510801C8
:1012F8000801215D0801486F000E08010801225904
:101308000801496FEC0E0801482508010801216F02
:10131800FF0E080149210801226F1DC84CF81EC89C
:101328004DF80801340E080108014A6F0801080E3B
:1013380008014B6F91ECB2F00009D8B4A6EF09F0A0
:10134800A8EF09F0B7EF09F021C84CF822C84DF80A
:101358000801340E080108014A6F0801080E080147
:101368004B6F29EC80F02EEC3CF0BBEF09F012003B
:10137800070107019D29D8A4C4EF09F0C6EF09F0B9
:10138800EEEF09F0000E08010801536F000E080186
:10139800546F450E08010801516F000E0801526F85
:1013A8000801166F000E08010801506F0801165158
:1013B800000E080108014C6F000E08014D6F000E69
:1013C80008014E6F000E08014F6F22ECD7F007019D
:1013D80007019D6F070107019D29D8A4F6EF09F0C1
:1013E800F8EF09F0FAEF09F0B0EF0AF09DC74CF8F2
:1013F800D9EC39F008014D514C11D8A406EF0AF088
:1014080008EF0AF00AEF0AF0B0EF0AF00001000155
:101418006C510001000170150801166F00010001F0
:101428006D510001000171150801176F00010001DD
:101438006E510001000172150801186F00010001CA
:101448006F510001000173150801196F05010501AD
:10145800DA5100010001701508011A6F0501050134
:10146800DB5100010001711508011B6F0501050121
:10147800DC5100010001721508011C6F050105010E
:10148800DD5100010001731508011D6F0801195194
:1014980008011D190EE10801185108011C1909E17C
:1014A8000801175108011B1904E108011651080128
:1014B8001A19D8B462EF0AF064EF0AF068EF0AF07C
:1014C8008FEC41F0B0EF0AF0060E08010801B06F8A
:1014D800000E0801B16F990E0801166F000E176F04
:1014E80016C8AEF817C8AFF80801080E08010801B9
:1014F800AC6F0801080E0801AD6F58EC3AF06CC0EB
:101508000EF86DC00FF86EC010F86FC011F80A0E13
:1015180008010801BC6F000E0801BD6F0801080E24
:1015280008010801BA6F0801080E0801BB6FF2EC48
:101538001EF0BAC812F8BBC813F8D0920801080EFA
:1015480008010801146F0801080E0801156F15C875
:10155800F4FF14C8F3FFFF00120096EF0BF01C0E07
:1015680008010801C46F000E0801C56F08011D0EAF
:1015780008010801C26F0801080E0801C36F6DEC6D
:1015880038F02EEC3CF008011D0E080108017C6FB4
:101598000801080E08017D6F9EEC30F00801080173
:1015A8001D051E11D8A4DBEF0AF0DDEF0AF0F3EFFA
:1015B8000AF0080108012151060AD8A4E6EF0AF04A
:1015C800E8EF0AF0F3EF0AF0080108012251040AD3
:1015D800D8B4F1EF0AF0F3EF0AF0F5EF0AF0A2EF52
:1015E8000BF0080108012351020A2411D8A4FFEFC7
:1015F8000AF001EF0BF015EF0BF008EE25F014EEF2
:10160800DDF0060EEECFE6FFE82E06EF0BF02BC856
:10161800D9F42CC8DAF42DC8DBF42EC8DCF4A2EF18
:101628000BF00801080123052411D8A41EEF0BF0C4
:1016380020EF0BF05EEF0BF0000100016F51080185
:101648000801381914E1000100016E510801080170
:1016580037190DE1000100016D5108010801361923
:1016680006E1000100016C51080108013519D8B4E0
:1016780040EF0BF042EF0BF044EF0BF0A2EF0BF052
:101688002BC859F62CC85AF62DC85BF62EC85CF63E
:1016980008EE25F016EE5DF0060EEECFE6FFE82E1A
:1016A80051EF0BF00801396F010E07010701366F82
:1016B80008013951020E08010801236F000E0801C4
:1016C800246F06EE5DF018EE2FF0060EEECFE6FF63
:1016D800E82E6AEF0BF059C635F85AC636F85BC6DD
:1016E80037F85CC638F808011D0E08010801786F44
:1016F8000801080E0801796F98EC1BF00009D8A4BE
:1017080088EF0BF08AEF0BF08CEF0BF0A2EF0BF0E9
:101718000801396F000E07010701366F08013951BA
:10172800A0EF0BF0070107013651000A01E117D7B6
:10173800010AC0E0A0EF0BF0A2EF0BF01200FDECE5
:1017480040F00009D8A4ABEF0BF0ADEF0BF0AFEF12
:101758000BF089EF0CF07B0E08010801566FFF0EA5
:101768000801576F4CEC27F00009D8A4BEEF0BF026
:10177800C0EF0BF0C2EF0BF089EF0CF0C9EC26F0CC
:1017880065C832F866C833F867C834F868C835F8E9
:1017980008013229D8B43329D8B43429D8B4352922
:1017A800D8A4D9EF0BF0DBEF0BF0EBEF0BF0000157
:1017B800988D0001988F0801366F000E0801080106
:1017C800376F08013651ABEC42F089EF0CF0600E30
:1017D80008010801566FFF0E0801576F4CEC27F0FF
:1017E8000009D8A4FAEF0BF0FCEF0BF0FEEF0BF0BA
:1017F80089EF0CF0C9EC26F065C82EF866C82FF8FA
:1018080067C830F868C831F8500E08010801566FEB
:10181800FF0E0801576F4CEC27F00009D8A417EF0A
:101828000CF019EF0CF01BEF0CF089EF0CF0C9EC81
:1018380026F065C82AF866C82BF867C82CF868C867
:101848002DF8C50E08010801566FFF0E0801576FE5
:101858004CEC27F00009D8A434EF0CF036EF0CF06C
:1018680038EF0CF089EF0CF0C9EC26F065C822F8C7
:1018780066C823F867C824F868C825F8D40E080194
:101888000801566FFF0E0801576F4CEC27F000094E
:10189800D8A451EF0CF053EF0CF055EF0CF089EF92
:1018A8000CF0C9EC26F065C826F866C827F867C8A2
:1018B80028F868C829F80001989D32C86CF033C828
:1018C8006DF034C86EF035C86FF02EC870F02FC8B0
:1018D80071F030C872F031C873F02AC874F02BC8A0
:1018E80075F02CC876F02DC877F022C878F023C898
:1018F80079F024C87AF025C87BF026C87CF027C880
:101908007DF028C87EF029C87FF012000701070182
:101918007D51D8B492EF0CF094EF0CF0C1EF0CF0BD
:10192800070107017C51070107017A277E0E07018D
:1019380007017A65A2EF0CF0A4EF0CF0A9EF0CF008
:10194800070107017C69BDEF0CF0070107017A6701
:10195800B0EF0CF0B2EF0CF0BDEF0CF00801DA6F4D
:10196800010E070107017C6F0801DA510701070121
:101978007D077AC7BBFF23EF0DF0070107017E51F2
:10198800020AD8A4CAEF0CF0CCEF0CF0D0EF0CF0A0
:101998007BC7BBFF23EF0DF0070107017E05D8A425
:1019A800D8EF0CF0DAEF0CF021EF0DF0D1EC43F0AA
:1019B800070107017F5108010801DE5D0801DA6FA0
:1019C80007010701805108010801DF590801DB6F91
:1019D80007010701815108010801E0590801DC6F7E
:1019E80007010701825108010801E1590801DD6F6B
:1019F800F30EDA5D9E0EDB59000EDC59000E08016D
:101A0800DD59D8A00AEF0DF00CEF0DF01FEF0DF027
:101A1800070107017B51FF0A070107017B6F7BC79D
:101A2800BBFFD1EC43F0DEC87FF7DFC880F7E0C822
:101A380081F7E1C882F723EF0DF0000EBB6E0701B6
:101A480007018651D8B42BEF0DF02DEF0DF05AEFAA
:101A58000DF00701070185510701070183277E0E55
:101A68000701070183653BEF0DF03DEF0DF042EFF5
:101A78000DF007010701856956EF0DF00701070111
:101A8800836749EF0DF04BEF0DF056EF0DF00801AD
:101A9800DA6F010E07010701856F0801DA510701A6
:101AA8000701860783C7BEFF6BEF0DF0070107012B
:101AB8008751020AD8A463EF0DF065EF0DF069EFC6
:101AC8000DF084C7BEFF6BEF0DF0000EBE6E120066
:101AD80008010F6F000E080108010E6F08010F5171
:101AE8003DEF0EF0080108010D513A0AD8A47FEF26
:101AF8000DF081EF0DF0A0EF0DF007010701015186
:101B08000011D8A48AEF0DF08CEF0DF096EF0DF0D0
:101B180008010F6F020E070107012F6F08010F510F
:101B28009EEF0DF008010F6F010E070107012F6FDF
:101B380008010F514CEF0EF007010701003B0701A8
:101B4800013BF00E07010117070100510F0B0701B8
:101B58000113F00E070100170DC872F82DEC2DF0D7
:101B680008010F6F08010F510701070100134CEF1F
:101B78000EF0C2EF0DF0080108010E2B0101C80E8E
:101B8800080108010E25E96EEA6A0101010EEA2240
:101B9800EF50D8A4D2EF0DF0D4EF0DF0BFEF0DF059
:101BA8000101C80E080108010E25E96EEA6A010163
:101BB800010EEA2208010DC8EFFF0701070100071F
:101BC800D8A001070701070101510011D8A4EFEFC0
:101BD8000DF0F1EF0DF09EEF0DF0070107012F2B2F
:101BE8004CEF0EF0080108010D51690AD8B4FFEF57
:101BF8000DF001EF0EF006EF0EF0070107012F6957
:101C08009EEF0DF0070107012F2B4CEF0EF0080196
:101C180008010D51730AD8A414EF0EF016EF0EF058
:101C280020EF0EF008010F6F000E070107012F6F5C
:101C380008010F514CEF0EF007010701273B070180
:101C4800283BF00E07012817070127510F0B070142
:101C58002813F00E070127170DC872F82DEC2DF088
:101C680008010F6F08010F510701070127134CEFF7
:101C78000EF0070107012F51000A01E133D7010ACD
:101C880001E177D7030AAEE0010AC1E04CEF0EF09C
:101C98001200A1C768F8BEEC20F068C854F869C8FB
:101CA80055F80101000E08010801596F0101010EE4
:101CB80008015A6F3DEC37F01A0E08010801592740
:101CC800000E08015A230801080159510801545D02
:101CD800080108015A5108015559D8B076EF0EF09D
:101CE80078EF0EF07CEF0EF065EC3FF02DEF0FF083
:101CF80022EC2FF0E20E08010801576FFF0E0801D1
:101D0800586FA1C756F830EC42F00801546F000E26
:101D180008010801536F08015451130E0801080106
:101D2800536599EF0EF09BEF0EF09DEF0EF0D8EF94
:101D38000EF00401E30E080108015325E96EEA6A72
:101D48000401040EEA22EF5008010801586F0DEC57
:101D58003FF008010801576FA1C756F801EC15F0CC
:101D68000401E30E080108015325E96EEA6A04013B
:101D7800040EEA22EF5008010801646FE1EC3EF01E
:101D880008010801576FA1C756F801EC15F00801C2
:101D98000801532B130E080108015365D6EF0EF006
:101DA800D8EF0EF09DEF0EF00101000E08010801BA
:101DB800596F0101010E08015A6F3DEC37F0080117
:101DC8000801595108010801586F0DEC3FF008014E
:101DD8000801576FA1C756F801EC15F00101000E74
:101DE80008010801596F0101010E08015A6F3DEC05
:101DF80037F008010801595108010801646FE1EC46
:101E08003EF008010801576FA1C756F801EC15F01C
:101E18000801546F3A0E08010801576F0801545120
:101E2800A1C756F801EC15F00101000E08010801E0
:101E3800576F0101010E0801586FA1C756F845EC0C
:101E480042F0A1C768F8F6EC3BF065EC3FF016EC01
:101E580044F01200FC0E92160E01FE8B96928D92A3
:101E680036EF0FF00E010E01FDA13DEF0FF03FEF31
:101E78000FF036EF0FF00801096F000E060106019A
:101E8800D56F080109510601D581000E060106012A
:101E9800FC6F000E0601FD6F000E0E010E01E86FCB
:101EA800000E0E01E96FCD0E0E010E01EC6F0A0E49
:101EB8000E010E01ED6FCD0E0E010E01EA6F0A0E36
:101EC8000E01EB6FCE0E0E010E01E46F0A0E0E012D
:101ED800E56FCE0E0E010E01E26F0A0E0E01E36FE2
:101EE8000801096F000E08010801C06F08010951B7
:101EF80064EC44F00801096F0D0E0E010E01A06F8D
:101F08000801095100F00801096F320E0E010E0197
:101F1800A26F0801095100F00801096F120E0E01A5
:101F28000E01A46F0801095100F00801096F400E65
:101F38000E010E01A36F0801095100F00801096F95
:101F4800120E0E010E01A66F0801095100F00801DA
:101F5800096F0C0E0E010E01A76F0801095100F060
:101F68000801096FEE0E0E010E01AA6F0801095152
:101F780000F00801096F050E0E010E01AB6F080194
:101F8800095100F099C084FE00F09AC085FE00F067
:101F98009BC082FE00F09CC083FE00F09DC080FEC6
:101FA80000F09EC081FE00F0100E080108010B6FC2
:101FB800010E08010C6F0801096F100E08010801D5
:101FC8000A6F0801095199EC40F0720E08010801E6
:101FD8000B6F340E08010C6F0801096F140E08010D
:101FE80008010A6F0801095199EC40F0000E080138
:101FF80008010B6F000E08010C6F0801096F000E35
:10200800080108010A6F0801095199EC40F00E0116
:10201800DF851200F1C6A8F8F2C6A9F8F3C6AAF837
:10202800F4C6ABF8E0CEA2F8E1CEA3F8A9EF10F021
:10203800A0C8A6F8A1C8A7F8150E08010801A05D58
:10204800000E0801A159D8A02CEF10F02EEF10F0C7
:1020580035EF10F0140E08010801A66F000E0801F4
:10206800A76FA6C8C4F8A7C8C5F80801AC0E080130
:102078000801C26F0801080E0801C36F6DEC38F043
:1020880008010801A65108010801A05F080108011C
:10209800A75108010801A15B08010801A6A157EF93
:1020A80010F059EF10F069EF10F00801AC0E0801BC
:1020B8000801A625E96EEA6A0801080EEA22000E60
:1020C800EF6E08010801A64BA72B0801AC0E08010A
:1020D8000801A46F0801080E0801A56F9EEF10F013
:1020E8000801A4C8E9FF0801A5C8EAFF0801020E13
:1020F8000801A427000E0801A523EECFC0F8EDCFF4
:10210800C1F80801C05108010801A8270801C151F8
:1021180008010801A923000E08010801AA23000EDE
:1021280008010801AB23020E08010801A65F000E92
:102138000801A75B08010801A751A611D8A4A7EFB9
:1021480010F0A9EF10F074EF10F008010801A15188
:10215800A011D8A4B2EF10F0B4EF10F01CEF10F0FB
:10216800A2C8E0FEA3C8E1FE08010801A8510801C1
:102178000801AA2508010801A86F08010801A9514A
:1021880008010801AB210801A96F0801AA6BD8B0A2
:10219800AA2B0801AB6B080108EEAAF0EE50080163
:1021A8000801A827ED5008010801A9230801080122
:1021B800A81D08010801A06F08010801A91D080150
:1021C800A16FE7EF10F01200140E0801080158255E
:1021D800E96E000E080108015921EA6EEF50080166
:1021E800606F3F0E08016017180E0801602708018C
:1021F80060510801080158250801616FE86A080163
:1022080060BFE8680801080159210801626F61C8C8
:102218005EF862C85FF8140E080108015825E96ED7
:10222800000E080108015921EA6E080108015C51F5
:10223800EE2608015D51EE22000EEE22ED22ED524F
:10224800ED52B5EF11F008015AC8F6FF08015BC856
:10225800F7FF000EF86E5EC8E9FF5FC8EAFF0800E6
:10226800F5CFEFFF080108015A4B5B2B0801080165
:102278005E4B5F2B580E0801080158250801606F56
:10228800000E0801080159210801616F0801615118
:10229800080108015F1905E10801605108010801FA
:1022A8005E19D8A45AEF11F05CEF11F0B0EF11F0FD
:1022B800100E08010801582508010801836F000E57
:1022C8000801080159210801846F0C0E0801080152
:1022D800582508010801816F000E080108015921DD
:1022E8000801826F080E0801080158250801080135
:1022F8007F6F000E0801080159210801806F040E44
:10230800080108015825080108017D6F000E080121
:102318000801592108017E6F58C87BF859C87CF814
:10232800180E08010801582508010801796F000EE8
:1023380008010801592108017A6F80EC9BF0180EFA
:10234800080108015825080108015E6F000E080100
:102358000801592108015F6F080108015C07D8A02E
:102368005D07080108015D515C11D8A4BEEF11F0AA
:10237800C0EF11F027EF11F01200140E0801080148
:102388005825E96E000E080108015921EA6EEF5040
:102398000801606F3F0E08016017180E08016027DA
:1023A800080160510801080158250801616FE86AB1
:1023B800080160BFE8680801080159210801626F37
:1023C80061C85EF862C85FF8140E08010801582554
:1023D800E96E000E080108015921EA6E080108019A
:1023E8005C51EE2608015D51EE22000EEE22ED2230
:1023F800ED52ED5289EF12F05AC8E9FF5BC8EAFFC7
:102408005EC8E1FF5FC8E2FFEFCFE7FF0801080100
:102418005A4B5B2B080108015E4B5F2B580E0801D5
:10242800080158250801606F000E080108015921AC
:102438000801616F08016151080108015F1905E190
:1024480008016051080108015E19D8A42EEF12F0A6
:1024580030EF12F084EF12F0100E08010801582531
:1024680008010801836F000E0801080159210801BD
:10247800846F0C0E08010801582508010801816FB6
:10248800000E0801080159210801826F080E080191
:1024980008015825080108017F6F000E080108018E
:1024A80059210801806F040E080108015825080108
:1024B80008017D6F000E08010801592108017E6F8F
:1024C80058C87BF859C87CF8180E08010801582527
:1024D80008010801796F000E080108015921080157
:1024E8007A6F80EC9BF0180E080108015825080146
:1024F80008015E6F000E08010801592108015F6F8D
:10250800080108015C07D8A05D07080108015D51B2
:102518005C11D8A492EF12F094EF12F000EF12F0D1
:102528001200000E080108012D659DEF12F09FEFC3
:1025380012F0A1EF12F065EF13F02DC871F81DEC41
:102548002BF00BC00DF00CC00EF043EF13F0DCECD9
:1025580040F06CEC33F065EF13F06CEC33F065EFA2
:1025680013F008012E6F010E08010801736F0801AE
:102578002E5108012F6F110E08010801726F080112
:102588002F519FECA1F030502F10D8A4CEEF12F0AD
:10259800D0EF12F0D2EF12F0E5EF12F000EE29F0D2
:1025A80010EE07F0E652EE52ED50E518EFCFE8FFD7
:1025B800D8B4E718D8A4E3EF12F0E5EF12F0B5EFBE
:1025C80012F008012E6F080E176E08012E5165EFE4
:1025D80013F008012E6F010E08010801736F08013E
:1025E8002E5108012F6F110E08010801726F0801A2
:1025F8002F519FECA1F030502F10D8A406EF13F004
:1026080008EF13F00AEF13F01DEF13F000EE29F0B6
:1026180010EE07F0E652EE52ED50E518EFCFE8FF66
:10262800D8B4E718D8A41BEF13F01DEF13F0EDEFA3
:1026380012F008012E6F0C0E176E08012E5165EF6F
:1026480013F008012E6F0D0E176E08012E5165EF5D
:1026580013F008012E6F000E08010801736F0801BE
:102668002E5108012F6F140E08010801726F08011E
:102678002F519FECA1F06CEC33F065EF13F017507D
:10268800000A01E16AD7010A01E161D7030A01E101
:1026980064D7010A01E161D7060A01E15ED7030A9E
:1026A80001E15FD7010A01E15CD70F0AD2E0010A14
:1026B800D0E0020A8EE0070ACCE0020AC2E02DEF61
:1026C80013F012000801606F690E08010801646FB9
:1026D800080160518FEC3FF0080156515311541115
:1026E8005511D8A47AEF13F07CEF13F088EF13F0AC
:1026F8000801606F300E08010801646F080160511D
:102708008FEC3FF02CEF14F00801606F000E080109
:102718000801576F08016051070E08010801576545
:1027280098EF13F09AEF13F09CEF13F0C9EF13F042
:102738000801580E080108015725E96EEA6A0801E0
:10274800080EEA2253C864F8E1EC3EF0EF6E040E7E
:102758000801606FD8900801080156330801553305
:1027680008015433080153330801602FAEEF13F00A
:1027780008010801572B070E080108015765C7EF24
:1027880013F0C9EF13F09CEF13F00801606F080E07
:1027980008010801576F08016051080108015767CF
:1027A800D8EF13F0DAEF13F0DCEF13F001EF14F0C9
:1027B80057C860F8FF0E080160270801580E080185
:1027C8006025E96EEA6A0801080EEA22EF50300A2D
:1027D800D8B4F1EF13F0F3EF13F0F5EF13F001EFC6
:1027E80014F0080108015707080108015767FFEFAF
:1027F80013F001EF14F0DCEF13F00801080157673C
:1028080008EF14F00AEF14F00CEF14F02CEF14F0AA
:1028180057C860F8FF0E080160270801580E080124
:102828006025E96EEA6A0801080EEA22EF500801FD
:102838000801646F8FEC3FF0080108015707080191
:10284800080157672AEF14F02CEF14F00CEF14F07E
:102858000801606F730E08010801646F0801605178
:102868008FEC3FF01200140E08010801C46F000E2F
:102878000801C56F0801270E08010801C26F080189
:10288800080E0801C36F6DEC38F0080108012751E4
:10289800F00B400AD8B453EF14F055EF14F058EF8A
:1028A80014F0000E00EF15F01F0E080108012D1599
:1028B80008013B6FFF0E080108012E1508013C6F47
:1028C80008013C513B11D8B46CEF14F06EEF14F0D2
:1028D80071EF14F0000E00EF15F027C83BF80F0E4B
:1028E80008013B170801D8903B370801D8903B35C1
:1028F80006010601FA6F06010801FAC63FF8080149
:102908000801406B000E080108013D6F000E080128
:102918003E6FF0EC36F03DC825F83EC826F80601B3
:102928000801FAC67BF8080108017C6B64EC3CF0EE
:102938000801080126512511D8B4A5EF14F0A7EF16
:1029480014F0AAEF14F0000E00EF15F00801270E9E
:1029580008010801BA6F0801080E0801BB6F5FEC97
:102968002CF0080108011E511D11D8B4BEEF14F057
:10297800C0EF14F0D0EF14F01DC8E9FF1EC8EAFF3D
:10298800080137C8EEFF080138C8EEFF080139C84A
:10299800EEFF08013AC8EEFF1FC8E9FF20C8EAFFAA
:1029A800080133C8EEFF080134C8EEFF080135C836
:1029B800EEFF080136C8EEFF21C8E9FF22C8EAFF8A
:1029C800080130C8EFFF06010601FA5108010801A5
:1029D800295D08013B6F000E080108012A5908010A
:1029E8003C6F23C8E9FF24C8EAFF3BC8EEFF3CC898
:1029F800EDFF010E00EF15F01200000E08010801AE
:102A0800566509EF15F00BEF15F00DEF15F0C7EF50
:102A180015F056C871F81DEC2BF056C868F8BEECD6
:102A280020F068C858F869C859F8080108015951D0
:102A38005811D8A422EF15F024EF15F026EF15F061
:102A4800C7EF15F00801080158055911D8A42FEF50
:102A580015F031EF15F035EF15F056C868F8F6ECBB
:102A68003BF019B03AEF15F03CEF15F067EF15F0B1
:102A780000EE03F0EECF5AF8EDCF5BF801500801F5
:102A88005A5F025008015B5BD89008015B3108016E
:102A98005D6F08015A3108015C6F0801080158513F
:102AA80008015C5D08010801595108015D59D8A069
:102AB80060EF15F062EF15F067EF15F056C868F88B
:102AC800F6EC3BF01980010E08010801AA6F000E10
:102AD8000801AB6F08015A6F010E08010801A96FC0
:102AE80008015A510801570E08010801A76F08018B
:102AF800080E0801A86F1CC0A6F807C0A4F808C0F3
:102B0800A5F8A0EC23F000EE03F010EE07F0E62A9B
:102B1800000EE522E652EE52ED50E55C02E1EF5080
:102B2800E75CD8A09AEF15F09CEF15F0A0EF15F030
:102B380001C007F002C008F0080108015805591142
:102B4800D8A4A9EF15F0ABEF15F0B1EF15F056C802
:102B580068F8F6EC3BF0C5EF15F018BAB6EF15F0CB
:102B6800B8EF15F0C5EF15F0188A5AEC42F0060ECA
:102B780008010801A125136E000E08010801A22111
:102B8800146EC7EF15F0120006EE95F018EE0DF072
:102B9800140EEECFE6FFE82ECDEF15F00801216FF9
:102BA800140E08010801676F0801215108010D0E74
:102BB80008010801656F0801080E0801666F0EEC30
:102BC80018F00009D8A4EBEF15F0EDEF15F0EFEFD2
:102BD80015F08CEF16F0000E08010801676FFF0E64
:102BE8000801686F08010D0E08010801656F0801EA
:102BF800080E0801666F49EC29F008016651651155
:102C0800D8A409EF16F00BEF16F00FEF16F070ECE2
:102C180034F08CEF16F0B60E08010801676FFF0E4E
:102C28000801686F08010D0E08010801656F0801A9
:102C3800080E0801666F49EC29F008016651651114
:102C4800D8A429EF16F02BEF16F02FEF16F0CCECE6
:102C5800D3F08CEF16F09F0E08010801676FFF0E86
:102C68000801686F08010D0E08010801656F080169
:102C7800080E0801666F49EC29F0080166516511D4
:102C8800D8A449EF16F04BEF16F04FEF16F0A3EC6F
:102C98000BF08CEF16F0770E08010801676FFF0E36
:102CA8000801686F08010D0E08010801656F080129
:102CB800080E0801666F49EC29F008016651651194
:102CC800D8A469EF16F06BEF16F06FEF16F0C5ECAD
:102CD80029F08CEF16F00C0E08010801676FFF0E43
:102CE8000801686F08010D0E08010801656F0801E9
:102CF800080E0801666F49EC29F008016651651154
:102D0800D8A489EF16F08BEF16F08CEF16F0FF00C1
:102D18001200040E08010801C46F000E0801C56FF7
:102D28000801210E08010801C26F0801080E0801F8
:102D3800C36F6DEC38F0080108012151080A22110F
:102D4800D8A4A9EF16F0ABEF16F04DEF17F01FC897
:102D58003FF820C840F8140E080108013D6F000E26
:102D680008013E6FF0EC36F008013E513D11D8B431
:102D7800C0EF16F0C2EF16F0C4EF16F04DEF17F0E3
:102D88000801256F000E08010801216F080125516F
:102D9800080E080108012327080E0801080123610D
:102DA800D8EF16F0DAEF16F0E9EF16F0080108018F
:102DB800242B080108012467E4EF16F0E6EF16F06B
:102DC800E9EF16F008010801232BEBEF16F0CBEC26
:102DD8003DF00009D8B4F3EF16F0F5EF16F0EBEF7D
:102DE80016F0DD0E08010801AC6F0A0E0801AD6F80
:102DF8000BEC44F01FC8A3F820C8A4F80801256FFD
:102E0800010E08010801A26F080125511DC8A0F88C
:102E18001EC8A1F8CAEC18F0040E08010801C26F18
:102E2800000E0801C36F0801210E08010801C06FD8
:102E38000801080E0801C16FBBEC40F0FC0E080148
:102E480008011F2508010801B06FFF0E08010801DD
:102E580020210801B16FFF0E08010801AE6FFF0EB7
:102E68000801AF6FFF0E08010801AC6FFF0E0801E3
:102E7800AD6F3CECDDF041EF17F08EEC43F000094C
:102E8800D8B449EF17F04BEF17F041EF17F003EC08
:102E980039F0120027C838F828C839F867EC35F037
:102EA80008012D6F690E08010801646F08012D5192
:102EB8008FEC3FF0080108012A512911D8A467EFC7
:102EC80017F069EF17F075EF17F008012D6F300E46
:102ED80008010801646F08012D518FEC3FF003EFE2
:102EE80018F008012D6F000E080108012C6F080169
:102EF8002D51080108012B51080108012C5DD8A0AB
:102F080088EF17F08AEF17F08CEF17F0B4EF17F08F
:102F1800080108012C51080108012925E96E08015A
:102F2800000E080108012A21EA6EEF50300AD8B4D1
:102F3800A0EF17F0A2EF17F0A4EF17F0B4EF17F017
:102F4800080108012C2B080108012B510801080170
:102F58002C5DD8A0B2EF17F0B4EF17F08CEF17F094
:102F6800080108012B51080108012C5DD8A0BFEF0A
:102F780017F0C1EF17F0C3EF17F003EF18F00801CF
:102F880008012C51080108012925E96E0801000EE5
:102F9800080108012A21EA6EEF5008010801586F5C
:102FA8000DEC3FF008010801646F8FEC3FF0080159
:102FB80008012C51080108012925E96E0801000EB5
:102FC800080108012A21EA6EEF5008010801646F20
:102FD800E1EC3EF008010801646F8FEC3FF0080156
:102FE80008012C2B080108012B51080108012C5D50
:102FF800D8A001EF18F003EF18F0C3EF17F008019D
:103008002D6F730E08010801646F08012D518FECB4
:103018003FF0120008016B6F000E08010801696F8C
:1030280008016B5108016B6F000E080108016A6FF7
:1030380008016B5149EF18F00101000E0401040169
:10304800FF25E96EEA6A0101010EEA22EF50080144
:103058000801686F04010401FF2B08010801685189
:103068003A0AD8A43AEF18F03CEF18F03EEF18F0FF
:1030780053EF18F008016A3BF00E6A1768C872F837
:103088002DEC2DF0080108016A13C70E0401040194
:10309800FF6551EF18F053EF18F020EF18F0080112
:1030A8006AC86BF808016C6BFF0E080108016725F8
:1030B80008016D6F08016E6BFF0E08016E23080191
:1030C8006E51800A08016F6F08016B5108016D5D30
:1030D80008016C51800A08016F59D8B076EF18F0D2
:1030E80078EF18F081EF18F0080108016A5104011F
:1030F8000401FF27000EC9EF18F008016B6F000EDE
:1031080008010801696F08016B51AAEF18F0010165
:10311800000E04010401FF25E96EEA6A0101010EAF
:10312800EA22080108016951080108016525E16ED4
:103138000801000E080108016621E26EEFCFE7FFE3
:1031480004010401FF2B08010801692B080108018B
:103158006A5108010801695DD8A0B5EF18F0B7EF0A
:1031680018F08BEF18F0080108016A5108010801EE
:103178006525E96E0801000E080108016621EA6E5E
:10318800000EEF6E010EC9EF18F012000801B96FBA
:10319800140E06010601FA6F0801B9510801B96F4A
:1031A800450E08010801A56F0801B9510801B96F5A
:1031B800000E08010801A66F0801B951140E080194
:1031C8000801A32508010801A76F000E08010801DE
:1031D800A4210801A86F07010701204B212B20C754
:1031E800A9F821C7AAF8000E08010801AB6F000E64
:1031F8000801AC6F0801B96F640E08010801AD6FD2
:103208000801B951A2C8AEF8000E08010801AF6F55
:10321800000E0801B06F6CC0B1F86DC0B2F86EC096
:10322800B3F86FC0B4F8A0C8E9FFA1C8EAFF080165
:10323800EECFB5F80801EECFB6F80801EECFB7F833
:103248000801EECFB8F80801A50E08010801BA6F09
:103258000801080E0801BB6F5FEC2CF0140E080182
:103268000801BC6F000E0801BD6F0801A50E08011A
:103278000801BA6F0801080E0801BB6FF2EC1EF0D6
:10328800BAC8AFF8BBC8B0F8140E08010801A325E6
:1032980008010801BD6F000E08010801A4210801FA
:1032A800BE6F0801B96F000E08010801BC6F080164
:1032B800B951040E08010801A02508010801BA6FD8
:1032C800000E08010801A1210801BB6FC4EC33F00E
:1032D800140E08010801C26F000E0801C36F08012F
:1032E800A50E08010801C06F0801080E0801C16F8A
:1032F800BBEC40F080EF19F012004CC850F84DC8F4
:1033080051F8080150C8F6FF080151C8F7FF000E30
:10331800F86E08000801F5CF4FF808010801504B76
:10332800512B080108014F51D8B49DEF19F09FEFB8
:1033380019F0CBEF19F0080108014F512E0AD8B443
:10334800A8EF19F0AAEF19F0CBEF19F0080108015E
:103358004F512F0AD8B4B3EF19F0B5EF19F0CBEFEE
:1033680019F0080108014F512C0AD8B4BEEF19F022
:10337800C0EF19F0CBEF19F0080108014F513E0AD0
:10338800D8A4C9EF19F0CBEF19F085EF19F00801AF
:1033980008014C5108010801505D0801526F0801ED
:1033A8005205080108014E6F4EC853F867EC3DF00E
:1033B800080108014EC855F808010801566B4CC8A9
:1033C80053F84DC854F853EC31F0010E08010801C8
:1033D8005327000E0801542308010801535108011E
:1033E80008014C27080108015451080108014D2320
:1033F800080108014F51D8B404EF1AF006EF1AF08B
:1034080027EF1AF0080108014F512F0AD8B40FEF1F
:103418001AF011EF1AF027EF1AF0080108014F51BE
:103428002C0AD8B41AEF1AF01CEF1AF027EF1AF08A
:10343800080108014F513E0AD8A425EF1AF027EFDA
:103448001AF029EF1AF02BEF1AF085EF19F008019E
:10345800526F000E08010801536F0801525167ECC2
:103468003DF012004CC850F84DC851F850C8E9FF5B
:1034780051C8EAFFEF50080108014F6F0801080121
:10348800504B512B080108014F51D8B44EEF1AF098
:1034980050EF1AF07CEF1AF0080108014F512E0A7C
:1034A800D8B459EF1AF05BEF1AF07CEF1AF0080164
:1034B80008014F512F0AD8B464EF1AF066EF1AF0DA
:1034C8007CEF1AF0080108014F512C0AD8B46FEFAD
:1034D8001AF071EF1AF07CEF1AF0080108014F5149
:1034E8003E0AD8A47AEF1AF07CEF1AF03AEF1AF0F5
:1034F800080108014C5108010801505D0801526F8C
:1035080008015205080108014E6F4EC853F867ECD0
:103518003DF0080108014EC855F808010801566B2E
:103528004CC853F84DC854F8F9EC30F0010E0801B6
:1035380008015327000E08015423080108015351BC
:10354800080108014C270801080154510801080125
:103558004D23080108014F51D8B4B5EF1AF0B7EF61
:103568001AF0D8EF1AF0080108014F512F0AD8B401
:10357800C0EF1AF0C2EF1AF0D8EF1AF008010801EC
:103588004F512C0AD8B4CBEF1AF0CDEF1AF0D8EF80
:103598001AF0080108014F513E0AD8A4D6EF1AF0D4
:1035A800D8EF1AF0DAEF1AF0DCEF1AF03AEF1AF067
:1035B8000801526F000E08010801536F08015251AB
:1035C80067EC3DF012004CC8E9FF4DC8EAFFEECFAA
:1035D80050F8EECF51F8EECF52F8EECF53F8040181
:1035E8000401DC510801531911E104010401DB5104
:1035F800080152190BE104010401DA5108015119BB
:1036080005E104010401D95108015019D8B40FEF9C
:103618001BF011EF1BF083EF1BF004010401DC51D8
:1036280000010001771914E104010401DB510001D4
:10363800000176190DE104010401DA5100010001CD
:10364800751906E104010401D9510001000174193A
:10365800D8A431EF1BF033EF1BF094EF1BF04CC8EC
:10366800E9FF4DC8EAFFEECF50F8EECF51F8EECFA4
:1036780052F8EECF53F8000100016C5108015019BF
:103688000801546F000100016D510801511908012A
:10369800556F000100016E51080152190801566F5B
:1036A800000100016F51080153190801576F00010B
:1036B80000017051080154150801586F00010001FC
:1036C8007151080155150801596F00010001725127
:1036D8000801561508015A6F0001000173510801CD
:1036E800571508015B6F08015B51581159115A11A0
:1036F800D8B481EF1BF083EF1BF094EF1BF004EEBE
:10370800DDF008014EC8E1FF08014FC8E2FF060ED0
:10371800EECFE6FFE82E8CEF1BF0010E97EF1BF0C3
:10372800000E97EF1BF012009AEF1BF0CBEC3DF068
:103738000009D8B4A2EF1BF0A4EF1BF09AEF1BF01E
:10374800CF0E08010801AC6F0A0E0801AD6F0BEC33
:1037580044F078C8E9FF79C8EAFF010EEE6E000E62
:10376800ED6E020E080108017825E96E000E0801C9
:1037780008017921EA6E000EEE6E080EED6E040E59
:10378800080108017825E96E000E08010801792171
:10379800EA6E060EEF6E050E080108017825E96E3F
:1037A800000E080108017921EA6E040EEF6E060E7C
:1037B80008010801B06F000E0801B16F990E0801E9
:1037C8007A6F000E7B6F7AC8AEF87BC8AFF8080E28
:1037D80008010801782508010801AC6F000E0801EE
:1037E800080179210801AD6F58EC3AF00E0E080176
:1037F80008017825E96E000E080108017921EA6EB2
:1038080000016CC0EEFF00016DC0EEFF00016EC04C
:10381800EEFF00016FC0EEFF78C87CF879C87DF82C
:103828009EEC30F01C0E08010801BD6F000E080167
:10383800BE6F08017A6F060E08010801BC6F080107
:103848007A51120E08010801782508010801BA6F9B
:10385800000E0801080179210801BB6FC4EC33F0A0
:103868001C0E08010801C26F000E0801C36F78C85A
:10387800C0F879C8C1F8BBEC40F003EC39F0010E90
:1038880046EF1CF0120008011B6F000E080108012A
:10389800186F08011B510801080116AF56EF1CF0FC
:1038A80058EF1CF067EF1CF008010801156D0801BE
:1038B800161FD8B0162B08011B6F010E080108014E
:1038C800186F08011B510801080114AF6EEF1CF0B6
:1038D80070EF1CF07BEF1CF008010801136D080164
:1038E800141FD8B0142B010E08010801181B000E74
:1038F80008010801196F000E08011A6F0801080174
:1039080016511511D8B48BEF1CF08DEF1CF0DCEFBD
:103918001CF008011B6F010E08010801176F080150
:103928001B51A0EF1CF00801D890080115370801B9
:10393800163708010801172B0801080116AFA7EF71
:103948001CF0A9EF1CF097EF1CF00801D8900801B3
:10395800193708011A37080108011551080108012B
:10396800135D080108011651080108011459D8A06F
:10397800C0EF1CF0C2EF1CF0D1EF1CF008010801E9
:10398800155108010801135F0801080116510801C3
:103998000801145B0801080119810801D890080181
:1039A80016330801153308010801172FA9EF1CF079
:1039B800080108011851D8B4E4EF1CF0E6EF1CF038
:1039C800EDEF1CF008010801196D08011A1FD8B0A5
:1039D8001A2B19C813F81AC814F8F3EF1CF01200C0
:1039E800990E08010801566FFF0E0801576F4CEC3D
:1039F80027F00009D8A403EF1DF005EF1DF007EF2D
:103A08001DF0A0EF1DF0C9EC26F065C8F8F566C8F2
:103A1800F9F567C8FAF568C8FBF5CF0E0801080183
:103A2800566FFF0E0801576F4CEC27F00009D8A419
:103A380020EF1DF022EF1DF024EF1DF0A0EF1DF088
:103A4800C9EC26F065C814F766C815F78C0E08018E
:103A58000801566FFF0E0801576F4CEC27F000095C
:103A6800D8A439EF1DF03BEF1DF03DEF1DF0A0EF9E
:103A78001DF0C9EC26F065C818F766C819F76DEC93
:103A880044F00801556F000E08010801536F080142
:103A98005551090E08010801536555EF1DF057EF00
:103AA8001DF059EF1DF09EEF1DF00801556F020E35
:103AB80008010801566F0801555177EC44F039ECBC
:103AC8002AF00801556F000E08010801546F08011B
:103AD80055510A0E08010801546575EF1DF077EF7E
:103AE8001DF079EF1DF091EF1DF00E0E0801556FD6
:103AF800850EE82E7DEF1DF0552F7DEF1DF000D0CF
:103B080008010801542B0A0E0801080154658FEFBB
:103B18001DF091EF1DF079EF1DF008010801532BFE
:103B2800090E0801080153659CEF1DF09EEF1DF07A
:103B380059EF1DF05FEC44F01200000E0801080177
:103B4800006F000E0801016F000E0801026F000EE1
:103B58000801036F000E0E010E01B66F000E0E0174
:103B68000E01B76F000E926E000E936E000E946EEB
:103B7800000E956E000E966E000E976E000E986EF3
:103B8800000E806E000E816E000E826E000E836E37
:103B9800000E846E000E856E0801046F400E9B6E49
:103BA800080104510801046F0F0EC16E0801045189
:103BB80042EC44F09CEC43F002EC3DF069EC44F03C
:103BC8005FEC01F0FEECE7F080EC43F0D1EC3AF06A
:103BD800420E080108010B6F370E08010C6F08012F
:103BE800046F140E080108010A6F0801045199ECCA
:103BF80040F0CBECCCF07DEC44F0C4EC43F0080191
:103C08000801005108010801A15D0801046F0801BD
:103C18000801015108010801A2590801056F0801AE
:103C28000801025108010801A3590801066F08019B
:103C38000801035108010801A4590801076FF20E91
:103C4800045D9E0E0559000E0659000E080107591D
:103C5800D8A031EF1EF033EF1EF03DEF1EF0C4EC9C
:103C680043F0A1C800F8A2C801F8A3C802F8A4C884
:103C780003F81AECC7F050ECE2F0EFECC4F019ECE2
:103C8800B6F046EC26F00400FDEF1DF014EF00F04E
:103C980012C817F811C816F882EC2FF008010801AD
:103CA800136F0701070113675CEF1EF05EEF1EF04C
:103CB80066EF1EF00801146F000E070107013B6F45
:103CC80008011451080108011351FE0AD8A46FEF26
:103CD8001EF071EF1EF07AEF1EF0FE0E08010801CB
:103CE800116FFF0E0801126FF1EF1EF008010801B5
:103CF8001329D8A482EF1EF084EF1EF08BEF1EF07C
:103D080008010801116908011269F1EF1EF00701A5
:103D180007011151040AD8A494EF1EF096EF1EF083
:103D2800A2EF1EF007013B3BF00E3B170801146F92
:103D3800000E07010701116F08011451080108015D
:103D48001351D8B4AAEF1EF0ACEF1EF0C1EF1EF06D
:103D580011C714F8010E0801156F0801142BB8EFEC
:103D68001EF0D890080115370801142FB5EF1EF082
:103D780008011551070107013B1307010701132B20
:103D880007010701112B080E070107011361CFEF87
:103D98001EF0D1EF1EF0D8EF1EF0080108011169DE
:103DA80008011269F1EF1EF00801146F000E0701F7
:103DB8000701136F080114510801146F000E070161
:103DC8000701116F08011451070108013BC711F8D9
:103DD80008010801126BF1EF1EF01200D8900801DB
:103DE8000801BD3108010801BF6F08010801BC3195
:103DF8000801BE6FBAC8C0F8BBC8C1F8000E0801F8
:103E08000801C26F000E0801C36F000E0801C46FDD
:103E1800000E0801C56F34EF1FF00801C0C8E9FFA4
:103E28000801C1C8EAFF0801020E0801C027000EF8
:103E38000801C123EECFC6F8EDCFC7F80801C65177
:103E480008010801C2270801C75108010801C32356
:103E5800000E08010801C423000E08010801C5234B
:103E680008010801BE07D8A0BF070801BE29D8B4B9
:103E7800BF29D8A442EF1FF044EF1FF011EF1FF045
:103E880008010801BCA14BEF1FF04DEF1FF060EFD8
:103E98001FF0C0C8E9FFC1C8EAFFEF500801C66FAC
:103EA8000801C65108010801C227000E0801C323F2
:103EB8000801C4230801C52308010801C2510801EB
:103EC8000801C42508010801C26F08010801C3518F
:103ED80008010801C5210801C36F0801C46BD8B0E7
:103EE800C42B0801C56B080108EEC4F0EE500801A8
:103EF8000801C227ED5008010801C3230801080181
:103F0800C21D08010801BA6F08010801C31D080194
:103F1800BB6F8FEF1FF01200000E08010801376F0A
:103F2800000E0801386F000E0801396F000E0801F5
:103F38003A6F08013551321133113411D8B4A7EF53
:103F48001FF0A9EF1FF01CEF20F008013B6F010ED6
:103F580008010801366F08013B51C0EF1FF0080146
:103F6800D89008013237080133370801343708017F
:103F7800353708010801362B0801080135AFC7EFAE
:103F88001FF0C9EF1FF0B3EF1FF00801D890080128
:103F98003737080138370801393708013A37080137
:103FA80008013251080108012E5D0801080133514A
:103FB800080108012F5908010801345108010801B6
:103FC8003059080108013551080108013159D8A0B4
:103FD800F0EF1FF0F2EF1FF00DEF20F008010801DD
:103FE8003251080108012E5F080108013351080108
:103FF80008012F5B08010801345108010801305BF2
:1040080008010801355108010801315B0801080160
:1040180037810801D8900801353308013433080185
:1040280033330801323308010801362FC9EF1FF076
:1040380037C82EF838C82FF839C830F83AC831F8D8
:1040480026EF20F0120007010701A529D8A42FEFB9
:1040580020F031EF20F056EF20F0FEC653F8FFC6EF
:1040680054F8FEC651F8FFC652F80801336F040E23
:1040780008010801506F08013351630E0801346FBD
:10408800060E356F080134C84CF8080135C84DF8DC
:10409800080108014E6B08014F6B22ECD7F00701AD
:1040A8000701A56F07010701A529D8A45EEF20F035
:1040B80060EF20F062EF20F0BDEF20F0A5C74CF8CC
:1040C80093EC39F008014D514C11D8A46EEF20F053
:1040D80070EF20F072EF20F0BDEF20F0DEEC43F03F
:1040E80036C82FF837C830F82FC859F830C85AF8EA
:1040F8003DEC37F059C82DF85AC82EF8000E0801C3
:104108000801316F000E0801326FA3EF20F008019B
:1041180008013151080108012F25E96E080108013D
:104128003251080108013021EA6EEF5008010801F8
:10413800536F67EC3DF008010801314B322B080141
:1041480008013251800A0801336F08012D51080116
:104158000801315D080108012E51800A0801335910
:10416800D8A0B9EF20F0BBEF20F08BEF20F053EC94
:1041780021F01200000E080108016865C6EF20F062
:10418800C8EF20F0D1EF20F0000E08010801686F99
:10419800000E0801696F52EF21F068C871F81DEC34
:1041A8002BF017C06AF8080108016A51070AD8B449
:1041B800E0EF20F0E2EF20F0F6EF20F00801080130
:1041C8006A510B0AD8B4EBEF20F0EDEF20F0F6EFD0
:1041D80020F0000E08010801686F000E0801696FE1
:1041E80052EF21F000EE09F010EE07F0E652EE5221
:1041F800ED50E55C02E1EF50E75CD8A006EF21F056
:1042080008EF21F039EF21F000EE07F0EECF6BF860
:10421800EDCF6CF8095008016B5F0A5008016C5B20
:1042280000EE03F0EECF6DF8EDCF6EF80150080107
:104238006D5F025008016E5BFF0E08016D250801D5
:104248006F6FFF0E08016E210801706F08016B5136
:1042580008016F5D08010801686F08016C510801C9
:1042680070590801696F52EF21F000EE09F0EECFA6
:104278006BF8EDCF6CF8075008016B5F0850080128
:104288006C5BFF0E08016B2508010801686FFF0EC3
:1042980008016C210801696F52EF21F01200070133
:1042A80007010D51170D0201000EF3240801080142
:1042B8004E6F08014F6B0201020E08014F23080ED2
:1042C80006010601BC25080108014C6F000E060115
:1042D8000601BD2108014D6F0C0E080108014E258D
:1042E800E96E000E080108014F21EA6E0801EECFC1
:1042F800BCF80801EDCFBDF82FEC43F0BCC850F86E
:10430800BDC851F80A0E080108014E25E96E000ED5
:10431800080108014F21EA6E0801EECFBCF8080138
:10432800EDCFBDF82FEC43F0BCC852F8BDC853F828
:104338004CC8BCF84DC8BDF82FEC43F0BCC854F8C5
:10434800BDC855F8000E08010801566F000E080197
:10435800576FDD0E08010801AC6F0A0E0801AD6F3A
:104368000BEC44F04CC8A3F84DC8A4F80801586FEA
:10437800110E08010801A26F080158514EC8A0F893
:104388004FC8A1F8CAEC18F0080E08010801C26F5E
:10439800000E0801C36F0801500E08010801C06F24
:1043A8000801080E0801C16FBBEC40F003EC39F0BE
:1043B800000E06010601BC6F000E0601BD6F070165
:1043C8000701A069120070EF22F06DC8B0F86EC83E
:1043D800B1F86BC8AEF86CC8AFF868C8ACF869C873
:1043E800ADF858EC3AF07AEF22F008010801682994
:1043F800D8B46929D8B403EF22F005EF22F00BEF07
:1044080022F068C8ACF869C8ADF80BEC44F0100E9F
:10441800080108016F6F000E0801706F63EF22F04A
:10442800080108016F51080108016D5D08010801C4
:104438007051080108016E59D8B025EF22F027EF16
:1044480022F02BEF22F06DC86FF86EC870F86FC8B5
:10445800B0F870C8B1F86BC8AEF86CC8AFF808010E
:10446800710E08010801AC6F0801080E0801AD6F54
:1044780058EC3AF06FC8C2F870C8C3F80801710E5A
:1044880008010801C06F0801080E0801C16FBBECE4
:1044980040F0080108016F51080108016B27000E60
:1044A800080108016C23080108016F51080108017F
:1044B8006D5F080108017051080108016E5B080171
:1044C80008016E516D11D8A46CEF22F06EEF22F046
:1044D80014EF22F07AEF22F0080108016A51000A6D
:1044E80084E0010A01E171D77AEF22F01200080195
:1044F800776F000E08010801766F080177510E0EDC
:104508000801080176658BEF22F08DEF22F08FEF1E
:1045180022F007EF23F0010E070107018C150801AF
:10452800776F000E070107018D150801786F000EDF
:10453800070107018E150801796F000E07010701B1
:104548008F1508017A6F08017751000808017B6F01
:10455800000E0801785508017C6F000E0801795596
:1045680008017D6F000E08017A5508017E6F010E63
:1045780008017B1508017F6F000E08017C150801F2
:10458800806F000E08017D150801816FD00E0801AB
:104598007E150801826F07018CC783F807018DC754
:1045A80084F807018EC785F807018FC786F8D89069
:1045B8000801863385338433833308017F5108012A
:1045C8008319070107018C6F0801805108018419BC
:1045D80007018D6F080181510801851907018E6F48
:1045E800080182510801861907018F6F0801080127
:1045F800762B0E0E08010801766505EF23F007EF0C
:1046080023F08FEF22F08CC774F88DC775F80DEF83
:1046180023F01200010E08010801566F000E080170
:10462800576F0801080162690801080163690801F8
:1046380008016469080108016569080108016669DB
:104648000801080167694CC84EF84DC84FF84CC8B6
:10465800E9FF4DC8EAFFEECF6CF8EECF6DF8EECF6C
:104668006EF8EECF6FF8000100016C5108016C196B
:104678000801706F000100016D5108016D190801F2
:10468800716F000100016E5108016E190801726F07
:10469800000100016F5108016F190801736F0001D3
:1046A80000017051080170150801746F00010001C4
:1046B8007151080171150801756F000100017251EF
:1046C800080172150801766F000100017351080195
:1046D80073150801776F08017751741175117611F8
:1046E800D8B479EF23F07BEF23F084EF23F00001B7
:1046F800740E080108014E6F0001000E08014F6F8B
:104708004EC8E9FF4FC8EAFF0801EECF68F8080174
:10471800EECF69F80801EECF6AF80801EECF6BF822
:104728000801500E08010801786F0801080E0801F9
:10473800796F98EC1BF0120022EF24F0D2EF23F0EF
:10474800AAC8B0F8ABC8B1F8A7C8AEF8A8C8AFF8FF
:10475800A4C8ACF8A5C8ADF858EC3AF0DBEF23F0E4
:1047680008010801A429D8B4A529D8B4BEEF23F0BC
:10477800C0EF23F0C6EF23F0A4C8ACF8A5C8ADF885
:104788000BEC44F0AAC8C2F8ABC8C3F8A7C8C0F875
:10479800A8C8C1F8BBEC40F0DBEF23F00801080122
:1047A800A651000ADDE0010ACBE0DBEF23F02CEF95
:1047B80024F019EF24F008010801A729D8B4A82982
:1047C800D8B4E9EF23F0EBEF23F0F1EF23F0A7C81B
:1047D800ACF8A8C8ADF82CEC44F0AAC8C4F8ABC82B
:1047E800C5F8A4C8C2F8A5C8C3F86DEC38F0DBEF6B
:1047F80023F0AAC8B0F8ABC8B1F8A7C8AEF8A8C8E3
:10480800AFF8A4C8ACF8A5C8ADF83CECDDF00DEFE6
:1048180024F08EEC43F00009D8B415EF24F017EF1C
:1048280024F00DEF24F0DBEF23F008010801A65176
:10483800000ADFE0010ABFE0DBEF23F0080108010E
:10484800A951000AB6E0010A01E178D72CEF24F05B
:1048580012002FEF24F0C5CF2CF81F0E08012C17DB
:104868002CC82DF808012E6B000EC7B4010E0801E4
:104878002D13000E2E1308012E512D11D8A447EF29
:1048880024F049EF24F02FEF24F0C5804CEF24F0FA
:10489800C5B051EF24F053EF24F04CEF24F0A1A65B
:1048A80058EF24F05AEF24F05CEF24F0B6EF24F030
:1048B80029C82FF819EC3AF00009D8B466EF24F0AB
:1048C80068EF24F06BEF24F0C584B6EF24F0C5BC84
:1048D80070EF24F072EF24F09EEF24F02AC82FF82E
:1048E80019EC3AF00009D8B47CEF24F07EEF24F0FC
:1048F80081EF24F0C584B6EF24F0C5BC86EF24F020
:1049080088EF24F099EF24F02BC82FF819EC3AF02F
:104918000009D8B492EF24F094EF24F097EF24F034
:10492800C584B6EF24F09CEF24F0C584B6EF24F0DC
:10493800A1EF24F0C584B6EF24F0C584A4EF24F0D9
:10494800C5B4A9EF24F0ABEF24F0A4EF24F0A1A69E
:10495800B0EF24F0B2EF24F0B4EF24F0B6EF24F077
:10496800B6EF24F0120007010701A451070107015F
:104978009F63C1EF24F0C3EF24F0C5EF24F03EEFAE
:1049880025F0070107019F51FE0AD8B4CEEF24F0A5
:10499800D0EF24F019EF25F0270E08010801AA6FBF
:1049A800000E0801AB6F0801A06F010E0801080195
:1049B800A96F0801A0511D0E08010801A76F000E7C
:1049C8000801A86F070107019F511C0DF3CFA1F83B
:1049D8001B0E0801A1270401BD0E0801A125E96EDF
:1049E800EA6A0401040EEA22EF5008010801A66FE2
:1049F800070107019F511C0D0401BD0EF324E96E48
:104A0800EA6A0401040EEA22EECFA2F8EDCFA3F879
:104A1800D90E0801A22508010801A46FFF0E08019C
:104A2800A3210801A56FA0EC23F0A4C79FF7270EC8
:104A380008010801AA6F000E0801AB6F1CC0A9F895
:104A4800D90E012408010801A76FFF0E02200801F2
:104A5800A86F0801A06F010E08010801A66F0801E0
:104A6800A0511D0E08010801A46F000E0801A56FD2
:104A7800A0EC23F012000701D89033370801080191
:104A8800F051D8B44AEF25F04CEF25F06FEF25F040
:104A980007010701262B070107012651030AD8A49D
:104AA80058EF25F05AEF25F060EF25F0070E0701C3
:104AB800070133136DEF25F0030E07010701266583
:104AC80068EF25F06AEF25F06DEF25F00701070183
:104AD800338177EF25F00801F16F000E0701070118
:104AE800266F0801F1510701D890393707010701EE
:104AF8003F2B0701070133AF84EF25F086EF25F040
:104B08008BEF25F00701070139818BEF25F00701AD
:104B180007013F51080AD8A494EF25F096EF25F035
:104B2800C2EF25F00801F16F000E070107013F6F82
:104B38000801F151B30E06010601D825E96E020EEF
:104B480006010601D921EA6E070139C7EFFF060100
:104B58000601D84BD92B06010601D951020AD811F2
:104B6800D8A4B9EF25F0BBEF25F0C2EF25F0000E71
:104B780006010601D86F000E0601D96F1200D9CEC2
:104B8800A4F8EECEA2F8EFCEA3F808010801A451CC
:104B98000E010E01D963D3EF25F0D5EF25F0C3EF51
:104BA80025F0ECCEA4F8EDCEA5F808010801A25135
:104BB80008010801A45D08010801A35108010801C2
:104BC800A559D8B0EAEF25F0ECEF25F00BEF26F069
:104BD8000801A2C8A6F80801A3C8A7F80801080197
:104BE800A4510801A65F08010801A5510801A75BA7
:104BF8000801A651CD0808010801A06F0801A751B6
:104C0800D8A0E82A0A080801A16F45EF26F0080194
:104C18000801A55108010801A31906E108010801C6
:104C2800A45108010801A219D8A41DEF26F01FEF0E
:104C380026F028EF26F0CD0E08010801A06F0A0E15
:104C48000801A16F45EF26F00801A4C8A6F80801DD
:104C5800A5C8A7F808010801A2510801A65F080124
:104C68000801A3510801A75BFF0E0801A62508014A
:104C78000801A06FFF0E0801A7210801A16F45EFE9
:104C880026F01200BFEF26F04A0E08010801536F04
:104C9800A50E0801546F4A0E08010801516FA50EB0
:104CA8000801526F0801096F040E08010801506FCE
:104CB80008010951000E080108014C6F000E080197
:104CC8004D6F000E08014E6F000E08014F6F22EC69
:104CD800D7F006010601E66F06010601E629D8A409
:104CE80078EF26F07AEF26F07CEF26F0C8EF26F072
:104CF8000801096F010E070107013E6F08010951FC
:104D0800C8EF26F0E6C64CF8D9EC39F008014D5149
:104D18004C11D8A492EF26F094EF26F096EF26F0E7
:104D2800C8EF26F065EC3FF0A9EF26F00801080E61
:104D3800080108014D6F0801080E08014E6F35EC97
:104D48003DF008C864F88FEC3FF0E6C64CF8D9ECA3
:104D580039F008014D514C11D8A4B5EF26F0B7EF42
:104D680026F09AEF26F08FEC41F0C8EC15F065ECD0
:104D78003FF0C8EF26F0070107013E51000A84E022
:104D8800010AC0E0C8EF26F01200000E0801080171
:104D98006D6F000E08016E6F000E08016F6F000E38
:104DA8000801706F77EC41F00009D8A4DEEF26F017
:104DB800E0EF26F0EFEF26F0000E08010801656F1E
:104DC800000E0801666F000E0801676F000E0801EB
:104DD800686F4BEF27F004010401FF2B37EF27F032
:104DE8000101000E04010401FF25E96EEA6A0101D0
:104DF800010EEA22EF500801716F08017151080194
:104E08000801696F08016A6B08016B6B08016C6B1C
:104E180004010401FF2B08016951730A6A116B111F
:104E28006C11D8A41AEF27F01CEF27F01EEF27F01B
:104E380041EF27F00801040ED89008016D370801EA
:104E48006E3708016F3708017037E82E20EF27F01A
:104E580069C872F82DEC2DF00801716F08017151C5
:104E6800080108016D13C70E04010401FF653FEF37
:104E780027F041EF27F0F4EF26F06DC865F86EC80B
:104E880066F86FC867F870C868F84BEF27F012002B
:104E98002DC7FFF4BEEF27F00801646F0C0E080160
:104EA8000801676F080164510801580E08010801DC
:104EB800656F0801080E0801666F0EEC18F000090E
:104EC800D8A469EF27F06BEF27F06EEF27F0000EFC
:104ED800CBEF27F00801580E08010801676F080199
:104EE800080E0801686F56C865F857C866F849EC97
:104EF80029F0080166516511D8A485EF27F087EFDE
:104F080027F08AEF27F0010ECBEF27F077EC41F07E
:104F18000009D8B492EF27F094EF27F098EF27F024
:104F2800C9EC26F0A9EF27F00801646F000E08010C
:104F38000801676F08016451000E08010801656FD8
:104F4800000E0801666F0EEC18F00101000E040156
:104F58000401FF25E96EEA6A0101010EEA22730ED7
:104F6800EF62B9EF27F0BBEF27F0BEEF27F0000E96
:104F7800CBEF27F0C70E04010401FF65C6EF27F049
:104F8800C8EF27F050EF27F0000ECBEF27F0120004
:104F980058C8E9FF59C8EAFF010EEE6E230EEE6EFF
:104FA800450EEE6E670EED6EED52ED52040E0801E1
:104FB80008015825E96E000E080108015921EA6E1A
:104FC800890EEE6EAB0EEE6ECD0EEE6EEF0EED6E42
:104FD800ED52ED52080E080108015825E96E000E41
:104FE800080108015921EA6EFE0EEE6EDC0EEE6E27
:104FF800BA0EEE6E980EED6EED52ED520C0E0801E3
:1050080008015825E96E000E080108015921EA6EC9
:10501800760EEE6E540EEE6E320EEE6E100EED6ED5
:10502800ED52ED52100E080108015825E96E000EE8
:10503800080108015921EA6EF00EEE6EE10EEE6EDF
:10504800D20EEE6EC30EED6EED52ED52140E080147
:1050580008015825E96E000E080108015921EA6E79
:10506800000EEE6E000EEE6E000EEE6E000EED6E91
:10507800ED52ED52580E080108015825E96E000E50
:10508800080108015921EA6E010EEF6E12000DC8E1
:1050980013F894EC2DF013C810F814C811F808018F
:1050A800080111511011D8A45CEF28F05EEF28F028
:1050B80061EF28F0000EC9EF28F00DC871F81DEC5B
:1050C8002BF0080108010F510E11D8B46EEF28F02B
:1050D80070EF28F08BEF28F0010E08010801AA6F85
:1050E800000E0801AB6F1CC0A9F80DC0A7F80EC0D0
:1050F800A8F80801126F010E08010801A66F08013F
:1051080012510EC8A4F80FC8A5F8A0EC23F000EEC1
:105118000DF0EE2A000EED2210EE05F0E652EE52EA
:10512800ED50E55C02E1EF50E75CD8B09EEF28F067
:10513800A0EF28F0A4EF28F003C00DF004C00EF093
:105148000801080110051111D8A4ADEF28F0AFEF40
:1051580028F0B2EF28F01984C6EF28F018BAB7EF94
:1051680028F0B9EF28F0C6EF28F0188A5AEC42F078
:105178001F0E08010801A125136E000E0801080181
:10518800A221146E010EC9EF28F012000094000E3F
:10519800070107010E6F009253C8E9FF54C8EAFFE0
:1051A800EF5007010701126FB180DBEF28F000A272
:1051B800E0EF28F0E2EF28F0DBEF28F09D92010EF7
:1051C80008010801556F000E0801566F25EF29F0F8
:1051D800080108015551080108015325E96E080125
:1051E80008015651080108015421EA6E010EEF62C8
:1051F80000EF29F002EF29F005EF29F0008421EFF4
:1052080029F00092080108015551080108015325A9
:10521800E96E080108015651080108015421EA6E97
:10522800EF5007010701126F1AEF29F000A21FEFD4
:1052380029F021EF29F01AEF29F008010801554B50
:10524800562B080108015551080108015325E96E3C
:10525800080108015651080108015421EA6EEF506F
:10526800D8A439EF29F03BEF29F0ECEF28F09D8224
:1052780000923FEF29F000A244EF29F046EF29F011
:105288003FEF29F0B190899812004DEF29F04DEFCA
:1052980029F008010801675108016A6F080108012F
:1052A800685108016B6F0801674B682B6AC8F6FFE5
:1052B8006BC8F7FF000EF86E0E0EF76403D00800F7
:1052C800F55005D0F6CFE9FFF7CFEAFFEF50080118
:1052D8006C6F080165C8F6FF080166C8F7FF000E85
:1052E800F86E0E0EF76403D00800F55005D0F6CF1F
:1052F800E9FFF7CFEAFFEF5008016D6F08016C5125
:1053080008016D5D08010801696F080169678FEF81
:1053180029F091EF29F0B7EF29F00801080165514C
:1053280008016A6F08010801665108016B6F0801DE
:10533800654B662B6AC8F6FF6BC8F7FF000EF86E60
:105348000E0EF76403D00800F55005D0F6CFE9FF3C
:10535800F7CFEAFFEF500009D8A4B5EF29F0B7EF6F
:1053680029F04BEF29F008010801695108010801EB
:10537800656F0801666B080165BF6607C4EF29F011
:1053880012000001000198ADCCEF29F0CEEF29F012
:10539800FDEF29F000010001EC690001ED69000151
:1053A800EE690001EF6900010001F0690001F1698F
:1053B8000001F2690001F36900010001F4690001CC
:1053C800F5690001F6690001F76900010001F86953
:1053D8000001F9690001FA690001FB690001000197
:1053E800FC690001FD690001FE690001FF6925EF04
:1053F8002AF06CC0ECF06DC0EDF06EC0EEF06FC03E
:10540800EFF070C0F0F071C0F1F072C0F2F073C04C
:10541800F3F074C0F4F075C0F5F076C0F6F077C01C
:10542800F7F078C0F8F079C0F9F07AC0FAF07BC0EC
:10543800FBF07CC0FCF07DC0FDF07EC0FEF07FC0BC
:10544800FFF0250E08010801246F000E0801256FE2
:105458000001DB0E08010801226F0001000E08019F
:10546800236F4DEC39F0FF0012008988050E080102
:10547800566F300EE82E3EEF2AF0562F3EEF2AF0F8
:1054880089982B0E0801566F560EE82E49EF2AF020
:10549800562F49EF2AF004000801566F020E080142
:1054A8000801586F08015651FBC557F840EC30F019
:1054B8000801566F080E08010801586F0801565177
:1054C800FAC557F840EC30F00801566F080E08018D
:1054D8000801586F08015651F9C557F840EC30F0EB
:1054E8000801566F080E08010801586F0801565147
:1054F800F8C557F840EC30F0B4EC3EF0070107016E
:1055080018051911D8A48BEF2AF08DEF2AF091EF26
:105518002AF05AEC3EF093EF2AF0B4EC3EF0080182
:10552800566F040E08010801586F0801565114C738
:1055380057F840EC30F08988050E0801566F300E98
:10554800E82EA4EF2AF0562FA4EF2AF0899812002B
:105558000801326F000E08010801316F080132514D
:105568002EC8E9FF2FC8EAFFEF5008010801356F80
:105578002CC8E9FF2DC8EAFF0801EECF33F808016F
:10558800EDCF34F887EC3EF0D8B0CDEF2AF0D0EF6D
:105598002AF0010ED1EF2AF0000E08010801306F41
:1055A80008010801312B2EC835F82FC836F82CC849
:1055B80033F82DC834F899EC3CF02EC8E9FF2FC811
:1055C800EAFFEF5008010801356F2CC8E9FF2DC824
:1055D800EAFF0801EECF33F80801EDCF34F887EC85
:1055E8003EF0D8B0FAEF2AF0FDEF2AF0010EFEEFF8
:1055F8002AF0000E080108013019D8B406EF2BF084
:1056080008EF2BF00DEF2BF00801080131511CEFCA
:105618002BF0080108013129D8A415EF2BF017EF5A
:105628002BF01AEF2BF0000E1CEF2BF0D4EF2AF022
:10563800120008010801715107010701A46327EF4F
:105648002BF029EF2BF02BEF2BF08AEF2BF0070133
:105658000701A451FE0AD8B434EF2BF036EF2BF033
:1056680056EF2BF01C0E08010801B06F000E080160
:10567800B16F010E08010801AE6F000E0801AF6F8F
:1056880007010701A4511C0D0401BD0EF3240801F4
:105698000801AC6F0801AD6B0401040E0801AD23CD
:1056A80058EC3AF071C8A4F7080108017151FE0AD4
:1056B800D8A461EF2BF063EF2BF065EF2BF08AEFA6
:1056C8002BF01C0E08010801B06F000E0801B16F25
:1056D8000801080171511C0DBD0E0801726F040EFE
:1056E800736FF35008017227E86AF3BEE86808018F
:1056F800732372C8AEF873C8AFF8010E0801080129
:10570800AC6F000E0801AD6F58EC3AF012008DEF47
:105718002BF0C5CF2AF81F0E08012A172AC82BF824
:1057280008012C6B000EC7B4010E08012B13000EE4
:105738002C1308012C512B11D8A4A5EF2BF0A7EF9F
:105748002BF08DEF2BF0C580AAEF2BF0C5B0AFEF93
:105758002BF0B1EF2BF0AAEF2BF0A1A6B6EF2BF0B0
:10576800B8EF2BF0BAEF2BF0F7EF2BF029C82FF892
:1057780019EC3AF0C0EF2BF0DBEF2BF0C582C5EF48
:105788002BF0C5B2CAEF2BF0CCEF2BF0C5EF2BF006
:10579800A1A6D1EF2BF0D3EF2BF0D5EF2BF0F7EF3D
:1057A8002BF029C82FF819EC3AF0DBEF2BF0C5BC29
:1057B800E0EF2BF0E2EF2BF0C2EF2BF0C584E5EF22
:1057C8002BF0C5B4EAEF2BF0ECEF2BF0E5EF2BF064
:1057D800A1A6F1EF2BF0F3EF2BF0F5EF2BF0F7EF9D
:1057E8002BF0F7EF2BF0120006010601CE5106014F
:1057F8000601D25D06010601CF5106010601D35903
:10580800D8B009EF2CF00BEF2CF018EF2CF00701B3
:105818000701A351070107010D19D8B416EF2CF0A1
:1058280018EF2CF01AEF2CF05EEF2CF006010601B1
:10583800D25106010601CE5D08010801516F06012B
:105848000601D35106010601CF590801526F08011C
:1058580008014F5108010801515D08010801505124
:10586800080108015259D8B03CEF2CF03EEF2CF05B
:1058780042EF2CF051C84FF852C850F84FC8C4F83E
:1058880050C8C5F84DC8C2F84EC8C3F86DEC38F01A
:10589800C2C84FF8C3C850F8080108014F510601A3
:1058A8000601D22708010801505106010601D32339
:1058B8005EEF2CF01200020E08010801BA25E96E0D
:1058C800000E08010801BB21EA6E0801EECFBCF802
:1058D8000801EDCFBDF82FEC43F0020E08010801D6
:1058E800BA25E96E000E08010801BB21EA6E08011D
:1058F800BCC8EEFF0801BDC8EDFF040E0801080191
:10590800BA25E96E000E08010801BB21EA6E0801FC
:10591800EECFBCF80801EDCFBDF82FEC43F0040E34
:1059280008010801BA25E96E000E08010801BB212B
:10593800EA6E0801BCC8EEFF0801BDC8EDFF0A0EFB
:1059480008010801BA25E96E000E08010801BB210B
:10595800EA6E0801EECFBCF80801EDCFBDF82FECD8
:1059680043F00A0E08010801BA25E96E000E080185
:105978000801BB21EA6E0801BCC8EEFF0801BDC8DA
:10598800EDFF120012C816F811C815F80CECE7F074
:1059980008010801136F080108011351FE0AD8A471
:1059A800D8EF2CF0DAEF2CF0E3EF2CF0FE0E080124
:1059B8000801116FFF0E0801126F2CEF2DF008017E
:1059C80008011329D8A4EBEF2CF0EDEF2CF0F4EF3D
:1059D8002CF0080108011169080112692CEF2DF05B
:1059E8000701D8903533080108011351D8B4FFEFE7
:1059F8002CF001EF2DF004EF2DF007010701358F92
:105A080007010701292B070107012C2B080E0701A5
:105A180007012C6112EF2DF014EF2DF01BEF2DF084
:105A2800080108011169080112692CEF2DF008011D
:105A3800146F000E070107012C6F080114510701AC
:105A4800080135C711F808010801126B2CEF2DF079
:105A580012005FEF2DF0000E93EF2DF0010E93EF83
:105A68002DF0020E93EF2DF0030E93EF2DF0040EA0
:105A780093EF2DF0050E93EF2DF0060E93EF2DF01A
:105A8800070E93EF2DF0080E93EF2DF0090E93EF0C
:105A98002DF00A0E93EF2DF00B0E93EF2DF00C0E58
:105AA80093EF2DF00D0E93EF2DF00E0E93EF2DF0DA
:105AB8000F0E93EF2DF0080108017251300ACBE068
:105AC800010ACCE0030ACDE0010ACEE0070ACFE0E4
:105AD800010AD0E0030AD1E0010AD2E00F0AD3E0BC
